:020000040800F2
:10000000500800209D0100081B0D00086F0C00081F
:10001000190D00083B0200087514000800000000DC
:10002000000000000000000000000000571300085E
:100030003D02000800000000551300089F1300084F
:10004000B7010008B7010008B7010008B7010008B0
:10005000B7010008B7010008B7010008B7010008A0
:10006000B7010008B7010008B7010008B701000890
:10007000B7010008B7010008B7010008B701000880
:10008000B7010008B7010008B7010008B701000870
:10009000B7010008B7010008B7010008B701000860
:1000A000B7010008B7010008B7010008B701000850
:1000B000B7010008B7010008B7010008B701000840
:1000C000B7010008B7010008B7010008B701000830
:1000D000B7010008B7010008B7010008B701000820
:1000E000B7010008B7010008B7010008B701000810
:1000F000B7010008B7010008B7010008B701000800
:10010000000000000000000000000000B70100082F
:10011000B7010008B7010008B7010008B7010008DF
:10012000B7010008B7010008B7010008B7010008CF
:10013000B7010008B701000800000000000000003F
:10014000B7010008B7010008B7010008000000006F
:10015000000000000000000000000000000000009F
:100160000000000000000000B7010008B70100080F
:10017000B7010008000000000000000000000000BF
:1001800000000000B7010008DFF80CD000F018F8FC
:100190000048004795140008500800200648804792
:1001A00006480047FEE7FEE7FEE7FEE7FEE7FEE75C
:1001B000FEE7FEE7FEE7FEE70D14000889010008F0
:1001C000064C074D06E0E06840F0010394E80700A4
:1001D00098471034AC42F6D3FFF7DAFFC03400087A
:1001E000E034000870B58C1810F8015B15F00703B7
:1001F00001D110F8013B2A1106D110F8012B03E0C0
:1002000010F8016B01F8016B5B1EF9D12B0705D4C7
:100210000023521E0DD401F8013BFAE710F8013B10
:10022000CB1A921C03E013F8015B01F8015B521E2C
:10023000F9D5A142D8D3002070BDFEE77047000079
:1002400070B5044600F0D8F80546601C02D004489A
:100250000078044400F0D0F8401BA042FAD370BDEF
:10026000040200202DE9F84FDFF864B100234FF0BD
:10027000010C4FF0030A4FF00F090BF1040EA0E040
:100280000CFA03F6324072D04C68022C01D0122CCA
:100290000ED1DC0800EB8408D8F820405D07EF0E93
:1002A00009FA07F5AC430D69BD402543C8F8205055
:1002B00007685D0091F804800AFA05F408F0030865
:1002C000A74308FA05F848EA0708C0F800804F6815
:1002D000012F05D0022F03D0112F01D0122F11D1E1
:1002E0008768D1F80C80A74308FA05F848EA0708A0
:1002F000C0F808804768B7430E79C6F300169E40E1
:100300003E434660C668A6438C68AC403443C46034
:100310004C68E40054D52F4CA56945F00105A56152
:10032000A46923F0030504F0010400942A4C2E195B
:10033000B4689D072F0F09FA07F5AC43B0F1904F51
:1003400004D0264DA84203D1012512E0002510E07B
:10035000234DA84201D102250BE0224DA84201D134
:10036000032506E0204DA84202D1042501E027E044
:100370000525BD402543B560DBF800405D464E686D
:100380009443F60300D514432C60DEF80040754614
:100390004E689443B60300D514432C600C4D0835C9
:1003A0002C684E689443F60200D514432C60084D27
:1003B0000C352C684E689443B60200D514432C606B
:1003C0005B1C0A6832FA03F47FF45AAFBDE8F88F79
:1003D00000040140001002400000014000040048F9
:1003E00000080048000C0048001000480AB1816174
:1003F00070478162704700000148806870470000C4
:10040000040200200248816802781144816070472C
:1004100004020020074810B5016841F01001016096
:10042000032000F04BF8002000F006F800F024F85C
:10043000002010BD0020024070B50D4D04464FF461
:100440007A712878B1FBF0F00A490968B1FBF0F045
:1004500000F0F5FB48B9102C07D200222146501EAF
:1004600000F00CF800206C6070BD012070BD000031
:10047000040200200002002070470000F0B40E4B80
:100480001B680C46C3F30223C3F10705042D00D9F2
:100490000425191D072901D2002300E0DB1E0126D7
:1004A00006FA05F1491E214099409E40761E1640ED
:1004B0003143F0BC00F032BC0CED00E0064900F026
:1004C000070208684FF6FF03184040EA0220034A7B
:1004D00010430860704700000CED00E00000FA05D2
:1004E0002DE9F0470F46050069D04A4E306800F00C
:1004F0000700B84209D2306820F007003843306066
:10050000306800F00700B84259D12878424C800783
:1005100005D56068A96820F0F0000843606028787D
:10052000C0073DD06968012001290DD0022923D0E0
:100530005FF0020393FAA3F2B2FA82F242F02002D1
:10054000520904D0226803E04FF40033F2E7626AF4
:1005500093FAA3F3B3FA83F303F01F039840024224
:100560002DD0606820F0030008436060FFF744FF6F
:10057000804641F288390CE04FF00073DAE700BFA3
:10058000FFF73AFFA0EB0801494502D90320BDE877
:10059000F0876068696800F00C00B0EB810FEFD164
:1005A000306800F00700B8420BD9306820F007002F
:1005B00038433060306800F00700B84201D00120B5
:1005C000E5E72878400705D56068E96820F4E06031
:1005D000084360602878000706D56068296920F420
:1005E000605040EAC100606000F022F86168F022CB
:1005F00092FAA2F201F0F001B2FA82F2D140074A77
:10060000515CC840064908600020FFF715FF002034
:10061000BDE70000002002400010024080160008E4
:10062000000200200148006870470000000200201E
:10063000144B10B55A68144802F00C0104291DD05F
:1006400008291BD14FF4701494FAA4F402F4701129
:10065000B4FA84F4E1400D4CDB6A615C0F2494FA37
:10066000A4F403F00F03B4FA84F4E340074C10340D
:10067000D203E35C03D5B0FBF3F0484310BD04485C
:10068000484310BD0010024000127A00A034000858
:1006900000093D002DE9F84F040071D02078FB4D92
:1006A000C0074FF0010625D068687704C0F38100C9
:1006B000012807D06868C0F3810002281BD1686850
:1006C000C00318D597FAA7F0B0FA80F040F02000E8
:1006D000400901D0286800E0686A97FAA7F1B1FAEA
:1006E00081F101F01F0106FA01F1084265D060684E
:1006F0000028D2D061E06068B0F5803F0BD010B127
:10070000B0F5A02F17D0286820F480302860286822
:1007100020F4802002E0286840F480302860E86AF5
:10072000A16820F00F000843E862606820B3FFF77B
:1007300063FE80460AE0286840F480202860EAE7EB
:10074000FFF75AFEA0EB0800642872D897FAA7F0CA
:10075000B0FA80F040F02000400901D0286800E0A5
:10076000686A97FAA7F1B1FA81F101F01F0106FA60
:1007700001F10842E4D020E0FFF73EFE804607E0AA
:10078000C7E000BFFFF738FEA0EB08006428DCD804
:1007900097FAA7F0B0FA80F040F02000400901D0AD
:1007A000286800E0686A97FAA7F1B1FA81F101F0D0
:1007B0001F0106FA01F10842E4D12078DFF8D08267
:1007C00080074FF0000A4FF0020759D568684FF0D4
:1007D000F80B10F00C0F07D06868C0F381000228F6
:1007E0001BD16868C00318D497FAA7F0B0FA80F05C
:1007F00040F02000400901D0286800E0686A97FABC
:10080000A7F1B1FA81F101F01F0106FA01F10842E6
:100810002BD0206901287CD127E0206988B396FA83
:10082000A6F0B0FA80F048F82060FFF7E5FD8146B9
:1008300006E055E1FFF7E0FDA0EB0900022884D8AF
:1008400097FAA7F0B0FA80F040F02000400901D0FC
:10085000286800E0686A97FAA7F1B1FA81F101F01F
:100860001F0106FA01F10842E4D028689BFAABF2B6
:100870006169B2FA82F220F0F800914008432860E2
:1008800025E0FFE796FAA6F1B1FA81F148F821A038
:10089000FFF7B2FD814605E0FFF7AEFDA0EB0900D2
:1008A0000228CCD897FAA7F0B0FA80F040F02000E8
:1008B000400901D0286800E0686A97FAA7F1B1FA08
:1008C00081F101F01F0106FA01F10842E4D120781C
:1008D00000076AD5A069A0B396FAA6F0B0FA80F036
:1008E00008EB8000C0F88064FFF786FD814605E0D4
:1008F000FFF782FDA0EB09000228A0D897FAA7F025
:10090000B0FA80F040F06000B6EB501F02D12868CA
:100910000CE077E197FAA7F0B0FA80F040F06000C1
:10092000B7EB501F01D1286A00E0686A97FAA7F177
:10093000B1FA81F101F01F0106FA01F21042D7D09D
:1009400033E0FFE796FAA6F0B0FA80F008EB8000FB
:10095000C0F880A4FFF750FD814605E0FFF74CFD8D
:10096000A0EB090002289CD897FAA7F0B0FA80F013
:1009700040F06000B6EB501F01D128680BE097FAF9
:10098000A7F0B0FA80F040F06000B7EB501F01D143
:10099000286A00E0686A97FAA7F1B1FA81F101F0DC
:1009A0001F0106FA01F21042D8D12078400774D511
:1009B000E8694FF00009C00009D4E86940F08050B0
:1009C000E861E8694FF0010900F08050009031487B
:1009D0000168C90512D4016841F480710160FFF714
:1009E0000BFD834606E000BFFFF706FDA0EB0B0002
:1009F000642875D827480068C005F5D5E068012847
:100A00000AD008B1052811D0286A20F00100286218
:100A1000286A20F0040002E0286A40F00100286201
:100A2000E068C8B3FFF7E8FC83460DE0286A40F0B1
:100A300004002862F0E700BFFFF7DEFCA0EB0B012B
:100A400041F2883081424BD897FAA7F0B0FA80F093
:100A500040F04000B6EB501F01D128680BE097FA38
:100A6000A7F0B0FA80F040F04000B7EB501F01D182
:100A7000286A00E0686A97FAA7F1B1FA81F101F0FB
:100A80001F0106FA01F21042D6D035E000100240F4
:100A9000000042420070004000E034E0FFF7ACFC90
:100AA000834607E0FFF7A8FCA0EB0B0141F288307A
:100AB000814215D897FAA7F0B0FA80F040F04000D4
:100AC000B6EB501F01D128680CE097FAA7F0B0FAF6
:100AD00080F040F04000B7EB501F02D1286A01E0DF
:100AE00083E0686A97FAA7F1B1FA81F101F01F017A
:100AF00006FA01F21042D5D1B9F1000F03D0E8692E
:100B000020F08050E861E06980B36968C1F3810139
:100B1000022977D04FF080714F00022809D091FA56
:100B2000A1F0B0FA80F048F820A0FFF765FC044679
:100B30005EE050468A4691FAA1F1B1FA81F1C146D0
:100B400048F82100FFF758FC804605E0FFF754FC09
:100B5000A0EB0800022848D897FAA7F0B0FA80F076
:100B600040F02000400902D0286801E056E0686AA1
:100B700097FAA7F1B1FA81F101F01F0106FA01F12C
:100B80000842E3D1D4E908100843696821F47411DC
:100B9000084368609AFAAAF0B0FA80F049F8206039
:100BA000FFF72AFC044604E0FFF726FC001B02289E
:100BB0001BD897FAA7F0B0FA80F040F02000400967
:100BC00001D0286800E0686A97FAA7F1B1FA81F1CC
:100BD00001F01F0106FA01F10842E5D01EE000BF56
:100BE000FFF70AFC001B022802D90320BDE8F88F9A
:100BF00097FAA7F0B0FA80F040F02000400902D048
:100C0000286801E00CE0686A97FAA7F1B1FA81F16F
:100C100001F01F0106FA01F10842E1D10020E5E7E9
:100C20000120E3E74FF0E0210428086903D020F019
:100C300004000861704740F00400FAE7704710B5FF
:100C4000401EB0F1807F01D3012010BD4FF0E024A1
:100C500060610F21601700F061F80020A06107209B
:100C60002061002010BD10B5FFF7E8FF10BDFEE7C2
:100C700010B54FF09044012280212046FFF7B6FBCB
:100C8000012220212046FFF7B1FB00F040F80022AE
:100C900080212046FFF7AAFB00F039F8002220212E
:100CA0002046FFF7A3FBBDE8104000F030B810B5B8
:100CB0004FF09044002280212046FFF797FB01224D
:100CC00020212046FFF792FB00F021F82046012268
:100CD000BDE810408021FFF789BB10B54FF090446C
:100CE000012280212046FFF781FB00F010F801224D
:100CF00020212046FFF77AFB00F009F8002220218E
:100D00002046FFF773FBBDE81040AFF300800320DF
:100D1000401EC0B2FCD27047FEE770470907090EBB
:100D2000002806DA00F00F0000F1E02080F8141D22
:100D3000704700F1E02080F80014704730B40021C3
:100D4000084B0A465FF0000003EB8004401CC0B271
:100D500062548028F8D3491CC9B20429F2D330BCAC
:100D600000F0E2B81002002030B5CC0801F0070313
:100D700001259D40EBB2064D05EB8005C808285CB7
:100D80000AB1184302E063EA0000C043285530BDB1
:100D90001002002070B55D4886B0416941F4003111
:100DA0004161416901F400310591416941F400213B
:100DB0004161416901F400210591416941F48011CB
:100DC0004161406901AA00F480100590A0200090C4
:100DD00011200124032582E831004FF09046694636
:100DE0003046FFF73FFA0122A0213046FFF7FEFA16
:100DF0002003CDE9000469464548CDE90245FFF7E7
:100E000031FA0420CDE90004CDE90245414C6946A0
:100E10002046FFF727FA012204212046FFF7E6FAD1
:100E2000002204212046FFF7E1FAC820FFF708FA64
:100E3000012204212046FFF7D9FA0021AE2000F05C
:100E40006EFA0021084600F06AFA0021102000F036
:100E500066FA0021084600F062FA0021B02000F096
:100E60005EFA0021812000F05AFA0021FF2000F0F4
:100E700056FA0021A12000F052FA0021A62000F02D
:100E80004EFA0021A82000F04AFA00211F2000F0AD
:100E900046FA0021C82000F042FA0021D32000F0D9
:100EA0003EFA0021084600F03AFA0021D52000F071
:100EB00036FA0021802000F032FA0021D92000F01B
:100EC0002EFA00211F2000F02AFA0021DA2000F07B
:100ED00026FA0021084600F022FA0021DB2000F06B
:100EE0001EFA0021402000F01AFA00218D2000F0A7
:100EF00016FA0021142000F012FAFFF71FFF00215C
:100F0000AF2000F00CFA06B070BD000000100240E7
:100F100000080048000C00480246012000E0504351
:100F2000491EC9B2FBD2704770B5184E002400BFED
:100F300004F1B000C0B2002100F0F1F90021084630
:100F400000F0EDF90021102000F0E9F9FFF790FE24
:100F5000782000F001FAFFF7C0FE402000F0FCF915
:100F6000FFF7BBFE5FF0000506EB8500005D00F0BB
:100F7000F3F9FFF7B2FE6D1CEDB2802DF4D3FFF74D
:100F800096FE641CE4B2042CD2D370BD1002002083
:100F900008B50026234C91460F468046354610235F
:100FA000324608218020CDF8009000F0AFF8761C82
:100FB000F6B246451AD1002614E00121002004EBC8
:100FC000810202EB000C135C401CC0B20CF8043C24
:100FD0000428F6D3491CC9B29029EFD3FFF7A4FF28
:100FE000761CF6B2B6EB071FE7D300266D1CEDB2F8
:100FF000102D00D100250121002004EB810202EB1D
:10100000000C135C401CC0B20CF8043C0428F6D35E
:10101000491CC9B29029EFD3FFF786FF002DC8D134
:10102000BDE70000100200202DE9FC4F1C460E46D3
:1010300082468B460190082B0ED0600700D001201D
:1010400000EBD400610810FB01F0C0B28146203AE9
:10105000D0B2009000204AE00620F7E7082C12D01A
:101060000C2C17D0102C1AD0182C43D100982349DF
:1010700000EBC00001EB8001002711F80850E807E1
:1010800012D00B9A13E000981D4900EB400001EBD1
:101090004001F1E700981B4900EB4000EAE71A49DC
:1010A000009801EB0011E7E70B9828B300223146C6
:1010B0005046FFF759FE761C7F1C6D08FFB2F6B252
:1010C000082FDCD30AF1010000F0FF0A082C0AD037
:1010D0000199AAEB0100B0EB540F04D10BF1080009
:1010E0008A4600F0FF0B08F101005E46C0B2804660
:1010F0004845B3D3BDE8FC8F0122D8E71C23000884
:1011000090160008B81800082C1D00082DE9FF4FA4
:1011100081B08146009098460E468B46580701D014
:10112000012100E0002101EBD80111FB08FA0024A5
:1011300048E000BFB8F1100F12D0B8F1180F14D06A
:10114000B8F1200F19D0B8F1400F3DD121490398D3
:1011500001EB40200027055DE80714D00E9A15E04A
:101160001D49039801EB4010F4E70398194900EB7F
:10117000C000C83901EBC000ECE71649039880397C
:1011800001EBC010E6E70E9808B30022314648464E
:10119000FFF7EAFD761C7F1C6D08FFB2F6B2082F40
:1011A000DAD309F10100009900F0FF09A9EB010170
:1011B000414505D10BF10800DDF8009000F0FF0B70
:1011C0005E46641C5445B5D305B0BDE8F08F0122DE
:1011D000DCE70000A0320008783000082DE9F84F65
:1011E0000025DDE90A691F4692468B468046082E97
:1011F00000D1022500241CE0381B401EC1B20A2089
:10120000FFF78AFEBAFBF0F00A21B0FBF1F201FB16
:101210001200CDF8009080B13030C2B205EB56011B
:1012200001FB0480C0B233465946FFF7FDFE641C43
:10123000E4B2BC42E0D3BDE8F88F05EB560101FBF8
:101240000480C0B233463022EEE72DE9FF4F82B072
:101250008046019092460C464FF000098B46580795
:1012600000D0012000EBD3000590002030E00026E4
:1012700029E00F98002510F8097009F10109F80715
:1012800001D0109A02E0109848B30022214640464F
:10129000FFF76AFD641C6D1C7F08EDB2E4B2082DF7
:1012A000EDD308F10100019900F0FF08A8EB01015E
:1012B000514505D10BF10800DDF8048000F0FF0B6B
:1012C000761C5C46F6B25645D3D30098401CC0B29B
:1012D000009005998842CAD306B0BDE8F08F01227C
:1012E000D4E72DE9F8411E46154688460446079F77
:1012F0000BE03346414620460097FFF795FE082E47
:101300000AD004EB5600C4B26D1C2A78A2F120006A
:101310005E28EED9BDE8F881A41DE4B2F4E770B50B
:101320000C460546FFF7A4FC782000F015F8FFF7FF
:10133000D4FC0CB1402000E0002000F00DF8FFF7D5
:10134000CCFC284600F008F8FFF7C7FCBDE8704069
:10135000FFF7ADBC7047704770B5054600244FF0ED
:101360009046280601D5012200E000228021304667
:10137000FFF73CF8FFF7CBFC012220213046FFF7B6
:1013800035F8FFF7C4FC002220213046FFF72EF885
:101390006806641C050EE4B2082CE2D370BD10B5DB
:1013A000FFF730F8BDE81040FFF75DBC30B58FB0F7
:1013B00001210804CDE900100024029402250491C3
:1013C000CDE907504FF4E01009906846FFF762F945
:1013D0000F20CDE90A056802CDE90C4002210AA8D8
:1013E0000E94FFF77DF8FFF71DF94FF47A71B0FB0B
:1013F000F1F0FFF724FC0420FFF714FC0022114653
:10140000501EFFF73BF80FB030BD000014480168D4
:1014100041F4700101601348016841F0010101606D
:101420004168114A114041600168104A1140016051
:10143000016821F480210160416821F4FE014160CE
:10144000C16A21F00F01C162016B094A11400163B9
:10145000002181600249C0038039086070470000A4
:1014600088ED00E0001002400CC07FF8FFFFF6FEA0
:10147000CCFC00FFFEE702E008C8121F08C1002AEA
:10148000FAD170477047002001E001C1121F002A05
:10149000FBD170471CB52025FEF7BCFFFFF786FF88
:1014A000FFF778FC0022E9016448FEF79FFF644FD4
:1014B00001244FF4FA764FF01008CDE900740021B2
:1014C000202380220846FFF7C0FEFFF72DFD30469F
:1014D000FEF7B6FEFFF732FC00221023114610463D
:1014E0000094FFF713FE1023012200211220009424
:1014F000FFF70CFE10230222002124200094FFF7A6
:1015000005FE10230322002136200094FFF7FEFD84
:1015100010230422002148200094FFF7F7FD102338
:10152000052200215A200094FFF7F0FD1023062227
:1015300000216C200094FFF7E9FD102341A2194619
:1015400008200094FFF7CDFEFFF7EEFC3046FEF7D3
:1015500077FEFFF7F3FB10233EA200211420009436
:10156000FFF7BFFE10233EA2194600200094FFF7AC
:10157000B8FE10233CA219463F200094FFF7B1FEAD
:1015800010232A46194630200094FFF74DFD6D1CAC
:10159000EDB27E2D00D92025CDE9008403232A4613
:1015A00010216720FFF71AFEFFF7BEFC3046FEF75A
:1015B00047FEFFF7C3FB002210231146104600949C
:1015C000FFF7A4FD00221823114610200094FFF716
:1015D0009DFD00222023114628200094FFF796FD50
:1015E000FFF7A2FC3046FEF72BFEFFF7A7FB082310
:1015F0001FA2072100200094FFF773FE0C231DA2F9
:10160000042112200094FFF76CFE10231AA202217D
:1016100024200094FFF765FE182318A2002138202B
:101620000094FFF75EFEFFF77FFC3046FEF708FEF2
:10163000012204210B20FFF7ABFC3EE70008004825
:10164000000000205A484F4E474A494E47595541DD
:101650004E000000323031342F30352F3031000051
:1016600041534349493A0000434F44453A00000082
:101670004100000042000000430000004400000060
:101680000000000000000000010203040607080932
:101690000000000000000000002F00000000070014
:1016A000070000147F147F1400242A7F2A1200628E
:1016B000640813230036495522500000050300003A
:1016C00000001C224100000041221C000014083EC2
:1016D00008140008083E0808000000A06000000888
:1016E00008080808000060600000002010080402DC
:1016F000003E5149453E0000427F4000004261519A
:101700004946002141454B31001814127F10002733
:1017100045454539003C4A494930000171090503F6
:1017200000364949493600064949291E0000363627
:10173000000000005636000000081422410000148A
:101740001414141400004122140800020151090667
:1017500000324959513E007C1211127C007F4949E8
:101760004936003E41414122007F4141221C007F19
:1017700049494941007F09090901003E4149497A27
:10178000007F0808087F0000417F410000204041A1
:101790003F01007F08142241007F40404040007F0D
:1017A000020C027F007F0408107F003E4141413E51
:1017B000007F09090906003E4151215E007F091999
:1017C00029460046494949310001017F0101003F96
:1017D0004040403F001F2040201F003F4038403F16
:1017E000006314081463000708700807006151497A
:1017F000454300007F41410000552A552A5500000D
:1018000041417F000004020102040040404040408A
:10181000000001020400002054545478007F484422
:10182000443800384444442000384444487F003859
:101830005454541800087E0901020018A4A4A47C82
:10184000007F080404780000447D4000004080844C
:101850007D00007F102844000000417F4000007C94
:1018600004180478007C08040478003844444438A0
:1018700000FC242424180018242418FC007C0804EC
:10188000040800485454542000043F444020003CC5
:101890004040207C001C2040201C003C4030403C4C
:1018A000004428102844001CA0A0A07C00446454DC
:1018B0004C44141414141414000000000000000020
:1018C000000000000000FC0000000000020000001A
:1018D000000C020C020000000000000090D0BCD000
:1018E000BC900003000300001824FE448C00030297
:1018F000070201001824D8B04C8000030001020147
:10190000C038E438E00001020201020208060000CB
:101910000000000000000000000000F804020000C9
:1019200000010204000204F80000000402010000AB
:101930009060F86090000000010000002020FC2072
:101940002000000001000000000000000000080668
:1019500000000000202020202000000000000000E7
:101960000000000000000002000000000080601C79
:101970000200040300000000F8040404F80001025F
:10198000020201000008FC00000000020302000047
:1019900018844424180003020202020008042424CC
:1019A000D80001020202010040B088FC8000000063
:1019B000000302003C242424C400010202020100AE
:1019C000F824242CC0000102020201000C04E41CD3
:1019D0000400000003000000D8242424D8000102E1
:1019E0000202010038444444F800000302020100EE
:1019F00000001000000000000200000000002000B5
:101A000000000000060000000020508804020000D2
:101A100000000102909090909000000000000000F3
:101A20000002048850200002010000001804C424B1
:101A30001800000002000000F804E494F80001021D
:101A40000202020000E09CF080000203000003029A
:101A500004FC2424D800020302020100F804040458
:101A60000C0001020202010004FC0404F80002035D
:101A70000202010004FC24740C00020302020300B1
:101A800004FC24740C00020302000000F00804446B
:101A9000CC4000010202010004FC2020FC040203EF
:101AA000000003020404FC0404000202030202001A
:101AB000000404FC040406040403000004FC24D015
:101AC0000C0402030200030204FC040000000203F1
:101AD00002020203FC3CC03CFC00030003000300C4
:101AE00004FC30C4FC04020302000300F8040404F4
:101AF000F80001020202010004FC24241800020381
:101B000002000000F8848404F800010202070500C6
:101B100004FC2464980002030200030218242444F5
:101B20008C000302020201000C04FC040C00000201
:101B30000302000004FC0000FC040001020201009A
:101B4000047C80E01C040000030000001CE03CE07A
:101B50001C00000300030000049C609C04000203BE
:101B600000030200041CE01C040000020302000049
:101B70000C84641C04000203020203000000FE0245
:101B80000200000007040400000E30C00000000046
:101B900000010200000202FE000000040407000031
:101BA000000402040000000000000000000000002B
:101BB00000000808080808080000020000000000F3
:101BC000000000000040A0A0C000000102020302CB
:101BD00004FC2020C00000030202010000C02020FD
:101BE000600000010202020000C02024FC0000018D
:101BF0000202030200C0A0A0C00000010202020015
:101C00000020F82424040002030202000040A0A0E7
:101C1000602000070A0A0A0404FC2020C000020316
:101C2000020003020020E4000000000203020000A2
:101C3000000020E4000008080807000004FC80E021
:101C400020200203020003020404FC000000020240
:101C500003020200E020E020C000030003000300B4
:101C600020E02020C00002030200030200C0202068
:101C7000C00000010202010020E02020C000080F87
:101C80000A02010000C02020E0000001020A0F0843
:101C900020E0402020000203020000000060A0A01D
:101CA00020000002020203000020F82000000000D3
:101CB0000102020020E00020E00000010202030215
:101CC00020E0208060200000030100006080E080B0
:101CD0006000000300030000206080602000020319
:101CE0000003020020E020806020080807010000B7
:101CF0000020A0602000000203020200000020DE9D
:101D00000200000000070400000000FF00000000C7
:101D1000000F00000002DE200000000407000000A9
:101D200002010204040200000000000000000000A4
:101D3000000000000000000000000000000000F8AB
:101D400000000000000000333000000000100C060E
:101D5000100C0600000000000000000040C07840A9
:101D6000C0784000043F04043F040400007088FC75
:101D700008300000001820FF211E0000F008F000CD
:101D8000E018000000211C031E211E0000F008883E
:101D9000700000001E2123241927211010160E00A8
:101DA000000000000000000000000000000000E053
:101DB0001804020000000007182040000002041868
:101DC000E00000000040201807000000404080F0C4
:101DD000804040000202010F01020200000000F0FA
:101DE000000000000101011F0101010000000000CE
:101DF0000000000080B07000000000000000000043
:101E000000000000000101010101010100000000CB
:101E10000000000000303000000000000000000062
:101E200080601804006018060100000000E010083F
:101E30000810E000000F102020100F00001010F814
:101E4000000000000020203F202000000070080853
:101E500008887000003028242221300000300888D3
:101E6000884830000018202020110E000000C020FB
:101E700010F8000000070424243F240000F808881C
:101E8000880808000019212020110E0000E01088A9
:101E900088180000000F112020110E0000380808DB
:101EA000C83808000000003F0000000000708808EB
:101EB00008887000001C222121221C0000E010086C
:101EC0000810E0000000312222110F00000000C0C5
:101ED000C000000000000030300000000000008062
:101EE0000000000000008060000000000000804052
:101EF000201008000001020408102000404040406B
:101F000040404000040404040404040000081020BD
:101F10004080000000201008040201000070480802
:101F20000808F0000000003036010000C030C8286A
:101F3000E810E0000718272423140B000000C03825
:101F4000E0000000203C23020227382008F888889F
:101F500088700000203F202020110E00C0300808AB
:101F600008083800071820202010080008F8080882
:101F70000810E000203F202020100F0008F888887B
:101F8000E8081000203F20202320180008F8888847
:101F9000E8081000203F200003000000C0300808BF
:101FA0000838000007182020221E020008F8080048
:101FB0000008F808203F210101213F20000808F80F
:101FC000080800000020203F202000000000080832
:101FD000F8080800C08080807F00000008F888C0F2
:101FE00028180800203F20012638200008F80800A3
:101FF00000000000203F20202020300008F8F800DA
:10200000F8F80800203F003F003F200008F830C0EB
:102010000008F808203F200007183F00E0100808DB
:102020000810E0000F10202020100F0008F808080A
:102030000808F000203F210101010000E01008081D
:102040000810E0000F18242438504F0008F8888842
:1020500088887000203F2000030C30200070880822
:10206000080838000038202121221C00180808F830
:10207000080818000000203F2000000008F80800B1
:102080000008F808001F202020201F000878880082
:1020900000C83808000007380E010000F80800F8F2
:1020A0000008F800033C0700073C0300081868809C
:1020B0008068180820302C03032C30200838C80012
:1020C000C83808000000203F200000001008080861
:1020D000C83808002038262120201800000000FE03
:1020E000020202000000007F40404000000C30C0AF
:1020F00000000000000000010638C00000020202DB
:10210000FE000000004040407F000000000004028C
:1021100002020400000000000000000000000000B7
:1021200000000000808080808080808000020204A7
:10213000000000000000000000000000000080809F
:10214000808000000019242222223F2008F800800D
:1021500080000000003F112020110E0000000080D0
:1021600080800000000E112020201100000000805F
:102170008088F800000E112020103F200000808091
:1021800080800000001F222222221300008080F0A5
:10219000888888180020203F2020000000008080D0
:1021A00080808000006B94949493600008F8008015
:1021B00080800000203F210000203F200080989870
:1021C000000000000020203F2020000000000080D0
:1021D0009898000000C08080807F000008F8000010
:1021E00080808000203F24022D302000000808F865
:1021F000000000000020203F202000008080808020
:1022000080808000203F20003F20003F80800080B1
:1022100080800000203F210000203F2000008080BF
:1022200080800000001F202020201F008080008070
:102230008000000080FFA12020110E00000000801F
:1022400080808000000E112020A0FF808080800010
:102250008080800020203F2120000100000080803D
:10226000808080000033242424241900008080E032
:10227000808000000000001F2020000080800000FF
:1022800000808000001F202020103F2080808000E0
:102290000080808000010E300806010080800080F0
:1022A000008080800F300C030C300F000080800015
:1022B000808080000020312E0E3120008080800040
:1022C0000080808080818E701806010000808080F0
:1022D000808080000021302C22213000000000008E
:1022E000807C020200000000003F4040000000002F
:1022F000FF00000000000000FF0000000002027C60
:10230000800000000040403F000000000006010186
:1023100002020404000000000000000000000000B1
:1023200000000000000000000000000000000000AD
:10233000000000000000000000000000000000009D
:102340000000000000F0F0F00000000000000000BD
:1023500000017F010000000000000000001C1C1CA8
:102360000000000000008060301C8C60301C0C00FD
:10237000000000000000000000000000000000005D
:102380000000000000000000000000E0000000006D
:1023900000E000000086E69F86868686E69F86002F
:1023A00000011F01010101011F010100000080C0A7
:1023B0006020F820E0C00000000003070C18FF7048
:1023C000E18100000000070F10107F100F070000D0
:1023D0008060206080000000E02000000F3020308E
:1023E0009F70DC371030C0000000100E030007188B
:1023F000101807000000C02020E0C000000000000E
:1024000080E01F38E88703C43C040000070F181061
:10241000100B070D1010080000808C4C38000000D5
:1024200000000000000000000000000000000000AC
:10243000000000000000000000000000000000009C
:10244000000080E0300804000000000000FEFF01F2
:1024500000000000000000000000030F18204000F2
:1024600000040830E08000000000000000000000D0
:1024700001FFFE0000000000004020180F030000D4
:1024800000000000000000000000C000000000008C
:10249000004266663C18FF183C6666420000000079
:1024A00000000300000000000000000000008000A9
:1024B00000000000001010101010FF10101010107D
:1024C0000000000000000300000000000000000009
:1024D00000000000000000000000000000000000FC
:1024E0000000000000808C4C38000000000000005C
:1024F00000000000000000000000000000101010AC
:10250000101010101010100000000000000000005B
:1025100000000000000000000000000000000000BB
:1025200000000000000000000000000000001C1C73
:102530001C0000000000000000000000000000007F
:10254000E0380C000000000080701C030000000058
:102550000060380E0100000000000000000080C094
:1025600060202060C080000000FEFF01000000002D
:1025700001FFFE000001070E181010180E070100E1
:102580000000808080C0E00000000000000000002B
:1025900000FFFF000000000000001010101F1F10BF
:1025A000101000000080402020202060C08000002B
:1025B00000030300804020381F070000001C1A1988
:1025C00018181818181F00000080C020202060C0B4
:1025D00080000000000303001010182FE7800000A7
:1025E00000070F10101010180F0700000000000067
:1025F0000000C0E0F000000000C0B088868180FFCD
:10260000FF808000000000000010101F1F1010004D
:102610000000E060606060606060000000003F10EB
:1026200008080818F0E0000000070B101010101C3C
:102630000F030000000080C040202020E0C0000008
:1026400000FCFF211008080818F0E0000001070C4A
:1026500018101010080F03000000C0E060606060F8
:1026600060E06000000003000000E01807000000C8
:1026700000000000001F1F00000000000080C0607C
:102680002020202060C080000087EF2C18183030F8
:1026900068CF830000070F0810101010180F0700F4
:1026A0000000C0C020202020C0800000001F3F602C
:1026B0004040402010FFFE0000000C1C10101008CD
:1026C0000F030000000000000000000000000000F8
:1026D00000000000000E0E0E0000000000000000D0
:1026E000001C1C1C00000000000000000000000096
:1026F0000000000000000000000C0C0000000000C2
:102700000000000000583800000000000000000039
:1027100000000080402010000000102844820100CA
:10272000000000000000000000000102040810008A
:10273000000000000000000000000000008484840D
:1027400084848484848484000000000000000000ED
:102750000000000000001020408000000000000089
:102760000000000000000182442810000000100852
:10277000040201000000000000C020201010101012
:1027800030E0C0000003030000F010080C07030055
:10279000000000001C1C1C0000000000000000C025
:1027A000406020202040C00000FCFF01F00E03C16B
:1027B000FE03807F0001070E0811111011090402A9
:1027C0000000000080E0E000000000000000807CCD
:1027D0004340477FF880000010181F1000000000E1
:1027E000131F1C1020E0E02020202060C08000008B
:1027F00000FFFF10101010182FE78000101F1F108F
:1028000010101010180F0700000080C0402020207A
:102810002060E00000FCFF0100000000000001005B
:102820000001070E181010100804030020E0E0203B
:1028300020202040C080000000FFFF0000000000BA
:1028400001FFFE00101F1F10101018080E070100D6
:1028500020E0E020202020202060800000FFFF10EA
:102860001010107C00000000101F1F10101010101E
:102870001018060020E0E02020202020606080006A
:1028800000FFFF101010107C00000100101F1F102F
:102890000000000000000000000080C06020202038
:1028A00040E0000000FCFF0100004040C0C140408B
:1028B0000001070E181010100F0F000020E0E0209C
:1028C0000000000020E0E02000FFFF1010101010BA
:1028D00010FFFF00101F1F1000000000101F1F102E
:1028E0000000202020E0E020202000000000000068
:1028F00000FFFF000000000000001010101F1F105C
:102900001010000000000000202020E0E020202027
:1029100000000000000000FFFF0000000060E080F9
:102920008080C07F3F00000020E0E020000020A069
:102930006020200000FFFF30187CE3C00000000092
:10294000101F1F10000001131F1C181020E0E020B2
:10295000000000000000000000FFFF000000000079
:1029600000000000101F1F1010101010101806009B
:1029700020E0E0E000000000E0E0E02000FF013F98
:10298000FEC0E01E01FFFF00101F1000031F030028
:10299000101F1F1020E0E0C0000000000020E02019
:1029A00000FF0003071C78E08000FF00101F1000EC
:1029B00000000000030F1F00000080C060202060A6
:1029C000C080000000FEFF010000000000FFFE00CC
:1029D0000001070E181010180C07010020E0E0207D
:1029E0002020202060C0800000FFFF202020202029
:1029F000301F0F00101F1F1000000000000000001B
:102A0000000080C060202060C080000000FEFF0148
:102A10000000000000FFFE000001070E1111133C32
:102A20007C67210020E0E0202020202060C0800082
:102A300000FFFF101030F0D0080F0700101F1F100C
:102A4000000000030F1C10100080C0602020202018
:102A50004040E00000070F0C1818303060E08100A3
:102A6000001F0C0810101010180F070080602020A5
:102A700020E0E020202060800100000000FFFF0037
:102A80000000000100000000101F1F1000000000E7
:102A900020E0E020000000000020E02000FFFF0018
:102AA000000000000000FF0000070F1810101010B9
:102AB000100807002060E0E02000000020E0602017
:102AC0000000077FF88000807C0300000000000009
:102AD000071F1C070000000020E0E02000E0E020CD
:102AE0000020E0200007FFF8E01FFFFCE01F0000CF
:102AF0000000031F0300011F03000000002060E02E
:102B0000A0000020E0602000000000038F7CF8C6D9
:102B1000010000000010181E130001171F181000FC
:102B20002060E0E02000000020E0602000000107BD
:102B30003EF8E0180700000000000010101F1F10F2
:102B40001000000000806020202020A0E0E0200095
:102B500000000000C0F03E0F0300000000101C1F2A
:102B600017101010101806000000000000FC0404EC
:102B7000040404000000000000FF0000000000004A
:102B800000000000007F404040404000000010E096
:102B9000000000000000000000000000031C608036
:102BA0000000000000000000000000030C70800026
:102BB00000000404040404FC000000000000000005
:102BC000000000FF00000000000040404040407F47
:102BD0000000000000000010080C040C08100000A9
:102BE00000000000000000000000000000000000E5
:102BF00000000000000000000000000000000000D5
:102C000000000000000000000000000000000000C4
:102C100080808080808080808080808000000004B0
:102C20000408080000000000000000000000000090
:102C30000000000000000000000000000000000094
:102C4000000000000000000000000000000098D814
:102C500044642424FCF80000000F1F181010100812
:102C60001F1F10180020E0F000000000000000000E
:102C70000000FFFF180804040CF8F00000001F0F0C
:102C800018101010180F03000000000000000000D2
:102C90000000000000E0F8180404043C38000000C4
:102CA00000030F0C101010100806000000000000B8
:102CB00000000020E0F0000000E0F81C040404081C
:102CC000FFFF000000030F18101010081F0F08006E
:102CD0000000000000000000000000000000E0F81C
:102CE000484444444C7870000000030F0C18101046
:102CF000100804000000000080C0602020E0C00038
:102D000000040404FFFF0404040400000000101089
:102D10001F1F101010000000000000000000000045
:102D200000000000000070F88C04048CF874040C9F
:102D3000007076CF8D8D8D89C87870000020E0F00E
:102D400000000000000000000000FFFF0804040471
:102D5000FCF8000000101F1F100000101F1F1000C3
:102D6000000000000060600000000000000004049B
:102D700004FCFC000000000000001010101F1F10D9
:102D80001010000000000000000000606000000063
:102D900000000000040404FCFC0000000000C0C0AF
:102DA0008080C07F3F0000000020E0F000000000B5
:102DB000000000000000FFFF80C0F41C04040000BD
:102DC00000101F1F1100031F1C1010000000202006
:102DD00020E0F000000000000000000000FFFF0005
:102DE0000000000000001010101F1F101010000045
:102DF00000000000000000000000000004FCFC08CF
:102E000004FCFC0804FCFC00101F1F10001F1F1016
:102E1000001F1F1000000000000000000000000064
:102E20000004FCFC08080404FCF8000000101F1F4C
:102E3000100000101F1F1000000000000000000024
:102E40000000000000E0F0180C04040C18F0E00092
:102E500000030F0C101010100C0F030000000000F6
:102E600000000000000000000004FCFC0804040452
:102E70000CF8F0000080FFFF889010101C0F03007A
:102E800000000000000000000000000000E0F81C4E
:102E900004040408F8FC000000030F1810109088C8
:102EA000FFFF8000000000000000000000000000A4
:102EB000040404FCFC100804040C0C001010101F87
:102EC0001F101010000000000000000000000000B3
:102ED0000000000000003078CCC48484840C1C0006
:102EE00000001E1810101011190F0600000000003D
:102EF00000C000000000000000040404FFFF040400
:102F000004000000000000000F1F1010100C000053
:102F10000000000000000000000000000004FCFEB3
:102F200000000004FCFE000000000F1F1810100835
:102F30001F0F08000000000000000000000000005B
:102F400000040C3CFCC40000C43C0C040000000065
:102F5000010F1E0E01000000000000000000000034
:102F600000000000043CFCC400E47CFC84807C0481
:102F70000000071F070000071F07000000000000F7
:102F800000000000000000000004041C7CE4C034C9
:102F90001C0404000010101C1601131F1C18100044
:102FA00000000000000000000000000000040C3CD5
:102FB000FCC400C43C0404000000C080C1370E0102
:102FC0000000000000000000000000000000000001
:102FD00000001C0404C4F47C1C0400000000101C4D
:102FE0001F17111010180E0000000000000000F85C
:102FF0000C04000000000000001028EF000000009A
:10300000000000000000003F6040000000000000E1
:103010000000FF0000000000000000000000FF00B2
:1030200000000000000000000000FF0000000000A1
:103030000000040CF8000000000000000000000088
:10304000EF28100000000000000040603F0000007A
:1030500000000000001806020204081020203008BA
:103060000000000000000000000000000000000060
:1030700000000000000000000000F010101010FF21
:1030800010101010F000000000000F04040404FFF2
:10309000040404040F0000004040405F555555757E
:1030A0005555555F404040000040200F094989793F
:1030B0000909090F2040000000FE02424ACA4A4A9C
:1030C000CA4A4A4202FE000000FF40504C434040C2
:1030D0004F50505C40FF00000000F888888888FF4F
:1030E00088888888F800000000001F080808087F0A
:1030F000888888889F80F00080828282828282E233
:10310000A2928A8682808000000000000040807FBA
:103110000000000000000000101010FF1090088850
:103120008888FF88888808000444827F0180804066
:10313000432C1028468180000010101010D030FF62
:1031400030D0121C1010000010080402010000FF13
:10315000000001020408100004040484E43C272455
:10316000242424E40404040004020100FF090909E2
:103170000949897F0000000000FE225A8600FE9265
:1031800092929292FE00000000FF04080700FF40A8
:1031900020030C14224140000080402018068000CB
:1031A0000718204080000000010020702826212000
:1031B0002024386000010100001012929292929235
:1031C00092121202FE0000000000003F10101010CA
:1031D0003F0040807F000000000000C080808080B1
:1031E000808080FC84808080808080C0C00000005F
:1031F000000000FF7F404040404040FF40404040D2
:10320000404040FF7F000000000000000000000080
:103210000000007F700000000000000000000000BF
:10322000000000000000000000000000000000FCA2
:10323000F800000000000000000000000000000096
:1032400000000000FFFE020202020202020202FF70
:10325000FF020202020202020202FF03000000005B
:10326000000000001F1F040404040404040404FFFD
:10327000FF0404040404040404041F00000000000C
:103280000000000000000000000000000000007FBF
:103290003F000000000000000000000000000000EF
:1032A000000000000000000000000000000000001E
:1032B00000000000000000000000000000F8F8F02E
:1032C000F07020000000000000000000000000007E
:1032D00000000000000000000000000000000000EE
:1032E000000000000000000080000000000000005E
:1032F00000000000000000000000000000FFFFFFD1
:10330000FF000000000000000000000000000000BE
:1033100000000000808000000000000000000000AD
:10332000000000000000000000FFFFFE0606060689
:1033300006060606060606060606060606FFFFFF42
:10334000FF06060606060606060606060606060624
:10335000060606FFFFFFFF07020000000000000056
:10336000000000000000000000FFFFFF0000000060
:1033700000000000000000000000000000FFFFFF50
:10338000FF0000000000000000000000000000003E
:10339000000000FFFFFFFF00000000000000000031
:1033A000000000000000000000FFFFFF18181818C0
:1033B00018181818181818181818181818FFFFFFD8
:1033C000FF18181818181818181818181818181896
:1033D000181818FFFFFFFF000000000000000000A9
:1033E00000000000000000000201010000000000D9
:1033F00000000000000000000000000000FFFFFFD0
:10340000FF000000000000000000000000000000BD
:1034100000000001010000000000000000000000AA
:10342000000000000000000000000000000000009C
:1034300000000000000000000000000000FFFFFF8F
:10344000FF0000000000000000000000000000007D
:10345000000000000000000000000000000000006C
:10346000000000000000000000000000000000005C
:10347000000000000000000000000000001F1F0FFF
:103480000F0000000000000000000000000000002D
:10349000000000000000000000000000000000002C
:1034A00002030405060708090A0B0C0D0E0F101085
:1034B0000102030405060708090A0B0C0D0E0F1084
:1034C000E03400080000002010020000E4010008C1
:1034D000E0350008100200204006000086140008B5
:1034E0001116060AFE0AC612E012F00214F80416BB
:1034F000FCFCFC8DF8F8F0B0019BF8F83E9DF8F864
:1035000030301C4EB0B0303030208F7848FE82BA58
:10351000BA030218FE3DFFFFFE06014CFFFFFF0944
:10352000290A712A60011D6FEFEF67011C7F7F7F01
:10353000062DE7EFEF6F15693D6808303031313106
:10354000F1F1051980793D0110280A24A42E24E404
:10355000242EA424B910094A4C48F8484C4AF8ECE7
:103560001F1F0F80C41F1F1F380980BFFFF3F333D5
:1035700033F305BCFFBFBFBD113F80C0F07E3F0FDE
:103580000C3AC00129801CC0201001AB20C00A11D8
:10359000300A120A07027F02070A121E0B0A0A0AE1
:1035A0007F04A20B04113F3F3F280F181C0C0E078D
:1035B0000703010D0C1C3C3F1F6670080103030745
:1035C0000F1E1E19BDCC0F0D0C0129BD980A1F201E
:1035D00040404050205F800A1113127A320172106D
:040000050800018965
:00000001FF
