:0300000002115892
:0C115800787FE4F6D8FD75811C020B21A5
:1008FB005A484F4E474A494E475955414E003230A0
:10090B0031342F30352F30310041534349493A00B0
:10091B00434F44453A0000060AFE0AC600E000F0C9
:10092B0000F80000000000000000000000000000C4
:10093B00000000000000FCFCFC00000000000000B8
:10094B00000000000000000000000000000000F8A4
:10095B00F8F0B0B0B0B0B0B0B0B0B0B0B0F8F8F82C
:10096B0000000000000000000000F8F83030B0B0CC
:10097B00B0B0B0B0B0B0B0B0B0B0B0303030F8F85C
:10098B00000000007848FE82BABA82BABA82BABABC
:10099B0082BABA82FE0000000000000000000000D6
:1009AB0000000000000000000000000000FFFFFE40
:1009BB00060606060606FFFFFF06060606060606E1
:1009CB00FFFFFF0000000000000060606060606FD0
:1009DB00EFEF676767677F7F7F676767E7EFEF6FAC
:1009EB0060606060000000000000FFFF30303131BC
:1009FB0031F1F1313131F1F1313131303030FFFF43
:100A0B0000000000000000000000000000000000DB
:100A1B000000000000000024A42E24E4242EA424B3
:100A2B00000000F84A4C48F8484C4AF8001F1F0FCA
:100A3B00060606060606FFFFFF0606060606060660
:100A4B001F1F1F00000000000000000000000080BE
:100A5B00BFFFF3F33333F3F3F33333F3FFBFBF00D2
:100A6B0000000000000000000000FFFF0080C0F04D
:100A7B007E3F0F000000FFFFC0C0C0C0C0C0FFFF23
:100A8B000000C0201010101020C00000C02010105B
:100A9B00101020C0000000120A07027F02070A1282
:100AAB000000000B0A0A0A7F0A0A0A0B000000006A
:100ABB000000000000003F3F3F000000000000006E
:100ACB0000000000000000000000181C0C0E0707BF
:100ADB0003010D0C1C3C3F1F0F000000010303071B
:100AEB000F1E1E000000000000001F1F0F0F0D0C3B
:100AFB000C0C0C0C0C0C0C0C0C0C0C0C0C0C1F1F05
:100B0B0000001F2040404050205F80001F204040CD
:060B1B004050205F800045
:100B2100750820120CF1E4FF1210E0E4FF12107EB0
:100B3100750C20750DFF750E09750F217B80E4FD85
:100B4100FF120F387FF47E011210C6120FEA750CE6
:100B510010E4FBFDFF120E22750C107B01E4FD7FFA
:100B610012120E22750C107B02E4FD7F24120E225C
:100B7100750C107B03E4FD7F36120E22750C107B81
:100B810004E4FD7F48120E22750C107B05E4FD7F05
:100B91005A120E22750C107B06E4FD7F6C120E2298
:100BA1007BFF7A0879FB750E107D027F08120FA07A
:100BB1007FF47E011210C6120FEA7BFF7A097909D0
:100BC100750E10E4FD7F14120FA07BFF7A097914D2
:100BD100750E107D02E4FF120FA07BFF7A09791BCD
:100BE100750E107D027F3F120FA0751610AB087DA8
:100BF100027F30120C220508E508D3947E4003756C
:100C01000820E508FB7A00750D03750E107D027F43
:100C110067120EAE7FF47E011210C6120FEA020BAC
:010C210031A1
:100003000000000000000000002F000000000700B7
:10001300070000147F147F1400242A7F2A12006231
:1000230064081323003649552250000005030000DD
:1000330000001C224100000041221C000014083E65
:1000430008140008083E0808000000A0600000082B
:10005300080808080000606000000020100804027F
:10006300003E5149453E0000427F4000004261513D
:100073004946002141454B31001814127F100027D7
:1000830045454539003C4A4949300001710905039A
:1000930000364949493600064949291E00003636CB
:1000A300000000005636000000081422410000142E
:1000B300141414140000412214080002015109060B
:1000C30000324959513E007C1211127C007F49498C
:1000D3004936003E41414122007F4141221C007FBD
:1000E30049494941007F09090901003E4149497ACB
:1000F300007F0808087F0000417F41000020404145
:100103003F01007F08142241007F40404040007FB0
:10011300020C027F007F0408107F003E4141413EF4
:10012300007F09090906003E4151215E007F09193C
:1001330029460046494949310001017F0101003F39
:100143004040403F001F2040201F003F4038403FB9
:10015300006314081463000708700807006151491D
:10016300454300007F41410000552A552A550000B0
:1001730041417F000004020102040040404040402E
:10018300000001020400002054545478007F4844C6
:10019300443800384444442000384444487F0038FD
:1001A3005454541800087E0901020018A4A4A47C26
:1001B300007F080404780000447D400000408084F0
:1001C3007D00007F102844000000417F4000007C38
:1001D30004180478007C0804047800384444443844
:1001E30000FC242424180018242418FC007C080490
:1001F300040800485454542000043F444020003C69
:100203004040207C001C2040201C003C4030403CEF
:10021300004428102844001CA0A0A07C004464547F
:100223004C441414141414140000000000000000C3
:100233000000000000000000000000F800000000C3
:10024300000000333000000000100C06100C060004
:10025300000000000000000040C07840C07840006B
:10026300043F04043F040400007088FC08300000CD
:10027300001820FF211E0000F008F000E018000025
:1002830000211C031E211E0000F0088870000000DE
:100293001E2123241927211010160E000000000030
:1002A3000000000000000000000000E0180402004D
:1002B300000000071820400000020418E0000000BE
:1002C3000040201807000000404080F080404000BC
:1002D3000202010F01020200000000F00000000012
:1002E3000101011F010101000000000000000000E6
:1002F30080B070000000000000000000000000005B
:1003030000010101010101010000000000000000E3
:10031300003030000000000000000000806018047E
:10032300006018060100000000E010080810E0005B
:10033300000F102020100F00001010F80000000024
:100343000020203F2020000000700808088870006B
:1003530000302824222130000030088888483000EB
:100363000018202020110E000000C02010F800000B
:1003730000070424243F240000F8088888080800A4
:100383000019212020110E0000E0108888180000B9
:10039300000F112020110E0000380808C83808008B
:1003A3000000003F0000000000708808088870000B
:1003B300001C222121221C0000E010080810E0008C
:1003C3000000312222110F00000000C0C000000015
:1003D300000000303000000000000080000000003A
:1003E3000000806000000000000080402010080032
:1003F30000010204081020004040404040404000FB
:1004030004040404040404000008102040800000D5
:100413000020100804020100007048080808F000DA
:100423000000003036010000C030C828E810E000AA
:100433000718272423140B000000C038E000000035
:10044300203C23020227382008F88888887000009F
:10045300203F202020110E00C03008080808380073
:10046300071820202010080008F808080810E000EA
:10047300203F202020100F0008F88888E80810008B
:10048300203F20202320180008F88888E80810005F
:10049300203F200003000000C03008080838000097
:1004A30007182020221E020008F808000008F80898
:1004B300203F210101213F20000808F8080800001F
:1004C3000020203F2020000000000808F808080052
:1004D300C08080807F00000008F888C028180800CA
:1004E300203F20012638200008F808000000000003
:1004F300203F20202020300008F8F800F8F80800FA
:10050300203F003F003F200008F830C00008F808F3
:10051300203F200007183F00E01008080810E00003
:100523000F10202020100F0008F808080808F0001A
:10053300203F210101010000E01008080810E0003D
:100543000F18242438504F0008F8888888887000D2
:10055300203F2000030C3020007088080808380072
:100563000038202121221C00180808F80808180068
:100573000000203F2000000008F808000008F808E9
:10058300001F202020201F000878880000C838089A
:10059300000007380E010000F80800F80008F80012
:1005A300033C0700073C03000818688080681808AC
:1005B30020302C03032C30200838C800C83808002A
:1005C3000000203F2000000010080808C838080079
:1005D3002038262120201800000000FE020202001D
:1005E3000000007F40404000000C30C000000000CD
:1005F300000000010638C00000020202FE000000F5
:10060300004040407F00000000000402020204009A
:1006130000000000000000000000000000000000D7
:1006230080808080808080800002020400000000BF
:1006330000000000000000000000808080800000B7
:100643000019242222223F2008F8008080000000A5
:10065300003F112020110E00000000808080000068
:10066300000E112020201100000000808088F80077
:10067300000E112020103F200000808080800000A9
:10068300001F222222221300008080F0888888180D
:100693000020203F20200000000080808080800018
:1006A300006B94949493600008F8008080800000AD
:1006B300203F210000203F20008098980000000088
:1006C3000020203F202000000000008098980000B8
:1006D30000C08080807F000008F8000080808000D8
:1006E300203F24022D302000000808F800000000FD
:1006F3000020203F202000008080808080808000B8
:10070300203F20003F20003F808000808080000049
:10071300203F210000203F200000808080800000D7
:10072300001F202020201F00808000808000000008
:1007330080FFA12020110E00000000808080800037
:10074300000E112020A0FF80808080008080800028
:1007530020203F2120000100000080808080800055
:100763000033242424241900008080E080800000CA
:100773000000001F20200000808000000080800017
:10078300001F202020103F20808080000080808078
:1007930000010E3008060100808000800080808008
:1007A3000F300C030C300F0000808000808080002D
:1007B3000020312E0E312000808080000080808058
:1007C30080818E7018060100008080808080800008
:1007D3000021302C2221300000000000807C020226
:1007E30000000000003F404000000000FF00000048
:1007F30000000000FF0000000002027C80000000F7
:100803000040403F00000000000601010202040412
:1008130000000000000000000000F010101010FFA6
:1008230010101010F000000000000F04040404FF77
:10083300040404040F0000004040405F5555557503
:100843005555555F404040000040200F09498979C4
:100853000909090F2040000000FE02424ACA4A4A21
:10086300CA4A4A4202FE000000FF40504C43404047
:100873004F50505C40FF00000000F888888888FFD4
:1008830088888888F800000000001F080808087F8F
:10089300888888889F80F00080828282828282E2B8
:1008A300A2928A8682808000000000000040807F40
:1008B3000000000000000000101010FF10900888D6
:1008C3008888FF88888808000444827F01808040EC
:1008D300432C1028468180000010101010D030FFE8
:1008E30030D0121C1010000010080402010000FF99
:0808F3000000010204081000DE
:1010C600EF4E60157D087C07ED1DAA0470011C4AD1
:0910D60070F6EF1F70EA1E80E7BE
:0110DF0022EE
:1010E0008F09EF7006FD7FA6121029E509640170D3
:0810F00006FD7FA71210292262
:10107E008F09EF700DFD7FC8121029E4FD7FA112BC
:10108E001029E5096401700DFD7FC0121029E4FDE1
:06109E007FA012102922C0
:08116E007F01AE071FEE70FACD
:011176002256
:0F113A00D291D29012116EC29112116EC29022F8
:0A116400C291D29012116ED29122B6
:0F114900D29112116ED29012116EC29002116EDD
:02105200AD07E8
:10105400E4FCECC3940874809480501DC290ED307D
:10106400E704D2918002C29112116ED29012116ED5
:09107400C290ED25E0FD0C80D9CD
:01107D002250
:08102100E4FD121029E4FDFFBB
:10102900AB05AA0712113A7F78121052121149EB37
:1010390060047F408002E4FF121052121149AF028E
:0910490012105212114902116447
:1010A400A907ED24B0FFE4FD121029E954F0C4545B
:1010B4000F4410FFE4FD121029E9540FFFE4FD0270
:0210C4001029F1
:10111000E4FD7F8D121029E4FD7F14121029E4FDF7
:051120007FAF02102961
:10112500E4FD7F8D121029E4FD7F10121029E4FDE6
:051135007FAE0210294D
:100FEA00E4F9E9C3940474809480502AE924B0FF98
:100FFA00121021E4FD7F10121029E4F509C3E50956
:10100A00948074809480500B7D01E4FF12102905AE
:06101A000980EA0980CC08
:0110200022AD
:040C22008F138D148B
:100C2600E4F517E516C313FDF518E4F519F51AE50D
:100C36001664087007F51B751C068029E516131344
:100C460013541FFF7E00E5165407600590000180CF
:100C560003900000E5822FFFE5833EFE7C00120D27
:100C6600BB8E1B8F1CEB24E0F517AD14AF131210CF
:100C7600A4E4F519F51AC3E51A951CE519951B5058
:100C860069E518FD7C00AE19AF1A120DCDED4C705A
:100C96000FE51664086009AD140514AF131210A40D
:100CA600E5166408701075F006E517A42403F582AE
:100CB600E5F034008014E5166410702E75F010E52A
:100CC60017A4242BF582E5F03402F583E582251A74
:100CD600F582E5833519F583E493FF7D011210292A
:0A0CE600051AE51A70900519808CBC
:010CF00022E1
:0410F8008F13A905A4
:1010FC007F017E00AD0119ED6009AD137C00120D6E
:03110C00BB80F1B4
:01110F0022BD
:080EAE008F098D0A8A0B8B0CE1
:100EB600E4F511F512E50E64087003751102E4F508
:100EC6000FE50FC3950D5069C3E50D950F14FD7F12
:100ED6000A1210F8AC0BAD0CCFCDCFCECCCE120D86
:100EE600CD7C007D0A120DCD8D10E5127025E50D25
:100EF60014FFE50FC39F501BE5107014E50EC313D6
:100F06002511850FF0A42509FF850E167B20801874
:100F1600751201E50EC3132511850FF0A42509FFEF
:100F2600E5102430FB850E16AD0A120C22050F8043
:010F3600902A
:010F37002297
:0A0FA0008F098D0A8B0B8A0C890D56
:100FAA00E4F50FAB0BAA0CA90D850F82758300120D
:100FBA000D8E602BAF0F050F8F82758300120D8E79
:100FCA00FB850E16AD0AAF09120C22E50E640870F5
:0F0FDA000474068004E50EC3132509F50980C4CD
:010FE90022E5
:060E22008F098D0A8B0B05
:100E2800E50C131313541FFF7E00E50C54077C00D8
:100E380060047D0180027D00ED2FFFEC3EFEAD0CCD
:100E48007C00120DBB8E0F8F10E4F50DF50EC3E577
:100E58000E9510E50D950F504CE50CFD7C00AE0D80
:100E6800AF0E120DCDED4C7009AD0A050AAF09128F
:100E780010A4E50C6410702DE50BC43354E0241B5A
:100E8800F582E43408F583E582250EF582E583359D
:100E98000DF583E493FF7D01121029050EE50E7010
:050EA800AD050D80A95D
:010EAD002222
:060F38008F098D0A8B0BEE
:100F3E00E4F510F511E50C131313541FFFE50C54D3
:100F4E000760047E0180027E00EF2EF50CE4F512A0
:100F5E00E512C3950C503AE512250AFDAF091210A1
:100F6E00A4E4F513E513C3950B5022AB0DAA0EA9FD
:100F7E000F0511E511AE107002051014F5828E8367
:100F8E00120D8EFF7D01121029051380D7051280D8
:010F9E00BF93
:010F9F00222F
:100CF100C2927FC87E001210C6D2927FAE1210211E
:100D01007F10121021E4FD7FB0121029E4FD7F81D4
:100D1100121029E4FD7FFF121029E4FD7FA11210BA
:100D210029E4FD7FA6121029E4FD7FA8121029E411
:100D3100FD7F1F121029E4FD7FC8121029E4FD7FF9
:100D4100D3121023E4FD7FD5121029E4FD7F801218
:100D51001029E4FD7FD9121029E4FD7F1F1210290B
:100D6100E4FD7FDA121023E4FD7FDB121029E4FD9C
:100D71007F40121029E4FD7F8D121029E4FD7F14BC
:0D0D8100121029120FEAE4FD7FAF021029C5
:100D8E00BB010CE58229F582E5833AF583E022501A
:100D9E0006E92582F8E622BBFE06E92582F8E22264
:0D0DAE00E58229F582E5833AF583E493227E
:100DBB00EF8DF0A4A8F0CF8CF0A428CE8DF0A42E4C
:020DCB00FE2206
:100DCD00BC000BBE0029EF8DF084FFADF022E4CC0A
:100DDD00F875F008EF2FFFEE33FEEC33FCEE9DECD3
:100DED00984005FCEE9DFE0FD5F0E9E4CEFD22ED19
:100DFD00F8F5F0EE8420D21CFEADF075F008EF2F63
:100E0D00FFED33FD4007985006D5F0F222C398FD53
:050E1D000FD5F0EA22F0
:00000001FF
