:020000040800F2
:100000001005002045010008B91400085D13000820
:10001000B514000855020008E119000800000000AE
:10002000000000000000000000000000191500089A
:100030005902000800000000E91400084D150008EE
:100040005F0100085F0100085F0100085F01000810
:100050005F0100085F0100085F0100085F01000800
:100060005F0100085F0100085F0100085F010008F0
:100070005F0100085F0100085F0100085F010008E0
:100080005F0100085F0100085F0100085F010008D0
:100090005F0100085F0100085F0100085F010008C0
:1000A0005F0100085F0100085F0100085F010008B0
:1000B0005F0100085F010008B91500085F01000832
:1000C0005F0100085F0100085F0100085F01000890
:1000D0005F0100085F0100085F0100085F01000880
:1000E0005F0100085F0100085F0100085F01000870
:1000F0005F0100085F0100085F0100085F01000860
:100100005F0100085F0100085F0100085F0100084F
:100110005F0100085F0100085F0100085F0100083F
:100120005F0100085F0100085F0100085F0100082F
:10013000DFF80CD000F05CF800480047AD1A00086A
:10014000100500200648804706480047FEE7FEE706
:10015000FEE7FEE7FEE7FEE7FEE7FEE7FEE7FEE777
:10016000B515000831010008D2B201E000F8012BFA
:10017000491EFBD270470022F6E710B513460A4627
:1001800004461946FFF7F0FF204610BD2DE9F05F49
:100190000546002092469B468846064681464024F6
:1001A0001BE0284641464746224600F042F85346A7
:1001B0005A46C01A914110D311461846224600F003
:1001C00029F82D1A67EB01084F462246012000212D
:1001D00000F020F817EB00094E41201EA4F10104A5
:1001E000DFDC484631462A464346BDE8F09F000022
:1001F000064C074D06E0E06840F0010394E8070074
:1002000098471034AC42F6D3FFF796FFD821000888
:10021000F8210008202A04DB203A00FA02F100202D
:1002200070479140C2F1200320FA03F31943904034
:100230007047202A04DB203A21FA02F0002170479F
:1002400021FA02F3D040C2F120029140084319463E
:1002500070470000FEE7000070470000EFF31080D9
:1002600072B600BFFEE700002DE9F04F83B00C68C6
:10027000002C00F0EA80A0F18042A2F5843240F226
:10028000004E4FEAB22241F60047C4F2010E00923E
:10029000C4F20107062200254FF001094FF0000BC0
:1002A0004FF0000AB84208BF0522019209E000BFE2
:1002B0000C680BF1010B34FA0BF205F1040500F0A8
:1002C000C48009FA0BF814EA080CF1D04C684FF618
:1002D000FF72C1F21002944210DC122C50D8DFE8F9
:1002E00004F0330A41454F4F4F4F4F4F4F4F4F4F41
:1002F0004F4F4F484C00D1F80CA041E04FF6FF7231
:10030000C1F2210294420FDC0022C1F21102944298
:100310001AD00022C1F21202944215D00022C1F27A
:100320002102944210D02BE00022C1F2220294421A
:100330000AD00022C1F23102944205D00022C1F25B
:10034000320294421CD100BF8C6844B1012C14BF0E
:10035000C0F81480C0F810804FF0080A10E04FF089
:10036000040A0DE0CC6804F1080A09E04FF0000A25
:1003700006E0CC6804F1040A02E0CC6804F10C0A3F
:100380002C460746BCF5807F24BF203C04373A68E2
:100390000F2303FA04F6B2430AFA04F422433A6044
:1003A000CA79D2067FF584AF41F21804C4F2020480
:1003B00022684FF6084842F0010222602268CFF618
:1003C000FF7802F001020292029A2BF003027244BB
:1003D00052F8084005F00C0603FA06F7009BBC43F0
:1003E000019F052B38BF1F4607FA06F6344342F833
:1003F00008404C6840F20C46E202DEF8082054BF88
:1004000022EA0C0742EA0C07C4F20106A202CEF867
:100410000870326854BF22EA0C0742EA0C07A203B4
:100420003760DEF8042054BF22EA0C0742EA0C07CA
:10043000E203CEF80470DEF8002054BF22EA0C027A
:1004400042EA0C02CEF8002032E703B0BDE8F08F9C
:1004500040F20810C2F200000068704740F2080045
:1004600040F20811C2F20000C2F2000100780A68EE
:10047000104408607047000080B542F20000C4F2EA
:100480000200016841F010010160032000F066F8ED
:100490000F2000F005F800F02BF8002080BD0000D0
:1004A000B0B540F20802C2F2000240F20401127834
:1004B000C2F200014FF47A730968B3FBF2F204460A
:1004C000B1FBF2F1084600F0E7FA0F2C4FF00105FE
:1004D0000CD858B94FF0FF3021460022002500F01B
:1004E0002DF840F20C00C2F2000004602846B0BDB6
:1004F00082B041F21800C4F202000168022241F009
:1005000001010160016801F0010101910199416857
:1005100041F080514160406800F0805000900098A8
:100520000420C4F20100016862F31A61016002B0A4
:100530007047000080B501F055FA80BD70B51446D3
:100540000D46064601F05EFA2946224600F0B6FF47
:100550000146304601F05EFA70BD000080B501F042
:100560006BFA80BD2DE9F04381B0002800F089804E
:1005700042F20008C4F202080446D8F800000D4612
:1005800000F0070088420CD2D8F8000020F00700E5
:100590002843C8F80000D8F8000000F00700A8427F
:1005A0006FD1206841F204098107C4F2020917D50E
:1005B000410705D5D9F8001041F4E061C9F80010F1
:1005C000010705D5D9F8001041F46051C9F80010B1
:1005D000D9F80010A26821F0F0011143C9F8001009
:1005E000C00745D1D8F8000000F00700A8420CD998
:1005F000D8F8000020F007002843C8F80000D8F819
:10060000000000F00700A8423BD12068410707D551
:10061000D9F80010E26821F4E0611143C9F8001034
:10062000000708D5D9F80000216920F4605040EA9D
:10063000C100C9F8000000F079F8D9F8001042F2C2
:10064000C012C1F30311C0F60002515C40F2040273
:1006500020FA01F140F20C00C2F200000068C2F280
:1006600000021160FFF71CFF002001B0BDE8F0831D
:100670006068022809D0012829D159F8041C89038F
:1006800007D4012001B0BDE8F08359F8041C8901AA
:10069000F7D5D9F8001021F003010843C9F800008C
:1006A000FFF7D6FE064641F2883700BFD9F80000B2
:1006B000616800F00C00B0EB810F93D0FFF7C8FE2B
:1006C000801BB842F2D9032001B0BDE8F08359F88D
:1006D000041C8907D5D5DCE740F20400C2F2000013
:1006E0000068704780B5FFF7F7FF41F20401C4F2DC
:1006F0000201096842F2D012C1F30221C0F60002E1
:10070000515CC84080BD000080B5FFF7E5FF41F2B5
:100710000401C4F20201096842F2D012C1F3C221FD
:10072000C0F60002515CC84080BD000041F2040CDC
:10073000C4F2020CDCF8003003F00C00082841F28F
:100740000020C0F27A0018BF7047C3F383420AA1A9
:100750008A5CD90305D440F60010C0F23D00504336
:100760007047DCF8001008A3C1F34041595C5043C6
:10077000B0FBF1F0704700BF02030405060708094B
:100780000A0B0C0D0E0F1010010200002DE9F041B4
:1007900082B0002800F0C4800446007841F20006D0
:1007A000C007C4F2020643D0706800F00C000428B1
:1007B00017D0706800F00C00082802D17068C003E0
:1007C0000FD465682DB1B5F5A02F10D0B5F5803FD9
:1007D00011D0306820F480303060306820F4802000
:1007E0000CE03068800323D5606808BB98E030686F
:1007F00040F480203060306840F480303060FFF793
:1008000027FE002D054610D03068800310D4FFF776
:100810001FFE401B6428F7D904E100BFFFF718FE54
:10082000401B64284FF0030077D830688003F5D46C
:100830002078800718D5706810F00C0F07D070680A
:1008400000F00C00082826D17068C00323D430685B
:10085000800702D52069012862D13068616920F0E3
:10086000F80040EAC1003060207800073DD5A0695B
:1008700038B30020C4F242200121C0F88014FFF7F1
:10088000E7FD0546706A80072DD4FFF7E1FD401BA8
:100890000228F7D9C6E02069002840F20000C4F21F
:1008A000422000F0968001210160FFF7D1FD05464E
:1008B00030688007D1D4FFF7CBFD401B0228F7D961
:1008C000B0E00020C4F242200021C0F88014FFF7FD
:1008D000BFFD0546706A800707D5FFF7B9FD401BCD
:1008E0000228F7D99EE000F001FE207840071BD4D3
:1008F000E5698DB1706800F00C00082847D1012D22
:100900000ED07068216A00F480328A4208D1616A90
:1009100000F47010884203D1002002B0BDE8F081DD
:10092000012002B0BDE8F081F06910F0805808D1D4
:10093000F06940F08050F061F06900F08050019063
:10094000019847F20007C4F200073868C00510D4C8
:10095000386840F480703860FFF77AFD054600BFC4
:100960003868C00505D4FFF773FD401B6428F7D92C
:1009700058E0E5681DB1052D3CD0012D3ED0306A10
:1009800020F001003062306A20F0040039E00027D6
:10099000C4F2422700203866FFF75AFD022D0546B3
:1009A0000CD100BF3068800154D5FFF751FD401BCA
:1009B00002284FF00300F5D9AFE700BF306880018F
:1009C000AAD5FFF745FD401B02284FF00300F5D9DB
:1009D000A3E700210160FFF73BFD05463068800773
:1009E0007FF542AFFFF734FD401B02284FF00300B4
:1009F000F4D992E7306A40F004003062306A40F087
:100A000001003062FFF724FD002D054641F28837D2
:100A100014D000BF306A800713D4FFF719FD401BC4
:100A2000B842F7D9032002B0BDE8F081FFF710FD0E
:100A3000401BB8424FF003003FF66FAF306A8007AB
:100A4000F4D4B8F1000F7FF453AFF06920F0805078
:100A5000F0614DE7206AB0F5803F05D17168A2686A
:100A600021F40031114371607168626A21F47411DC
:100A700010430843706001203866FFF7E9FC044624
:100A8000306880013FF548AFFFF7E2FC001B022809
:100A90004FF00300F4D940E780B500F03FFD80BD82
:100AA000704700007047000010B590F83C20012A04
:100AB0004FF0020241D0012380F83C3080F83D2005
:100AC0000268D2F804E0D2F808C00C682EF0700377
:100AD000234340F6FF34C4F20004A24253600FDC0B
:100AE000B2F1804F1ED040F20043C4F200039A429C
:100AF00018D040F60003C4F200039A4212D016E068
:100B000040F60043C4F200039A420BD043F2004384
:100B1000C4F201039A4205D042F60043C4F2010335
:100B20009A4204D149682CF0800319439160012155
:100B3000002280F83D1080F83C20104610BD0000D7
:100B4000002804BF0120704710B5044690F83D000E
:100B500028B9002084F83C00204600F01FF802204D
:100B600084F83D002068211D00F02EFD012084F84E
:100B7000460084F83E0084F83F0084F8400084F882
:100B8000410084F8420084F8430084F8440084F86B
:100B9000450084F83D00002010BD000080B586B0FF
:100BA00040F600010068C4F2000100228842CDE94D
:100BB00004220392029201D006B080BD41F21800D7
:100BC000C4F20200436843F004034360436803F047
:100BD00004030193019B036843F00803036000686A
:100BE00000F00800019001984FF40070CDE9020276
:100BF00001F5823002A90492FFF736FB1E20002186
:100C00000022FFF79BFC1E20FFF794FC06B080BD7E
:100C100090F83D1001291CBF01207047022180F887
:100C20003D10006840F6FF32C168C4F200029042F5
:100C300041F00101C1600FDCB0F1804F1ED040F2E5
:100C40000041C4F20001884218D040F60001C4F20D
:100C50000001884212D018E040F60041C4F20001C1
:100C600088420BD043F20041C4F20101884205D012
:100C700042F60041C4F20101884206D1816801F0C8
:100C80000701062904BF00207047016841F00101F7
:100C9000016000207047000010B5044690F83C0049
:100CA00001284FF0020008BF10BD012284F83C204B
:100CB00084F83D0020684FF6777382689A4382601B
:100CC0000A684F2A0FDC1F2A22DD202A23D0302A6F
:100CD00021D0402A4DD14B68CA68194600F00EFD5C
:100CE000206840213BE06F2A17DDB2F5005F20D07D
:100CF000B2F5805F2AD0702A3BD1D1E9012CCB68B4
:100D0000614600F0E7FC2068816841F077011AE055
:100D10000AB1102A2DD1114621E0502A18D0602A9C
:100D200027D14B68CA68194600F03EFD2068602153
:100D300015E0D1E9012CCB68614600F0CBFC2068BE
:100D4000816841F48041816000200BE0002009E0CF
:100D50004B68CA68194600F0D1FC2068502100F0A9
:100D6000C5FC0020012184F83D10002184F83C10CE
:100D700010BD0120F6E7000070B540F2A005C2F2F8
:100D80000005297A044689B100202872286020468F
:100D90000C2100F0FDF92168A880086A20F40050B9
:100DA0000862086A40F40050086270BD01262046BF
:100DB0000C212E7200F0ECF92168E8800A6A80B2FA
:100DC00022F400520A620A6A0A622968AA8840EA82
:100DD0000140801A41F23111411AC629E86003D856
:100DE000A5F86060288270BDB5F8601081B14A1C1A
:100DF00005EB4101A5F860200882B5F860002128C4
:100E000038BF70BD012085F862000020A5F86000A1
:100E100070BD0000B0B5044690F83C00012804BF46
:100E20000220B0BD0D464FEAB2010120032984F82B
:100E30003C0037D8DFE801F0020C16242068D5E921
:100E40000012EB6800F06CFC206850F8181F12E0EC
:100E50002068D5E90012EB6800F0B8FC206850F873
:100E6000181F16E02068D5E90012EB6800F0CCFCF2
:100E7000206850F81C1F21F00C010160A9680DE0EA
:100E80002068D5E90012EB6800F0D8FC206850F823
:100E90001C1F21F440610160A96809020268114326
:100EA00001600020002184F83C10B0BD002804BF80
:100EB0000120704710B5044690F83D0028B9002085
:100EC00084F83C00204600F01FF8022084F83D0022
:100ED0002068211D00F078FB012084F8460084F88A
:100EE0003E0084F83F0084F8400084F8410084F814
:100EF000420084F8430084F8440084F8450084F8F4
:100F00003D00002010BD000070470000B0B5044651
:100F100041B1082909D0042914BF04F1410004F1AA
:100F20003F0004E004F13E0001E004F140000078DD
:100F300041B1082909D0042914BF04F1450204F184
:100F4000430204E004F1420201E004F144020128FA
:100F50004FF00105127808BF012A01D02846B0BD24
:100F6000022041B1082909D0042914BF84F84100A6
:100F700084F83F0004E084F83E0001E084F840007B
:100F8000022041B1082909D0042914BF84F8450082
:100F900084F8430004E084F8420001E084F844004F
:100FA0004FEAB10003280AD8236822A252F8202071
:100FB000DD682A430025DA60032803D9CEE701253E
:100FC0000328CBD82068012200F072FB206840F68D
:100FD000FF31C4F2000188420FDCB0F1804F1ED017
:100FE00040F20041C4F20001884218D040F60001EE
:100FF000C4F20001884212D016E040F60041C4F26B
:10100000000188420BD043F20041C4F20101884242
:1010100005D042F60041C4F20101884204D1816842
:1010200001F00701062999D0016841F00101016032
:101030002846B0BD020000000400000008000000C7
:1010400010000000B0B504460068C168026902EAF9
:101050000105A9071DD4680731D4280747D4E8063D
:101060005CD4E80773D128067BD4680606D52068CF
:101070006FF040010161204600F0A4F8A80658BFB7
:10108000B0BD20686FF0200101612046FFF70AFD26
:10109000B0BD6FF0020101610121217780698007F5
:1010A00003D02046FFF768FE05E0204600F064F814
:1010B000204600F063F8002020776807CDD520682F
:1010C0006FF00401016102212177806910F4407FF3
:1010D00003D02046FFF750FE05E0204600F04CF814
:1010E000204600F04BF8002020772807B7D520686D
:1010F0006FF00801016104212177C069800703D0E6
:101100002046FFF739FE05E0204600F035F820467E
:1011100000F034F800202077E806A2D520686FF0B0
:101120001001016108212177C06910F4407F03D0CC
:101130002046FFF721FE05E0204600F01DF820467E
:1011400000F01CF800202077E8073FF48CAF2068FF
:101150006FF001010161204600F012F828067FF5CA
:1011600084AF20686FF0800101612046FFF798FC92
:1011700068067FF583AF7AE770470000704700008C
:1011800040F2A000C2F20000016801310160704726
:101190004FEAB101032984BF00207047DFE801F066
:1011A000020E060A006834300068704700683C3060
:1011B0000068704700684030006870470068383049
:1011C0000068704770470000002804BF0120704786
:1011D00010B5044690F8410028B9002084F840007A
:1011E000204600F021F8242084F841002068C168DE
:1011F00021F40051C160204600F066FB20680169BF
:1012000021F490410161416921F02A014161C168E5
:1012100041F40051C16000202021606484F8411035
:1012200084F84210606310BD70B586B040F60004CB
:10123000C4F20104006804F5405100268842059676
:10124000CDE90366029601D006B070BD41F21800E8
:10125000C4F20200016802AD41F4804101600168FE
:1012600001F4804101910199016841F0040101609C
:101270000068294600F00400019001984FF40070C6
:10128000029002200390032005902046FEF7ECFF19
:101290004FF48060CDE90206204629460496FEF709
:1012A000E3FF06B070BD00002DE9F041044690F860
:1012B000410020281CBF0220BDE8F0810E46002915
:1012C0004FF0010042D01746002A08BFBDE8F08168
:1012D0004FF0000821201D46C4F8448084F84100E6
:1012E000FFF7B6F8A784E784A1680746B1F5805FE9
:1012F0000DD12069002814BF3046B046064606E0EE
:1013000016F8010B21684860E08C0138E084E08C1D
:1013100080B1204680213A462B4600F01DFBB8B92B
:10132000002EEDD138F8020B21686FF35F20486082
:101330000026E9E7204640213A462B4600F00CFB08
:10134000202184F84110002818BF0320BDE8F08157
:10135000202084F841000320BDE8F081FEE7000072
:1013600010B540F21004C2F200042046FFF750FC12
:1013700020460C21FFF7CAFD10BD000083B041F2EA
:101380001800C4F20200016841F010010160016818
:1013900001F0100102910299016841F0040101601D
:1013A000016801F0040101910199016841F008010F
:1013B0000160006800F008000090009803B07047DA
:1013C00010B58AB040F2100040F600020021C2F2CF
:1013D0000000C4F2000247234FF6FF74CDE9081164
:1013E000CDE90611CDE90411CDE90211CDE90011D5
:1013F000C0E90023C0E9021401618161FFF7A0FB8D
:10140000002818BFFEF72AFF4FF48050069040F2E4
:101410001000C2F2000006A9FFF73EFC002818BF2A
:10142000FEF71CFF40F21000C2F20000FFF73EFD85
:10143000002818BFFEF712FF40F210000024C2F28D
:10144000000004A9CDE90444FFF72EFB002818BFD3
:10145000FEF704FF0120CDE9010440F21000C2F2C2
:10146000000069460C2200940394FFF7D3FC002887
:1014700018BFFEF7F3FE0AB010BD000080B540F2C1
:10148000580043F60001C2F20000C4F2010100233B
:101490004FF00C0C4FF4E13280E80E00C0E903334A
:1014A000C0E905C3C361FFF78FFE002818BFFEF730
:1014B000D5FE80BDFEE70000FEE7000000F007005B
:1014C00080F00703042B28BF04234FF0FF3C0338B0
:1014D0000CFA03F338BF0020994381400CFA00F066
:1014E00022EA0000084370477047000081B040F2D4
:1014F0000400C2F20000006844F6D351C1F2620158
:10150000A0FB0101480A009000BF0098411E00287E
:101510000091F9D101B0704770470000B0B50138B3
:101520000024B4EB106F1CBF0120B0BD4EF21005BB
:10153000CEF2000568604FF0FF300F2100F06AFA2C
:101540000720AC6028602046B0BD000080B5FEF7E3
:1015500085FF80BD70B590B006AC20462821FEF70F
:101560000AFE012006900A904FF4E01000254FF487
:10157000803102260F9020460595CDE90355CDE92F
:101580000155CDE90715CDE90D61FFF7FFF878B9F1
:101590000F20CDE901064FF48060CDE9040501A8D4
:1015A00002210395FEF7DEFF002804BF10B070BDD6
:1015B000FEF754FE7047000080B540F21000C2F202
:1015C0000000FFF73FFD80BD10B540F6FF3E036809
:1015D000C4F2000E43F2004C7045C4F2010C20DC52
:1015E000B0F1804F2BD040F20042C4F20002904292
:1015F00025D040F60002C4F2000290421FD0704590
:1016000023DCB0F1804F2ED040F20042C4F2000241
:10161000904228D040F60002C4F20002904222D04C
:1016200025E040F60042C4F20002904207D0604537
:1016300005D042F60042C4F201029042DFD14A686E
:1016400023F0700313437045DBDD40F60042C4F223
:101650000002904207D0604505D042F60042C4F235
:101660000102904203D1CA6823F44073134323F06C
:1016700080024B69D1F800E08C681A436045026033
:10168000C462C0F828E005D042F60042C4F201026C
:10169000904201D109690163012141610169C907D2
:1016A00008BF10BD016921F00101016110BD0000FA
:1016B00080B501F01F014FF0010CD0F820E00CFACA
:1016C00001F32EEA03030362036A02FA01F11943EC
:1016D000016280BDD0F808C011432CF47F4C41EA70
:1016E000032141EA0C01816070470000826822F00A
:1016F0007002114341F0070181607047D0F820C0AB
:10170000036A23F001030362836923F0F00343EAD1
:1017100002122CF00A031943826101627047000033
:1017200010B5D0F820C0D0F820E040F6FF342EF0FD
:10173000010EC0F820E0D0F818E0C4F20004A04286
:101740000FDCB0F1804F1ED040F20044C4F2000420
:10175000A04218D040F60004C4F20004A04212D007
:101760001EE040F60044C4F20004A0420BD043F255
:101770000044C4F20104A04205D042F60044C4F281
:101780000104A0420CD12EF00304224363F307129C
:101790002CF00A0301F00A0119448261016210BDB4
:1017A0004EF00102F2E70000D0F820C0036A23F0F7
:1017B00010030362836923F4704343EA02322CF07E
:1017C000A00343EA011182610162704710B5D0F8AD
:1017D00020C0D0F820E012022EF0100EC0F820E059
:1017E000D0F818E04FF2FF04A2432EF4734E63F3D7
:1017F0000F322CF0A00301F00A0142EA0E0243EA84
:1018000001118261016210BD80B5D0F820C0D0F80E
:1018100020E063F307122EF4807EC0F820E0D0F8B9
:101820001CE0C1F356012EF0F30E42EA0E0261F302
:10183000492CC261C0F820C080BD000010B5D0F8AE
:1018400020C0D0F820E012022EF4805EC0F820E024
:10185000D0F81CE04FF2FF04A2432EF4734E63F362
:101860000F32C1F3520142EA0E0261F34D3CC261F4
:10187000C0F820C010BD0000016851E8031F0268D5
:1018800021F4907142E80313002BF5D1016851E86F
:10189000051F026821F0010142E80513002BF5D174
:1018A000016B01290AD100BF016851E8031F0268DA
:1018B00021F0100142E80313002BF5D1202180F81C
:1018C000421000210163704710B504460068D4E956
:1018D00002C22369016921F4405111430161616928
:1018E00043EA0C021143C26841F20C639A4311436C
:1018F000C1604169A26921F44071114343F60002BD
:10190000C4F201029042416102D0FEF7EBFE01E019
:10191000FEF7FAFE6268192148439100B0FBF1F02E
:1019200048F21F51C5F2EB11A0FB01235A096FF0D9
:10193000630302FB0300322303EB0010A0FB010151
:10194000F02303EA5113206803EB0212C1F34311A1
:101950001144816010BD00002DE9F04182B00446C1
:10196000006800680840884203D1002002B0BDE84A
:10197000F0811D460E4690465F1C04E0206800681A
:101980003040B04228D0002FF8D0FEF761FD01466C
:101990004FF003000DB3A1EB0801A9421DD8206848
:1019A000C1684907EAD5402EE8D0802EE6D001680C
:1019B0000907E3D500250195016801914068019070
:1019C00001982046FFF758FF0820606484F84050D3
:1019D000012002B0BDE8F081002002B0BDE8F08136
:1019E000FEE70000002848BF704700F01F010122F9
:1019F00002FA01F14EF200124009CEF2000242F862
:101A0000201070474EF60C50CEF200000068C0F374
:101A1000022070474EF6145300F00F02CEF200037E
:101A200009011A4400F16043B0F1FF3FC8BF03F55C
:101A300064421170704700004EF60C51CEF2000166
:101A40000A684FF6FF031A4060F30A2242F08060F2
:101A500040F0FD700860704780B582B0019040F2A0
:101A60005800C2F2000001A901224FF47A73FFF777
:101A70001BFC019802B080BD80B540F2A00C002193
:101A8000C2F2000C0CEB41031B8ACA081B094A2B4B
:101A90004FF0000310F802E088BF0123013143EA50
:101AA0004E0320298354EDD180BD0000FEF7E4FCF5
:101AB000FFF750FDFFF762FCFFF782FCFFF7DEFC4B
:101AC0006FA000F06BFBFFF74BFC40F2A007C2F2E7
:101AD000000707F1620B07F163046CA582A64FF0C3
:101AE000000902E000F054FB8CE097F86200002847
:101AF000FBD04FF0040AD8462046FFF7BDFF18F888
:101B0000011F284600F0F2F8BAF1010AF4D197F863
:101B100065008138702800F27580DFE810F07900E8
:101B20007300730073007300730073007D00730013
:101B3000730073007F0073007300730073008100F3
:101B400073007300730073007300730085007300EB
:101B500073007300870073007300730073008900C3
:101B60007300730073008B007300730073007100C7
:101B70007300730073008D007300730073007300B3
:101B8000730073008F0073007300730073007300A1
:101B9000730073007300910073007300730073008F
:101BA000730073007300730073007300930073007D
:101BB00073007300970073007300730073009B0041
:101BC000730073009F00730073007300A300730021
:101BD0007300730073007300730073007300A5003B
:101BE000730073007300730073007300730073005D
:101BF000730073007300730073007300A900AD00DD
:101C000039206FE7304600F0C9FA87F862906CE738
:101C10002CA000F06BF8F5E7342063E7322061E791
:101C20002AA000F063F8EDE731205BE7352059E7A3
:101C3000372057E7382055E7362053E7302051E763
:101C400033204FE713A000F051F8DBE71BA000F0B2
:101C50004DF8D7E722A000F049F8D3E710A000F034
:101C600045F8CFE743203DE712A000F03FF8C9E771
:101C70000DA000F03BF8C5E716A000F037F8C1E76B
:101C8000696E6974206F6B0D00000000307825309C
:101C900032782000E4B88BE4B880E4B8AA000000F1
:101CA000E692ADE694BE0000E4B88AE4B880E4B8F9
:101CB000AA000000E8BF94E59B9E0000E99FB3E9FD
:101CC000878F2D00E99FB3E9878F2B00544553542C
:101CD00000000000E4B8BBE7958CE99DA20000007D
:101CE000E5BC80E69CBA00000D0000000FB4054B77
:101CF00010B503A9044A029800F018F810BC5DF86A
:101D000014FB0000591A00080000002002E008C877
:101D1000121F08C1002AFAD170477047002001E065
:101D200001C1121F002AFBD1704700002DE9FF4FAF
:101D30008DB00F460546002606E025280BD0DDE9CC
:101D40000F1290476D1C761C28780028F5D111B031
:101D50003046BDE8F08F0024A246A1460122EC499E
:101D600000E0044315F8013F203B02FA03F008426B
:101D7000F7D128782A2810D06FF02F022878A0F108
:101D80003001092914D80AEB8A0102EB410144F021
:101D9000020400EB010A6D1CF0E701CF5FEA000AC4
:101DA00003D544F40054CAF1000A44F002046D1C47
:101DB00028782E2817D115F8010F44F004042A289A
:101DC0000ED06FF02F022878A0F1300109290AD82F
:101DD00009EB890102EB410100EB01096D1CF2E7FF
:101DE00057F8049B6D1C28786C280FD006DC4C2813
:101DF00017D068280DD06A2814D104E0742810D0B8
:101E00007A280FD10DE044F400140AE044F4801461
:101E100001E044F440146978814202D104F5801451
:101E20006D1C6D1C2A786E2A1FD00CDC632A31D001
:101E300004DC002A8BD0582A11D1A3E0642A68D090
:101E4000692A0CD165E0732A2ED004DC6F2A73D086
:101E5000702A04D19BE0752A6FD0782A6ED0104684
:101E6000DDE90F129047761C50E1C4F302500228BE
:101E700006D0032809D0042801CF09D0066045E127
:101E800001CFF117C0E9006140E101CF06803DE1DB
:101E900006703BE117F8040B8DF8000000208DF868
:101EA0000100EB46012003E057F804BB4FF0FF3080
:101EB00061074FF0000102D40DE008F101018846EE
:101EC00049450FDA8045F8DB1BF808100029F4D1EA
:101ED00008E008F1010188468142FADB1BF808108E
:101EE0000029F6D1DDE90F23AAEB0800814621463F
:101EF00000F036F9304400EB080604E0DDE90F128B
:101F00001BF8010B9047B8F10108F7D2214648466B
:101F1000F7E00A21C4F302534FF0000B0891022BA3
:101F200004D001CFC117032B09D00AE0FF1D27F011
:101F30000707F7E8020108E032E01FE020E000B206
:101F4000C117042B01D140B2C117031E71F1000368
:101F500007DA4FF0000CD0EB0C006CEB01012D23E5
:101F600002E0230504D52B238DF82430012303E060
:101F7000E30701D02023F7E7984658E00A2110E054
:101F800010210EE010204FF0000B08900CE0102103
:101F90004FF0000B44F004044FF00809089103E0EF
:101FA00008214FF0000B0891C4F30253022B04D018
:101FB00001CF0021032B06D006E0FF1D27F0070705
:101FC000F7E8020103E080B2042B00D1C0B24FF069
:101FD000000823072BD5702A07D0DDF820C08CF02D
:101FE000100C5CEA0B0C05D00EE040238DF8243079
:101FF000012308E050EA010306D030238DF8243095
:102000008DF8252002239846DDF820C08CF0080CBE
:102010005CEA0B0C0BD150EA010301D1630706D532
:1020200030238DF824304FF00108A9F10109582A16
:1020300004D038A20B9208AA0A920BE03AA2F9E760
:102040005B46089AFEF7A2F80B9B9B5C0A9A521E0D
:102050000A92137050EA0102F2D10A98ADEB000027
:1020600000F1200B600702D524F4803401E04FF02A
:102070000109D94502DDA9EB0B0000E0002000EBCF
:102080000B0141440890AAEB010AE00306D4DDE904
:102090000F232146504600F063F806444FF0000934
:1020A00008E009A911F80900DDE90F12904709F1CC
:1020B0000109761CC145F4DBE0030CD5DDE90F23F3
:1020C0002146504600F04CF8064404E0DDE90F12CA
:1020D00030209047761C0899481E08900029F5DCAE
:1020E00008E00A980A990078491C0A91DDE90F1264
:1020F0009047761CBBF10001ABF1010BF1DC2146EE
:102100005046DDE90F2300F019F806446D1C1BE66C
:1021100009280100303132333435363738396162BD
:102120006364656600000000303132333435363781
:102130003839414243444546000000002DE9F04152
:10214000044600251E461746880404D405E0394697
:102150002020B0476D1C641EF9D52846BDE8F081EB
:102160002DE9F041044600251E469046C80301D5DE
:10217000302700E02027880404D505E04146384692
:10218000B0476D1C641EF9D52846BDE8F0810000FB
:102190000149FFF761BC00000000002010B50446B3
:1021A00001E0FFF759FC14F8010B04490028F8D1AD
:1021B000BDE810400A20FFF74FBC000000000020DF
:1021C00000000000000000000102030406070809E7
:1021D0000000000001020304F821000800000020B4
:1021E000100000000C1D000808220008100000204C
:1021F000000500001C1D00080000000000127A000D
:082200000100000010000000C5
:0400000508000131BD
:00000001FF
