:020000040800F2
:10000000B8050020450100088114000825130008E8
:100010007D140008DD010008A91900080000000097
:10002000000000000000000000000000E1140008D3
:10003000E101000800000000B114000815150008D7
:100040005F0100085F0100085F0100085F01000810
:100050005F0100085F0100085F0100085F01000800
:100060005F0100085F0100085F0100085F010008F0
:100070005F0100085F0100085F0100085F010008E0
:100080005F0100085F0100085F0100085F010008D0
:100090005F0100085F0100085F0100085F010008C0
:1000A0005F0100085F0100085F0100085F010008B0
:1000B0005F0100085F010008811500085F0100086A
:1000C0005F0100085F0100085F0100085F01000890
:1000D0005F0100085F0100085F0100085F01000880
:1000E0005F0100085F0100085F0100085F01000870
:1000F0005F0100085F0100085F0100085F01000860
:100100005F0100085F0100085F0100085F0100084F
:100110005F0100085F0100085F0100085F0100083F
:100120005F0100085F0100085F0100085F0100082F
:10013000DFF80CD000F040F800480047411A0008F2
:10014000B80500200648804706480047FEE7FEE75E
:10015000FEE7FEE7FEE7FEE7FEE7FEE7FEE7FEE777
:100160007D15000831010008D2B201E000F8012B32
:10017000491EFBD270470022F6E710B513460A4627
:1001800004461946FFF7F0FF204610BD30B50B4678
:10019000014600202022012409E021FA02F59D42B7
:1001A00005D303FA02F5491B04FA02F52844151E8B
:1001B000A2F10102F1DC30BD064C074D06E0E0681B
:1001C00040F0010394E8070098471034AC42F6D39E
:1001D000FFF7B2FF881C0008A81C0008FEE700001B
:1001E00070470000EFF3108072B600BFFEE700001A
:1001F0002DE9F04F83B00C68002C00F0EA80A0F1EC
:100200008042A2F5843240F2004E4FEAB22241F61B
:100210000047C4F2010E0092C4F201070622002535
:100220004FF001094FF0000B4FF0000AB84208BF31
:100230000522019209E000BF0C680BF1010B34FAB2
:100240000BF205F1040500F0C48009FA0BF814EA7A
:10025000080CF1D04C684FF6FF72C1F210029442C4
:1002600010DC122C50D8DFE804F0330A41454F4F20
:100270004F4F4F4F4F4F4F4F4F4F4F484C00D1F8BC
:100280000CA041E04FF6FF72C1F2210294420FDC54
:100290000022C1F2110294421AD00022C1F21202CD
:1002A000944215D00022C1F22102944210D02BE0DA
:1002B0000022C1F2220294420AD00022C1F231028D
:1002C000944205D00022C1F2320294421CD100BFF8
:1002D0008C6844B1012C14BFC0F81480C0F81080A1
:1002E0004FF0080A10E04FF0040A0DE0CC6804F16A
:1002F000080A09E04FF0000A06E0CC6804F1040A9D
:1003000002E0CC6804F10C0A2C460746BCF5807F5D
:1003100024BF203C04373A680F2303FA04F6B243A3
:100320000AFA04F422433A60CA79D2067FF584AF10
:1003300041F21804C4F2020422684FF6084842F061
:10034000010222602268CFF6FF7802F001020292D9
:10035000029A2BF00302724452F8084005F00C0692
:1003600003FA06F7009BBC43019F052B38BF1F46CD
:1003700007FA06F6344342F808404C6840F20C464F
:10038000E202DEF8082054BF22EA0C0742EA0C071A
:10039000C4F20106A202CEF80870326854BF22EA05
:1003A0000C0742EA0C07A2033760DEF8042054BFB2
:1003B00022EA0C0742EA0C07E203CEF80470DEF8EA
:1003C000002054BF22EA0C0242EA0C02CEF80020C0
:1003D00032E703B0BDE8F08F40F2AC10C2F200008B
:1003E0000068704740F2080040F2AC11C2F2000011
:1003F000C2F2000100780A681044086070470000EB
:1004000080B542F20000C4F20200016841F0100120
:100410000160032000F066F80F2000F005F800F0FE
:100420002BF8002080BD0000B0B540F20802C2F2F7
:10043000000240F204011278C2F200014FF47A7314
:100440000968B3FBF2F20446B1FBF2F1084600F092
:10045000E7FA0F2C4FF001050CD858B94FF0FF30D8
:1004600021460022002500F02DF840F20C00C2F2D7
:10047000000004602846B0BD82B041F21800C4F20A
:1004800002000168022241F001010160016801F0EF
:10049000010101910199416841F08051416040683A
:1004A00000F08050009000980420C4F20100016820
:1004B00062F31A61016002B07047000080B501F07C
:1004C00075FA80BD70B514460D46064601F07EFAF9
:1004D0002946224600F0D6FF0146304601F07EFA5A
:1004E00070BD000080B501F08BFA80BD2DE9F043AE
:1004F00081B0002800F0898042F20008C4F20208AE
:100500000446D8F800000D4600F0070088420CD2DF
:10051000D8F8000020F007002843C8F80000D8F8F9
:10052000000000F00700A8426FD1206841F20409E2
:100530008107C4F2020917D5410705D5D9F8001083
:1005400041F4E061C9F80010010705D5D9F80010A1
:1005500041F46051C9F80010D9F80010A26821F0E8
:10056000F0011143C9F80010C00745D1D8F80000C8
:1005700000F00700A8420CD9D8F8000020F00700CE
:100580002843C8F80000D8F8000000F00700A8428F
:100590003BD12068410707D5D9F80010E26821F463
:1005A000E0611143C9F80010000708D5D9F8000030
:1005B000216920F4605040EAC100C9F8000000F051
:1005C00079F8D9F8001041F67042C1F30311C0F672
:1005D0000002515C40F2040220FA01F140F20C00EA
:1005E000C2F200000068C2F200021160FFF71CFFB7
:1005F000002001B0BDE8F0836068022809D001281E
:1006000029D159F8041C890307D4012001B0BDE8A1
:10061000F08359F8041C8901F7D5D9F8001021F0AE
:1006200003010843C9F80000FFF7D6FE064641F271
:10063000883700BFD9F80000616800F00C00B0EB0B
:10064000810F93D0FFF7C8FE801BB842F2D9032078
:1006500001B0BDE8F08359F8041C8907D5D5DCE763
:1006600040F20400C2F200000068704780B5FFF756
:10067000F7FF41F20401C4F20201096841F6804229
:10068000C1F30221C0F60002515CC84080BD0000E9
:1006900080B5FFF7E5FF41F20401C4F202010968E9
:1006A00041F68042C1F3C221C0F60002515CC8404D
:1006B00080BD000041F2040CC4F2020CDCF80030F2
:1006C00003F00C00082841F20020C0F27A0018BFA5
:1006D0007047C3F383420AA18A5CD90305D440F66C
:1006E0000010C0F23D0050437047DCF8001008A332
:1006F000C1F34041595C5043B0FBF1F0704700BF7B
:1007000002030405060708090A0B0C0D0E0F101052
:10071000010200002DE9F04182B0002800F0C48001
:100720000446007841F20006C007C4F2020643D036
:10073000706800F00C00042817D0706800F00C00FE
:10074000082802D17068C0030FD465682DB1B5F5D3
:10075000A02F10D0B5F5803F11D0306820F4803044
:100760003060306820F480200CE03068800323D5AE
:10077000606808BB98E0306840F4802030603068E2
:1007800040F480303060FFF727FE002D054610D082
:100790003068800310D4FFF71FFE401B6428F7D990
:1007A00004E100BFFFF718FE401B64284FF0030070
:1007B00077D830688003F5D42078800718D5706822
:1007C00010F00C0F07D0706800F00C00082826D13C
:1007D0007068C00323D43068800702D520690128DF
:1007E00062D13068616920F0F80040EAC1003060F1
:1007F000207800073DD5A06938B30020C4F242201C
:100800000121C0F88014FFF7E7FD0546706A8007F4
:100810002DD4FFF7E1FD401B0228F7D9C6E020697F
:10082000002840F20000C4F2422000F0968001212E
:100830000160FFF7D1FD054630688007D1D4FFF78E
:10084000CBFD401B0228F7D9B0E00020C4F24220C3
:100850000021C0F88014FFF7BFFD0546706A8007CD
:1008600007D5FFF7B9FD401B0228F7D99EE000F03D
:1008700021FE207840071BD4E5698DB1706800F037
:100880000C00082847D1012D0ED07068216A00F4B1
:1008900080328A4208D1616A00F47010884203D124
:1008A000002002B0BDE8F081012002B0BDE8F08177
:1008B000F06910F0805808D1F06940F08050F06184
:1008C000F06900F080500190019847F20007C4F2EF
:1008D00000073868C00510D4386840F4807038606C
:1008E000FFF77AFD054600BF3868C00505D4FFF75D
:1008F00073FD401B6428F7D958E0E5681DB1052D4C
:100900003CD0012D3ED0306A20F001003062306AC8
:1009100020F0040039E00027C4F2422700203866A6
:10092000FFF75AFD022D05460CD100BF306880014B
:1009300054D5FFF751FD401B02284FF00300F5D9B5
:10094000AFE700BF30688001AAD5FFF745FD401B27
:1009500002284FF00300F5D9A3E700210160FFF75B
:100960003BFD0546306880077FF542AFFFF734FD59
:10097000401B02284FF00300F4D992E7306A40F0A0
:1009800004003062306A40F001003062FFF724FD5D
:10099000002D054641F2883714D000BF306A800729
:1009A00013D4FFF719FD401BB842F7D9032002B05A
:1009B000BDE8F081FFF710FD401BB8424FF0030087
:1009C0003FF66FAF306A8007F4D4B8F1000F7FF4C0
:1009D00053AFF06920F08050F0614DE7206AB0F528
:1009E000803F05D17168A26821F400311143716024
:1009F0007168626A21F47411104308437060012029
:100A00003866FFF7E9FC0446306880013FF548AFDF
:100A1000FFF7E2FC001B02284FF00300F4D940E787
:100A200080B500F05FFD80BD70470000704700009A
:100A300010B590F83C20012A4FF0020241D001236A
:100A400080F83C3080F83D200268D2F804E0D2F80B
:100A500008C00C682EF07003234340F6FF34C4F244
:100A60000004A24253600FDCB2F1804F1ED040F26E
:100A70000043C4F200039A4218D040F60003C4F2C7
:100A800000039A4212D016E040F60043C4F200037D
:100A90009A420BD043F20043C4F201039A4205D0BC
:100AA00042F60043C4F201039A4204D149682CF093
:100AB0008003194391600121002280F83D1080F8E5
:100AC0003C20104610BD0000002804BF01207047E4
:100AD00010B5044690F83D0028B9002084F83C0089
:100AE000204600F01FF8022084F83D002068211DF8
:100AF00000F04EFD012084F8460084F83E0084F8A2
:100B00003F0084F8400084F8410084F8420084F8F3
:100B1000430084F8440084F8450084F83D00002038
:100B200010BD000080B586B040F600010068C4F238
:100B3000000100228842CDE904220392029201D0F2
:100B400006B080BD41F21800C4F20200436843F0D1
:100B500004034360436803F004030193019B0368AB
:100B600043F008030360006800F00800019001985A
:100B70004FF40070CDE9020201F5823002A904921F
:100B8000FFF736FB1E2000210022FFF79BFC1E20F2
:100B9000FFF794FC06B080BD90F83D1001291CBF02
:100BA00001207047022180F83D10006840F6FF32B6
:100BB000C168C4F20002904241F00101C1600FDC43
:100BC000B0F1804F1ED040F20041C4F200018842D3
:100BD00018D040F60001C4F20001884212D018E09B
:100BE00040F60041C4F2000188420BD043F20041BC
:100BF000C4F20101884205D042F60041C4F201016D
:100C0000884206D1816801F00701062904BF00204F
:100C10007047016841F00101016000207047000049
:100C200010B5044690F83C0001284FF0020008BFC0
:100C300010BD012284F83C2084F83D0020684FF666
:100C4000777382689A4382600A684F2A0FDC1F2AF2
:100C500022DD202A23D0302A21D0402A4DD14B68D2
:100C6000CA68194600F02EFD206840213BE06F2A3B
:100C700017DDB2F5005F20D0B2F5805F2AD0702A70
:100C80003BD1D1E9012CCB68614600F007FD20681B
:100C9000816841F077011AE00AB1102A2DD111467E
:100CA00021E0502A18D0602A27D14B68CA6819461B
:100CB00000F05EFD2068602115E0D1E9012CCB68D1
:100CC000614600F0EBFC2068816841F4804181605E
:100CD00000200BE0002009E04B68CA68194600F0CC
:100CE000F1FC2068502100F0E5FC0020012184F88F
:100CF0003D10002184F83C1010BD0120F6E70000F3
:100D0000B0B540F2A411C2F200010A780446CAB19B
:100D10000020087040F2A811C2F2000108602046CD
:100D20000C2100F019FA40F2B211C2F2000122685F
:100D30000880106A20F400501062106A40F40050DD
:100D40001062B0BD01250D7020460C2100F004FAA0
:100D500040F2B011C2F2000122680880116A80B22C
:100D600021F400511162116A116240F2A811C2F21D
:100D7000000140F2B2120968C2F20002128840EA91
:100D80000140801A41F23111411AC62940F2B411D2
:100D9000C2F20001086040F21011C2F2000106D850
:100DA0000D8040F21001C2F200010880B0BD0A8837
:100DB0009AB1531C9DB20B8040F21003C2F20003A3
:100DC000212D23F8120038BFB0BD40F2A510C2F2A9
:100DD00000000122027000200880B0BDB0B50446BA
:100DE00090F83C00012804BF0220B0BD0D464FEA38
:100DF000B2010120032984F83C0037D8DFE801F074
:100E0000020C16242068D5E90012EB6800F06CFC97
:100E1000206850F8181F12E02068D5E90012EB682E
:100E200000F0B8FC206850F8181F16E02068D5E9DB
:100E30000012EB6800F0CCFC206850F81C1F21F079
:100E40000C010160A9680DE02068D5E90012EB688B
:100E500000F0D8FC206850F81C1F21F440610160AC
:100E6000A96809020268114301600020002184F88A
:100E70003C10B0BD002804BF0120704710B50446E7
:100E800090F83D0028B9002084F83C00204600F08E
:100E90001FF8022084F83D002068211D00F078FB37
:100EA000012084F8460084F83E0084F83F0084F86E
:100EB000400084F8410084F8420084F8430084F83C
:100EC000440084F8450084F83D00002010BD000077
:100ED00070470000B0B5044641B1082909D0042983
:100EE00014BF04F1410004F13F0004E004F13E00AE
:100EF00001E004F14000007841B1082909D004293B
:100F000014BF04F1450204F1430204E004F142027B
:100F100001E004F1440201284FF00105127808BFF6
:100F2000012A01D02846B0BD022041B1082909D0CC
:100F3000042914BF84F8410084F83F0004E084F8D9
:100F40003E0001E084F84000022041B1082909D0A8
:100F5000042914BF84F8450084F8430004E084F8B1
:100F6000420001E084F844004FEAB10003280AD8A7
:100F7000236822A252F82020DD682A430025DA6087
:100F8000032803D9CEE701250328CBD82068012206
:100F900000F072FB206840F6FF31C4F20001884285
:100FA0000FDCB0F1804F1ED040F20041C4F20001CE
:100FB000884218D040F60001C4F20001884212D0E5
:100FC00016E040F60041C4F2000188420BD043F223
:100FD0000041C4F20101884205D042F60041C4F24A
:100FE0000101884204D1816801F00701062999D0E6
:100FF000016841F0010101602846B0BD0200000017
:10100000040000000800000010000000B0B5044615
:101010000068C168026902EA0105A9071DD46807D2
:1010200031D4280747D4E8065CD4E80773D12806F2
:101030007BD4680606D520686FF040010161204628
:1010400000F0A4F8A80658BFB0BD20686FF02001DA
:1010500001612046FFF7EAFCB0BD6FF002010161BB
:10106000012121778069800703D02046FFF748FEE1
:1010700005E0204600F064F8204600F063F8002008
:1010800020776807CDD520686FF004010161022147
:101090002177806910F4407F03D02046FFF730FEAF
:1010A00005E0204600F04CF8204600F04BF8002008
:1010B00020772807B7D520686FF008010161042167
:1010C0002177C069800703D02046FFF719FE05E0AD
:1010D000204600F035F8204600F034F80020207754
:1010E000E806A2D520686FF0100101610821217780
:1010F000C06910F4407F03D02046FFF701FE05E0F1
:10110000204600F01DF8204600F01CF80020207753
:10111000E8073FF48CAF20686FF0010101612046C1
:1011200000F012F828067FF584AF20686FF0800188
:1011300001612046FFF778FC68067FF583AF7AE708
:10114000704700007047000040F2A810C2F2000093
:1011500001680131016070474FEAB101032984BF82
:1011600000207047DFE801F0020E060A0068343004
:101170000068704700683C30006870470068403085
:10118000006870470068383000687047704700009A
:10119000002804BF0120704710B5044690F84100B4
:1011A00028B9002084F84000204600F021F82420CF
:1011B00084F841002068C16821F40051C1602046D4
:1011C00000F066FB2068016921F4904101614169EA
:1011D00021F02A014161C16841F40051C160002041
:1011E0002021606484F8411084F84210606310BDCF
:1011F00070B586B040F60004C4F20104006804F53E
:101200004051002688420596CDE90366029601D03A
:1012100006B070BD41F21800C4F20200016802ADD0
:1012200041F480410160016801F48041019101991C
:10123000016841F0040101600068294600F00400E3
:10124000019001984FF40070029002200390032057
:1012500005902046FEF7CCFF4FF48060CDE90206F2
:10126000204629460496FEF7C3FF06B070BD000075
:101270002DE9F041044690F8410020281CBF0220CF
:10128000BDE8F0810E4600294FF0010042D017461C
:10129000002A08BFBDE8F0814FF0000821201D465C
:1012A000C4F8448084F84100FFF796F8A784E784E7
:1012B000A1680746B1F5805F0DD12069002814BFF1
:1012C0003046B046064606E016F8010B2168486035
:1012D000E08C0138E084E08C80B1204680213A46E1
:1012E0002B4600F01DFBB8B9002EEDD138F8020BEB
:1012F00021686FF35F2048600026E9E7204640211F
:101300003A462B4600F00CFB202184F841100028BF
:1013100018BF0320BDE8F081202084F8410003209D
:10132000BDE8F081FEE7000010B540F21414C2F2EF
:1013300000042046FFF730FC20460C21FFF7CAFDD1
:1013400010BD000083B041F21800C4F20200016831
:1013500041F010010160016801F010010291029951
:10136000016841F004010160016801F0040101918C
:101370000199016841F008010160006800F008006F
:101380000090009803B0704710B58AB040F2141076
:1013900040F600020021C2F20000C4F2000247231E
:1013A0004FF6FF74CDE90811CDE90611CDE904111E
:1013B000CDE90211CDE90011C0E90023C0E9021412
:1013C00001618161FFF780FB002818BFFEF70AFF6B
:1013D0004FF48050069040F21410C2F2000006A9AB
:1013E000FFF71EFC002818BFFEF7FCFE40F21410A9
:1013F000C2F20000FFF73EFD002818BFFEF7F2FE24
:1014000040F214100024C2F2000004A9CDE9044403
:10141000FFF70EFB002818BFFEF7E4FE0120CDE920
:10142000010440F21410C2F2000069460C2200943C
:101430000394FFF7D3FC002818BFFEF7D3FE0AB0D1
:1014400010BD000080B540F25C1043F60001C2F20E
:101450000000C4F2010100234FF00C0C4FF4E13204
:1014600080E80E00C0E90333C0E905C3C361FFF79C
:101470008FFE002818BFFEF7B5FE80BDFEE7000016
:10148000FEE7000000F0070080F00703042B28BFF0
:1014900004234FF0FF3C03380CFA03F338BF00205D
:1014A000994381400CFA00F022EA0000084370479B
:1014B0007047000081B040F20400C2F200000068F2
:1014C00044F6D351C1F26201A0FB0101480A009029
:1014D00000BF0098411E00280091F9D101B070476B
:1014E00070470000B0B501380024B4EB106F1CBF8A
:1014F0000120B0BD4EF21005CEF2000568604FF03D
:10150000FF300F2100F06AFA0720AC602860204607
:10151000B0BD000080B5FEF765FF80BD70B590B02E
:1015200006AC20462821FEF726FE012006900A90F0
:101530004FF4E01000254FF4803102260F90204632
:101540000595CDE90355CDE90155CDE90715CDE95F
:101550000D61FFF7DFF878B90F20CDE901064FF4F0
:101560008060CDE9040501A802210395FEF7BEFFC6
:10157000002804BF10B070BDFEF734FE70470000B5
:1015800080B540F21410C2F20000FFF73FFD80BDAD
:1015900010B540F6FF3E0368C4F2000E43F2004C63
:1015A0007045C4F2010C20DCB0F1804F2BD040F22A
:1015B0000042C4F20002904225D040F60002C4F27C
:1015C000000290421FD0704523DCB0F1804F2ED036
:1015D00040F20042C4F20002904228D040F60002DD
:1015E000C4F20002904222D025E040F60042C4F24C
:1015F0000002904207D0604505D042F60042C4F296
:1016000001029042DFD14A6823F070031343704512
:10161000DBDD40F60042C4F20002904207D0604594
:1016200005D042F60042C4F20102904203D1CA68DA
:1016300023F44073134323F080024B69D1F800E098
:101640008C681A4360450260C462C0F828E005D087
:1016500042F60042C4F20102904201D109690163DD
:10166000012141610169C90708BF10BD016921F06D
:101670000101016110BD000080B501F01F014FF0B4
:10168000010CD0F820E00CFA01F32EEA0303036208
:10169000036A02FA01F11943016280BDD0F808C063
:1016A00011432CF47F4C41EA032141EA0C01816093
:1016B00070470000826822F07002114341F0070178
:1016C00081607047D0F820C0036A23F001030362F1
:1016D000836923F0F00343EA02122CF00A03194352
:1016E000826101627047000010B5D0F820C0D0F8C8
:1016F00020E040F6FF342EF0010EC0F820E0D0F8D4
:1017000018E0C4F20004A0420FDCB0F1804F1ED0FC
:1017100040F20044C4F20004A04218D040F6000495
:10172000C4F20004A04212D01EE040F60044C4F20D
:101730000004A0420BD043F20044C4F20104A042D2
:1017400005D042F60044C4F20104A0420CD12EF0B0
:101750000304224363F307122CF00A0301F00A0189
:1017600019448261016210BD4EF00102F2E70000EF
:10177000D0F820C0036A23F010030362836923F4C6
:10178000704343EA02322CF0A00343EA0111826164
:101790000162704710B5D0F820C0D0F820E01202E6
:1017A0002EF0100EC0F820E0D0F818E04FF2FF0441
:1017B000A2432EF4734E63F30F322CF0A00301F01A
:1017C0000A0142EA0E0243EA01118261016210BD80
:1017D00080B5D0F820C0D0F820E063F307122EF4D3
:1017E000807EC0F820E0D0F81CE0C1F356012EF056
:1017F000F30E42EA0E0261F3492CC261C0F820C028
:1018000080BD000010B5D0F820C0D0F820E0120252
:101810002EF4805EC0F820E0D0F81CE04FF2FF0408
:10182000A2432EF4734E63F30F32C1F3520142EA26
:101830000E0261F34D3CC261C0F820C010BD000033
:10184000016851E8031F026821F4907142E8031314
:10185000002BF5D1016851E8051F026821F0010154
:1018600042E80513002BF5D1016B01290AD100BF15
:10187000016851E8031F026821F0100142E80313D8
:10188000002BF5D1202180F8421000210163704720
:1018900010B504460068D4E902C22369016921F445
:1018A000405111430161616943EA0C021143C2686E
:1018B00041F20C639A431143C1604169A26921F46A
:1018C0004071114343F60002C4F2010290424161AB
:1018D00002D0FEF7CBFE01E0FEF7DAFE62681921C6
:1018E00048439100B0FBF1F048F21F51C5F2EB11F3
:1018F000A0FB01235A096FF0630302FB03003223AC
:1019000003EB0010A0FB0101F02303EA5113206850
:1019100003EB0212C1F343111144816010BD0000BA
:101920002DE9F04182B00446006800680840884212
:1019300003D1002002B0BDE8F0811D460E4690465E
:101940005F1C04E0206800683040B04228D0002FBF
:10195000F8D0FEF741FD01464FF003000DB3A1EBB7
:101960000801A9421DD82068C1684907EAD5402E60
:10197000E8D0802EE6D001680907E3D5002501955F
:10198000016801914068019001982046FFF758FFD7
:101990000820606484F84050012002B0BDE8F08166
:1019A000002002B0BDE8F081FEE70000002848BF3B
:1019B000704700F01F01012202FA01F14EF20012FD
:1019C0004009CEF2000242F8201070474EF60C504B
:1019D000CEF200000068C0F3022070474EF61453A8
:1019E00000F00F02CEF2000309011A4400F1604337
:1019F000B0F1FF3FC8BF03F56442117070470000AB
:101A00004EF60C51CEF200010A684FF6FF031A4061
:101A100060F30A2242F0806040F0FD700860704779
:101A200080B582B0019040F25C10C2F2000001A9C2
:101A300001224FF47A73FFF71BFC019802B080BDBE
:101A4000FEF7DEFCFFF76AFDFFF77CFCFFF79CFC6E
:101A5000FFF7F8FC13A000F0F9F8FFF765FC40F27F
:101A6000100040F2A516C2F20000C2F20006A0F17A
:101A7000020A0FA40FF23C084FF00009307800284A
:101A8000FCD02125574600BF37F8021F204600F042
:101A900013F8013DF8D1404600F0D8F886F80090E0
:101AA000ECE700BF696E6974206F6B0D00000000E9
:101AB000257520000D0000000FB4054B10B503A9DB
:101AC000044A029800F018F810BC5DF814FB0000FE
:101AD000211A00080000002002E008C8121F08C1F7
:101AE000002AFAD170477047002001E001C1121F9F
:101AF000002AFBD1704700002DE9FF4F89B09B46BB
:101B00000446002506E025280BD05A460B9990473D
:101B1000641C6D1C20780028F5D10DB02846BDE866
:101B2000F08F0027B8460122474900E0074314F828
:101B3000013F203B02FA03F00842F7D120782E281B
:101B400019D114F8010F47F004072A280ED06FF0BE
:101B50002F022078A0F1300109290CD808EB880168
:101B600002EB410100EB0108641CF2E70A98641CD7
:101B700050F8048B0A9020780028CED0642808D032
:101B8000692806D075281ED05A460B9990476D1CBF
:101B900058E00A994FF00A0901C90A91002802DAAF
:101BA00040422D2102E0390504D52B218DF820106B
:101BB000012103E0F90704D02021F7E78A4608AEA7
:101BC0000DE00021FAE70A994FF00A0901C90A91CC
:101BD000F7E74946FEF7DAFA303106F8011D00282A
:101BE000F7D1ADEB060000F12009780701D44FF0E2
:101BF0000108C84502DDA8EB090000E0002080468E
:101C0000002706E008A85A46C05D0B9990476D1C56
:101C10007F1C5745F6DB04E030205A460B9990476D
:101C20006D1CB8F10001A8F10108F5DC05E016F81B
:101C3000010B5A460B9990476D1CB9F10001A9F1AF
:101C40000109F4DC641C65E70928010010B50446AD
:101C500001E0FFF7E5FE14F8010B04490028F8D174
:101C6000BDE810400A20FFF7DBBE000000000020A6
:101C7000000000000000000001020304060708093C
:101C80000000000001020304A81C0008000000205E
:101C900010000000D81A0008B81C0008100000202E
:101CA000A8050000E81A00080000000000127A00F1
:081CB00001000000100000001B
:0400000508000131BD
:00000001FF
