:020000040800F2
:10000000A80400204901000853110008411000080D
:1000100051110008B5010008EB14000800000000B1
:100020000000000000000000000000005711000860
:10003000B701000800000000551100085911000820
:100040006301000863010008630100086301000800
:1000500063010008630100086301000863010008F0
:1000600063010008630100086301000863010008E0
:1000700063010008630100086301000863010008D0
:1000800063010008630100086301000863010008C0
:1000900063010008630100086301000863010008B0
:1000A00063010008630100086301000863010008A0
:1000B0006301000863010008BD1100086301000826
:1000C0006301000863010008630100086301000880
:1000D0006301000863010008630100086301000870
:1000E0006301000863010008630100086301000860
:1000F0006301000863010008630100086301000850
:10010000630100086301000863010008630100083F
:10011000630100086301000863010008630100082F
:10012000630100086301000863010008630100081F
:10013000DFF810D000F02CF80048004775150008D3
:10014000AFF30080A8040020064880470648004717
:10015000FEE7FEE7FEE7FEE7FEE7FEE7FEE7FEE777
:10016000FEE7FEE7BB11000831010008D2B201E052
:1001700000F8012B491EFBD270470022F6E710B5AC
:1001800013460A4604461946FFF7F0FF204610BD05
:10019000064C074D06E0E06840F0010394E80700D4
:1001A00098471034AC42F6D3FFF7C6FFC8150008D5
:1001B000E8150008FEE7704772B6FEE72DE9F84F34
:1001C000DFF8C8910024A9F1040B23460F2709F199
:1001D000040AABF1040ED1E00125A54006EA0502B0
:1001E000AA4276D1DFF8A8C14E68A6EB0C08664596
:1001F0002BD00DDC032E34D005DC36B3012E19D004
:10020000022E2FD11BE0112E16D0122E2AD119E06A
:10021000B8F5881F19D006DCB8F5803F15D0B8F5C1
:10022000801F1FD111E0B8F5001F0ED0B8F5041FD4
:1002300018D10AE0CB6815E0CB681B1D12E0CB6833
:1002400008330FE0CB680C330CE08B682BB1012B2B
:100250004FF0080303D0456104E0042302E0056188
:1002600000E00023FF2A01D8064601E000F1040661
:100270004FEA840501D9A5F12005D6F8008007FAD8
:1002800005FC28EA0C0803FA05F548EA0508C6F853
:1002900000804D68ED0070D53E4DAE6946F0010618
:1002A000AE61AD6924F0030605F0010500953A4DF5
:1002B00006EB050CDCF80850A607360F07FA06F81F
:1002C00025EA0805DFF8D480404503D14FF0000847
:1002D00025E052E0DFF8C880404502D14FF0010828
:1002E0001DE0DFF8C080404502D14FF0020816E063
:1002F000DFF8B480404502D14FF003080FE0DFF88B
:10030000AC80404502D14FF0040808E0DFF8A0803F
:10031000404502D14FF0050801E04FF0060808FA09
:1003200006F848EA0508CCF808804D68D9F800605E
:10033000ED024D4601D5164300E096432E604D6810
:10034000DAF80060AD02554601D5164300E0964349
:100350002E604D68DBF80060AD035D4601D51643A5
:1003600000E096432E604D68DEF80060ED037546B0
:1003700001D5164300E096432E60641C0A681646B9
:10038000E2407FF429AFBDE8F88F00000804014087
:100390000000111000100240000001400008014060
:1003A000000C014000100140001401400018014001
:1003B000001C0140014880687047000000000020D8
:1003C0000248816802781144816070470000002073
:1003D000074810B5016841F010010160032000F0EA
:1003E00075F80F2000F006F800F024F8002010BD8A
:1003F0000020024070B50D4D04464FF47A71287804
:10040000B1FBF0F00A490968B1FBF0F000F0DCFA4A
:1004100048B9102C07D200222146501E00F036F8B1
:1004200000206C6070BD012070BD00000000002045
:100430000C0000200C4808B5816941F00101816180
:10044000816901F001010091C16941F08051C161F0
:10045000C06900F0805000900448416821F0E061DC
:1004600041F00071416008BD0010024000000140F1
:10047000002809DB00F01F020121914040098000A3
:1004800000F1E020C0F8001170470000F0B40E4BFE
:100490001B680C46C3F30223C3F10705042D00D9E2
:1004A0000425191D072901D2002300E0DB1E0126C7
:1004B00006FA05F1491E214099409E40761E1640DD
:1004C0003143F0BC01F01AB80CED00E0064900F031
:1004D000070208684FF6FF03184040EA0220034A6B
:1004E00010430860704700000CED00E00000FA05C2
:1004F0002DE9F0470F46050061D0434E306800F00B
:100500000700B84209D2306820F007003843306055
:10051000306800F00700B84251D128683B4C810791
:1005200012D5400703D5606840F4E0606060287829
:10053000000703D5606840F4605060606068A96897
:1005400020F0F000084360602878C00728D0686871
:10055000012810D02168022810D0890700292EDA3E
:10056000616821F0030101436160FFF723FF8046CA
:1005700041F288390DE021688903EFE78901EDE751
:10058000FFF718FFA0EB0801494502D90320BDE899
:10059000F0876068696800F00C00B0EB810FEFD164
:1005A000306800F00700B8420BD9306820F007002F
:1005B00038433060306800F00700B84201D00120B5
:1005C000E5E72878400705D56068E96820F4E06031
:1005D000084360602878000706D56068296920F420
:1005E000605040EAC100606000F038F86168084A75
:1005F000C1F30311515CC840064908600648006811
:10060000FFF7F8FE0020C2E7002002400010024081
:10061000AE1500080C000020040000200448054925
:1006200000684968044AC1F30221515CC840704720
:100630000C00002000100240BE15000804480549C7
:1006400000684968044AC1F3C221515CC840704740
:100650000C00002000100240BE1500080E4A516830
:100660000E4801F00C03042B11D0082B0FD10C48BD
:10067000C1F38343C903C05C0AD55168084AC1F37A
:100680004041921E515C054A5043B0FBF1F0704767
:1006900004494843704700000010024000127A00ED
:1006A0009E15000800093D002DE9F84F040070D0A8
:1006B0002078C04DC00749D06868C0F38100012888
:1006C00007D06868C0F38100022809D16868C003B8
:1006D00006D52868800339D560680028E7D035E062
:1006E0006068B0F5803F0BD010B1B0F5A02F11D0ED
:1006F000286820F480302860286820F4802002E0F8
:10070000286840F480302860606890B1FFF752FE9E
:1007100006460AE0286840F480202860F0E700BF21
:10072000FFF748FE801B642873D828688003F7D53C
:100730000CE0FFF73FFE064605E000BFFFF73AFE7C
:10074000801B6428F0D828688003F7D420789A4E5C
:1007500080074FF001094FF0000839D5686810F0A4
:100760000C0F07D06868C0F38100022809D16868BF
:10077000C00306D42868800714D52069012808D151
:1007800010E02069B0B1C6F80090FFF713FE0746ED
:1007900005E00AE1FFF70EFEC01B0228C4D8286856
:1007A0008007F7D52868616920F0F80040EAC100A9
:1007B00028600DE0C6F80080FFF7FCFD074604E066
:1007C000FFF7F8FDC01B022823D828688007F7D45C
:1007D000207800072CD57948A169D9B1C0F80090DC
:1007E000FFF7E8FD074604E0FFF7E4FDC01B022821
:1007F0000FD8686A8007F7D571484FF4FA5100683E
:10080000B0FBF1F0009000BF0098411E0091FAD2B9
:100810000EE080E0C0F80080FFF7CCFD074604E062
:10082000FFF7C8FDC01B022875D8686A8007F7D497
:100830002078400760D5E8690027C00008D4E8693F
:1008400040F08050E861E869012700F08050009096
:100850005C480168C90513D40168834641F480717E
:100860000160FFF7A7FD824606E000BFFFF7A2FD8B
:10087000A0EB0A0064284ED8DBF80000C005F5D5CF
:10088000E06801280AD008B1052813D0286A20F0B2
:1008900001002862286A20F0040002E0286A40F083
:1008A00001002862E06841F2883B98B1FFF782FDC1
:1008B00082460BE0286A40F004002862EEE700BFA1
:1008C000FFF778FDA0EB0A0159455AD8286A80073E
:1008D000F6D50CE0FFF76EFD824605E0FFF76AFDF6
:1008E000A0EB0A0159454CD8286A8007F6D41FB1FD
:1008F000E86920F08050E861E06988B36968C1F375
:100900008101022944D00228C6F8608004D0FFF794
:1009100051FD044638E034E0FFF74CFD074604E0A3
:10092000FFF748FDC01B02282BD828688001F7D4A8
:10093000206AB0F5803F05D16868A16820F40030D6
:1009400008436860D4E908010843696821F4741118
:1009500008436860C6F86090FFF72CFD044606E087
:1009600025E000BFFFF726FD001B022809D82868F4
:100970008001F7D51BE000BFFFF71CFD001B02281C
:1009800002D90320BDE8F88F28688001F4D40EE076
:100990000128F7D06868226A00F48031914204D1BE
:1009A000616A00F47010884201D00120EAE700205B
:1009B000E8E700000010024000004242800442428A
:1009C0000C0000200070004010B5401EB0F1807F88
:1009D00001D3012010BD4FF0E02460610F216017AA
:1009E00000F08CFD0020A06107202061002010BDD8
:1009F0007047704770B590F83C20012A2CD0012434
:100A000080F83C40022280F83D2003685A689D68C7
:100A100022F070060A6832435A60104B02689A420C
:100A20000ED00F4B9A420BD0B2F1804F08D00D4B35
:100A30009A4205D00C4B9A4202D00C4B9A4204D1F8
:100A4000496825F080031943916080F83D400021FA
:100A500080F83C10084670BD022070BD002C01409B
:100A6000003401400004004000080040000C004039
:100A700010B5040003D094F83D0010B107E0012048
:100A800010BD002084F83C00204600F01FF8022032
:100A900084F83D00211D206800F096FB012084F8B9
:100AA000460084F83E0084F83F0084F8400084F853
:100AB000410084F8420084F8430084F8440084F83C
:100AC000450084F83D00002010BD000000B585B051
:100AD000002100910191029103910068124988421E
:100AE0001FD11248C16941F00401C161C16901F01F
:100AF00004010491816941F00801816180696946BE
:100B000000F0080004904FF4007000900848FFF7D0
:100B100055FB002211461E20FFF7B8FC1E20FFF7F0
:100B2000A7FC05B000BD0000000800400010024016
:100B3000000C014070B5044690F83C0000250128E7
:100B400017D0012684F83C60022084F83D0020681C
:100B5000826822F0770222F47F428260086850287F
:100B600038D00DDC20284FD005DC90B3102811D1EF
:100B70004AE0022070BD302846D040280AD13BE030
:100B800060282FD070280DD0B0F5805F03D0B0F56D
:100B9000005F12D0012584F83D60002084F83C00FD
:100BA000284670BDCB68D1E90121206800F05AFBCE
:100BB0002068816841F0770109E0CB68D1E9012123
:100BC000206800F04FFB2068816841F4804181601B
:100BD000E1E719E0CA684968206800F055FB502138
:100BE000206806E0CA684968206800F095FB60212B
:100BF000206800F041FBCEE7CA684968206800F031
:100C000043FB40212068F4E7226801461046F0E7E4
:100C100070472DE9F041054690F83C0000260C464F
:100C2000012810D0012085F83C0072B1042A1CD0A4
:100C3000082A2CD00C2A50D00126002085F83C0030
:100C40003046BDE8F0810220FBE7D4E90012E368FA
:100C5000286800F02BFB2868816921F00C01816174
:100C600028688169A26811430FE0D4E90012E368A3
:100C7000286800F063FB2868816921F44061816184
:100C800028688169A26841EA02218161D5E7286864
:100C9000D4E9002C277B036A016A21F48071016288
:100CA000C16923F4007321F0030141EA0C0121F032
:100CB000F00C39074FF400774CEA116107EA022281
:100CC0001A43C16102622868C16921F00C01C16147
:100CD0002868C169A26811432BE02868D4E9002183
:100CE000E768036AD0F820C02CF4805CC0F820C00C
:100CF000D0F81CC023F400532CF4407C4CEA0121B2
:100D000021F4704C4FF6FF7101EA07314FF40057A0
:100D100041EA0C0107EA02321A43C1610262286803
:100D2000C16921F44061C1612868C169A26841EAD2
:100D30000221C16181E710B5040003D094F83D00A1
:100D400010B107E0012010BD002084F83C002046CF
:100D500000F01EF8022084F83D00211D206800F0FC
:100D600033FA012084F8460084F83E0084F83F00FE
:100D700084F8400084F8410084F8420084F843007D
:100D800084F8440084F8450084F83D00002010BD3C
:100D900070472DE9F04104460068C66805694FF0C8
:100DA0000007A90713D5B10711D5F91E016101206C
:100DB0002077206880698007204602D0FFF728FF4F
:100DC00004E000F07EF8204600F07CF82777680702
:100DD00016D5700714D521686FF004000861022051
:100DE00020772068806910F4407F204602D0FFF70A
:100DF0000FFF04E000F065F8204600F063F8277765
:100E0000280715D5300713D521686FF00800086151
:100E1000042020772068C0698007204602D0FFF7B1
:100E2000F7FE04E000F04DF8204600F04BF827777D
:100E3000E80616D5F00614D521686FF01000086199
:100E4000082020772068C06910F4407F204602D037
:100E5000FFF7DEFE04E000F034F8204600F032F840
:100E60002777E80708D0F00706D021686FF0010067
:100E70000861204600F027F8280608D5300606D578
:100E800021686FF0800008612046FFF7B1FD680619
:100E900008D5700606D521686FF04000086120462D
:100EA00000F012F8A8060AD5B00608D521686FF040
:100EB000200008612046BDE8F041FFF79ABDBDE87B
:100EC000F081704770477047704770B5040004D0D8
:100ED00094F84100002510B106E0012070BD84F8AF
:100EE0004050204600F024F8242084F84100206877
:100EF000C16821F40051C160204600F061FA206809
:100F0000016921F4904101612068416921F02A01C1
:100F100041612068C16841F40051C16065642020CE
:100F200084F8410084F842006563002070BD000031
:100F300030B585B0002400940194029403940068B5
:100F40001449884224D11448816941F48041816167
:100F5000816901F480410491816941F0040181615A
:100F600080690E4D00F0040004904FF40070009072
:100F7000022001900320039069462846FFF71EF9DE
:100F80002815CDE90004694628460294FFF716F9B2
:100F900005B030BD0038014000100240000801409B
:100FA0002DE9F843044690F84100984616460D4650
:100FB000202802D00220BDE8F88385B17EB1002050
:100FC0006064212084F84100FFF7F4F9A68481468B
:100FD000E684A0682027B0F5805F02D003E00120FE
:100FE000E9E7206910B12E4600250EE000260CE04E
:100FF0008021204600F040FAA8B9C6B116F8010BCE
:1010000021684860E08C401EE084E08C4B464FF045
:101010000002CDF800800028EAD14FF040012046C0
:1010200000F02AFA40B184F841700320C3E735F894
:10103000020BC0F30800E3E784F841700020BAE730
:10104000FEE700000D4808B5816941F0100181619B
:10105000816901F010010091816941F00401816111
:10106000816901F004010091816941F00801816109
:10107000806900F00800009008BD000000100240E8
:1010800010B58AB00024234804940594069407946C
:10109000089409940094019402941D4903940160FA
:1010A0004721C0E9011442F21071C0E903148461C0
:1010B000FFF7DEFC08B1FFF77FF84FF48050049093
:1010C00004A91448FFF736FD08B1FFF775F8114879
:1010D000FFF731FE08B1FFF76FF8089408A90D4833
:1010E0000994FFF787FC08B1FFF766F80120CDE906
:1010F00000400320CDE902400C2269460548FFF775
:1011000088FD002801D0FFF757F80AB010BD000095
:1011100000080040140000200C4810B50A49016086
:101120004FF4E1314160002181600C22C160C0E9CF
:1011300004128161C161FFF7C8FE002803D0BDE839
:101140001040FFF739B810BD003801405C000020A6
:10115000FEE7FEE770477047FFF732B930B58FB052
:1011600028216846FFF709F814210AA8FFF705F8B7
:1011700001210804CDE90010002402940225049105
:10118000CDE907504FF4E01009906846FFF78CFA5C
:1011900008B172B6FEE70F20CDE90A054FF4806072
:1011A000CDE90C4002210AA80E94FFF7A1F900280E
:1011B00001D072B6FEE70FB030BD70470148FFF7AF
:1011C000E8BD000014000020F0B50268204C214D5D
:1011D000214E224F224B4FF0804CA04209D0984222
:1011E00007D0604505D0A84203D0B04201D0B84234
:1011F00004D122F0700E4A6842EA0E02A04209D0E1
:10120000984207D0604505D0A84203D0B04201D033
:10121000B84203D122F44075CA682A434D6922F0CE
:1012200080022A4302608A68C2620A688262A0421F
:1012300001D0984201D1096901630121416101692D
:10124000C90703D0016921F001010161F0BD00006F
:10125000002C01400004004000080040000C004049
:101260000034014010B5846842EA032224F47F442C
:101270000A432243826010BD826822F070020A4352
:1012800042F007018160704710B5036A046A24F0D8
:1012900001040462846924F0F00444EA021423F097
:1012A0000A020A438461026210BD000070B5056A3B
:1012B000046A24F0010404628469124EB0420ED024
:1012C000114EB0420BD0B0F1804F08D00F4EB0425B
:1012D00005D00F4EB04202D00E4EB04203D124F0E2
:1012E0000304144301E044F001041A0724F0F0045D
:1012F00044EA126225F00A0301F00A0119438261EF
:10130000016270BD002C0140003401400004004027
:1013100000080040000C004010B5036A046A24F085
:1013200010040462846923F0A00324F4704444EAA6
:10133000023243EA01118261016210BD30B5046AD4
:10134000056A25F010050562856925F4407545EAB2
:10135000022222F470454FF6FF7202EA033224F0B3
:10136000A0032A43A02404EA011119438261016207
:1013700030BD01680C3151E8002F22F4907241E831
:101380000023002BF5D10168143151E8002F22F021
:10139000010241E80023002BF5D1016B012909D19D
:1013A00001680C3151E8002F22F0100241E80023BF
:1013B000002BF5D1202180F84210002101637047F5
:1013C00070B5044600680169E26821F44051114398
:1013D00001612169A0680843616908432168CA68FE
:1013E00041F20C639A430243CA6020684169A269D2
:1013F00021F44071114341611E492068884202D1A5
:10140000FFF71CF901E0FFF709F900EBC00101EB60
:101410000012606864218000B2FBF0F3B3FBF1F3CB
:101420006FF018067343B2FBF0F5B2FBF0F605EB74
:101430008305322303EB0515B5FBF1F5B6FBF1F699
:1014400005F0F00505EB0615B2FBF0F6B2FBF0F087
:10145000B0FBF1F06FF01802504306EB800003EB95
:101460000010B0FBF1F0216800F00F002844886004
:1014700070BD0000003801402DE9F843984617463A
:101480000D460446089E24E0701C22D0FEF792FF11
:10149000A0EB0800B0421AD8CEB12068C168490755
:1014A00017D5802D15D0402D13D00168C9430907E9
:1014B0000FD401680025406800902046FFF759FFCF
:1014C0000820606484F840500120BDE8F8830320C0
:1014D000FBE72068006835EA000004D00020B8422D
:1014E000D2D00020F1E70120F9E7FEE7014A0249E6
:1014F00000F023B85D150008100000200907090E50
:10150000002804DB00F1E02080F80014704700F0B0
:101510000F0000F1E02080F8141D704702E008C8B9
:10152000121F08C1002AFAD170477047002001E05D
:1015300001C1121F002AFBD170472DE9F041164668
:101540000F460446002503E03946B047641C6D1C75
:1015500020780028F8D12846BDE8F08113B54FF473
:101560007A73012269460248FFF71AFD00981CBDF4
:101570005C000020FEF72CFFFFF7F0FDFFF762FD97
:10158000FFF77EFDFFF7C8FD01A0FFF7AFFFFEE705
:10159000696E6974206F6B0D0A000000010202037E
:1015A0000405060708090A0B0C0D0E0F10100000A9
:1015B0000000000000000102030406070809000003
:1015C0000000010203040000E815000800000020EC
:1015D000140000001C150008FC1500081400002071
:1015E000940400002C150008010000001000000009
:0C15F0000000000000127A000000000063
:0400000508000131BD
:00000001FF
