:020000040800F2
:10000000B8060020890100089F100008570F00085B
:100010009D1000088F0200088712000800000000F1
:10002000000000000000000000000000A310000815
:100030009102000800000000A1100008A5100008AF
:10004000A3010008A3010008A3010008A301000800
:10005000A3010008A3010008A3010008A3010008F0
:10006000A3010008A3010008A3010008A3010008E0
:10007000A3010008A3010008A3010008A3010008D0
:10008000A3010008A3010008A3010008A3010008C0
:10009000A3010008A3010008A3010008A3010008B0
:1000A000A3010008A3010008A3010008A3010008A0
:1000B00009110008A3010008A3010008A30100081A
:1000C000A3010008A3010008A3010008A301000880
:1000D000A3010008A3010008A3010008A301000870
:1000E000A3010008A3010008A301000800F002F822
:1000F00000F03AF80AA090E8000C82448344AAF188
:100100000107DA4501D100F02FF8AFF2090EBAE885
:100110000F0013F0010F18BFFB1A43F0010318473B
:10012000E411000004120000103A24BF78C878C11E
:10013000FAD8520724BF30C830C144BF04680C60ED
:10014000704700000023002400250026103A28BF35
:1001500078C1FBD8520728BF30C148BF0B60704739
:100160001FB51FBD10B510BD00F058F81146FFF7C0
:10017000F7FF01F0ABF800F076F803B4FFF7F2FFF9
:1001800003BC00F07DF8000009488047094800479B
:10019000FEE7FEE7FEE7FEE7FEE7FEE7FEE7FEE737
:1001A000FEE7FEE704480549054A064B7047000094
:1001B00005110008ED000008B8000020B806002076
:1001C000B8020020B80200204FF0000200B513462C
:1001D00094469646203922BFA0E80C50A0E80C5067
:1001E000B1F12001BFF4F7AF090728BFA0E80C5018
:1001F00048BF0CC05DF804EB890028BF40F8042B11
:1002000008BF704748BF20F8022B11F0804F18BF7D
:1002100000F8012B7047704770477047754600F033
:100220002BF8AE4605006946534620F00700854688
:1002300018B020B5FFF7B6FFBDE820404FF000062C
:100240004FF000074FF000084FF0000B21F00701BE
:10025000AC46ACE8C009ACE8C009ACE8C009ACE801
:10026000C0098D46704710B50446AFF300802046A4
:10027000BDE81040FFF781BF0048704758000020DC
:1002800001491820ABBEFEE7260002007047FEE7DA
:10029000704772B6FEE700002DE9F84FDFF8B8911D
:1002A0000024A9F1040B23460F2709F1040AABF13E
:1002B000040EC9E00125A5402A40AA427DD1674E1F
:1002C000D1F804C0ACEB0608B44532D014DCBCF164
:1002D000030F3AD009DCBCF1000F2AD0BCF1010FAA
:1002E0001CD0BCF1020F31D11DE0BCF1110F17D0B1
:1002F000BCF1120F2AD119E0B8F5881F19D006DC1D
:10030000B8F5803F15D0B8F5801F1FD111E0B8F5C2
:10031000001F0ED0B8F5041F18D10AE0CB6815E015
:10032000CB681B1D12E0CB6808330FE0CB680C33A1
:100330000CE08B682BB1012B4FF0080303D0456113
:1003400004E0042302E0056100E00023FF2A01D855
:10035000064601E000F104064FEA840501D9A5F143
:100360002005D6F8008007FA05FC28EA0C0803FAF5
:1003700005F548EA0508C6F800804D68ED0062D52D
:10038000374DAE6946F00106AE61AD6924F0030653
:1003900005F001050095334D06EB050CDCF808501F
:1003A000A607360F07FA06F825EA0805DFF8B88031
:1003B000404503D14FF0000817E044E0DFF8AC807F
:1003C000404502D14FF001080FE0DFF8A48040451E
:1003D00002D14FF0020808E0DFF89880404502D1D2
:1003E0004FF0030801E04FF0040808FA06F848EA65
:1003F0000508CCF808804D68D9F80060ED024D463C
:1004000001D5164300E096432E604D68DAF800608F
:10041000AD02554601D5164300E096432E604D6867
:10042000DBF80060AD035D4601D5164300E096435E
:100430002E604D68DEF80060ED03754601D5164369
:1004400000E096432E60641C0D682A46E5407FF468
:1004500031AFBDE8F88F0000080401400000111022
:10046000001002400000014000080140000C014063
:1004700000100140001401400AB1016170470904F5
:10048000FBE7000001488068704700000000002082
:1004900002488168027811448160704700000020A2
:1004A000074810B5016841F010010160032000F019
:1004B00075F80F2000F006F800F024F8002010BDB9
:1004C0000020024070B50D4D04464FF47A71287833
:1004D000B1FBF0F00A490968B1FBF0F000F0BCFA9A
:1004E00048B9102C07D200222146501E00F036F8E1
:1004F00000206C6070BD012070BD00000000002075
:100500000C0000200C4808B5816941F001018161AF
:10051000816901F001010091C16941F08051C1611F
:10052000C06900F0805000900448416821F0E0610B
:1005300041F00071416008BD001002400000014020
:10054000002809DB00F01F020121914040098000D2
:1005500000F1E020C0F8001170470000F0B40E4B2D
:100560001B680C46C3F30223C3F10705042D00D911
:100570000425191D072901D2002300E0DB1E0126F6
:1005800006FA05F1491E214099409E40761E16400C
:100590003143F0BC00F078BE0CED00E0064900F0FD
:1005A000070208684FF6FF03184040EA0220034A9A
:1005B00010430860704700000CED00E00000FA05F1
:1005C0002DE9F0470F46050061D0434E306800F03A
:1005D0000700B84209D2306820F007003843306085
:1005E000306800F00700B84251D128683B4C8107C1
:1005F00012D5400703D5606840F4E0606060287859
:10060000000703D5606840F4605060606068A968C6
:1006100020F0F000084360602878C00728D06868A0
:10062000012810D02168022810D0890700292EDA6D
:10063000616821F0030101436160FFF723FF8046F9
:1006400041F288390DE021688903EFE78901EDE780
:10065000FFF718FFA0EB0801494502D90320BDE8C8
:10066000F0876068696800F00C00B0EB810FEFD193
:10067000306800F00700B8420BD9306820F007005E
:1006800038433060306800F00700B84201D00120E4
:10069000E5E72878400705D56068E96820F4E06060
:1006A000084360602878000706D56068296920F44F
:1006B000605040EAC100606000F018F86168084AC4
:1006C000C1F30311515CC840064908600648006840
:1006D000FFF7F8FE0020C2E70020024000100240B1
:1006E000F41200080C000020040000200E4A51689B
:1006F0000E4801F00C03042B11D0082B0FD10C482D
:10070000C1F38343C903C05C0AD55168084AC1F3E9
:100710004041921E515C054A5043B0FBF1F07047D6
:1007200004494843704700000010024000127A005C
:10073000E412000800093D002DE9F84F040070D0D4
:100740002078C04DC00749D06868C0F381000128F7
:1007500007D06868C0F38100022809D16868C00327
:1007600006D52868800339D560680028E7D035E0D1
:100770006068B0F5803F0BD010B1B0F5A02F11D05C
:10078000286820F480302860286820F4802002E067
:10079000286840F480302860606890B1FFF772FEEE
:1007A00006460AE0286840F480202860F0E700BF91
:1007B000FFF768FE801B642873D828688003F7D58C
:1007C0000CE0FFF75FFE064605E000BFFFF75AFEAC
:1007D000801B6428F0D828688003F7D420789A4ECC
:1007E00080074FF001094FF0000839D5686810F014
:1007F0000C0F07D06868C0F38100022809D168682F
:10080000C00306D42868800714D52069012808D1C0
:1008100010E02069B0B1C6F80090FFF733FE07463C
:1008200005E00AE1FFF72EFEC01B0228C4D82868A5
:100830008007F7D52868616920F0F80040EAC10018
:1008400028600DE0C6F80080FFF71CFE074604E0B4
:10085000FFF718FEC01B022823D828688007F7D4AA
:10086000207800072CD57948A169D9B1C0F800904B
:10087000FFF708FE074604E0FFF704FEC01B02284E
:100880000FD8686A8007F7D571484FF4FA510068AD
:10089000B0FBF1F0009000BF0098411E0091FAD229
:1008A0000EE080E0C0F80080FFF7ECFD074604E0B2
:1008B000FFF7E8FDC01B022875D8686A8007F7D4E7
:1008C0002078400760D5E8690027C00008D4E869AF
:1008D00040F08050E861E869012700F08050009006
:1008E0005C480168C90513D40168834641F48071EE
:1008F0000160FFF7C7FD824606E000BFFFF7C2FDBB
:10090000A0EB0A0064284ED8DBF80000C005F5D53E
:10091000E06801280AD008B1052813D0286A20F021
:1009200001002862286A20F0040002E0286A40F0F2
:1009300001002862E06841F2883B98B1FFF7A2FD10
:1009400082460BE0286A40F004002862EEE700BF10
:10095000FFF798FDA0EB0A0159455AD8286A80078D
:10096000F6D50CE0FFF78EFD824605E0FFF78AFD25
:10097000A0EB0A0159454CD8286A8007F6D41FB16C
:10098000E86920F08050E861E06988B36968C1F3E4
:100990008101022944D00228C6F8608004D0FFF704
:1009A00071FD044638E034E0FFF76CFD074604E0D3
:1009B000FFF768FDC01B02282BD828688001F7D4F8
:1009C000206AB0F5803F05D16868A16820F4003046
:1009D00008436860D4E908010843696821F4741188
:1009E00008436860C6F86090FFF74CFD044606E0D7
:1009F00025E000BFFFF746FD001B022809D8286844
:100A00008001F7D51BE000BFFFF73CFD001B02286B
:100A100002D90320BDE8F88F28688001F4D40EE0E5
:100A20000128F7D06868226A00F48031914204D12D
:100A3000616A00F47010884201D00120EAE70020CA
:100A4000E8E70000001002400000424280044242F9
:100A50000C0000200070004010B5401EB0F1807FF7
:100A600001D3012010BD4FF0E02460610F21601719
:100A700000F00AFC0020A06107202061002010BDCA
:100A80007047704770B590F83C20012A26D00124A9
:100A900080F83C40022280F83D2003685A689D6837
:100AA00022F070060A6832435A600D4B02689A427F
:100AB00008D0B2F1804F05D00A4B9A4202D00A4BBF
:100AC0009A4204D1496825F080031943916080F867
:100AD0003D40002180F83C10084670BD022070BDEA
:100AE000002C0140000400400008004010B5040044
:100AF00003D094F83D0010B107E0012010BD0020A4
:100B000084F83C00204600F01FF8022084F83D00E5
:100B1000211D206800F0FEFA012084F8460084F8C8
:100B20003E0084F83F0084F8400084F8410084F8D7
:100B3000420084F8430084F8440084F8450084F8B7
:100B40003D00002010BD000000B585B000210091DF
:100B50000191029103910068B0F1804F28D11548AE
:100B6000C16941F00101C161C16901F00101049154
:100B7000816941F0040181618069694600F00400E7
:100B800004904FF4004000900B48FFF785FB0B48A2
:100B9000416821F4407141F0E06141F480714160AD
:100BA000002211461C20FFF7D9FC1C20FFF7C8FCCF
:100BB00005B000BD001002400008014000000140E7
:100BC00070B5044690F83C000025012817D0012696
:100BD00084F83C60022084F83D002068826822F09E
:100BE000770222F47F4282600868502838D00DDCFA
:100BF00020284FD005DC90B3102811D14AE0022004
:100C000070BD302846D040280AD13BE060282FD064
:100C100070280DD0B0F5805F03D0B0F5005F12D022
:100C2000012584F83D60002084F83C00284670BD12
:100C3000CB68D1E90121206800F0A8FA206881681A
:100C400041F0770109E0CB68D1E90121206800F08B
:100C50009DFA2068816841F480418160E1E719E0F4
:100C6000CA684968206800F0A3FA5021206806E0AD
:100C7000CA684968206800F0D9FA6021206800F04D
:100C80008FFACEE7CA684968206800F091FA4021DF
:100C90002068F4E7226801461046F0E770472DE926
:100CA000F041054690F83C0000260C46012810D083
:100CB000012085F83C0072B1042A1CD0082A2CD0EF
:100CC0000C2A50D00126002085F83C003046BDE8B3
:100CD000F0810220FBE7D4E90012E368286800F005
:100CE00079FA2868816921F00C018161286881699D
:100CF000A26811430FE0D4E90012E368286800F00D
:100D0000A7FA2868816921F44061816128688169B6
:100D1000A26841EA02218161D5E72868D4E9002C64
:100D2000277B036A016A21F480710162C16923F49F
:100D3000007321F0030141EA0C0121F0F00C3907A6
:100D40004FF400774CEA116107EA02221A43C161AD
:100D500002622868C16921F00C01C1612868C1697B
:100D6000A26811432BE02868D4E90021E768036AF0
:100D7000D0F820C02CF4805CC0F820C0D0F81CC093
:100D800023F400532CF4407C4CEA012121F4704CF4
:100D90004FF6FF7101EA07314FF4005741EA0C01A9
:100DA00007EA02321A43C16102622868C16921F46C
:100DB0004061C1612868C169A26841EA0221C1613C
:100DC00081E710B5040003D094F83D0010B107E0AE
:100DD000012010BD002084F83C00204600F01EF8E1
:100DE000022084F83D00211D206800F093F90120C5
:100DF00084F8460084F83E0084F83F0084F8400000
:100E000084F8410084F8420084F8430084F84400E8
:100E100084F8450084F83D00002010BD70472DE99E
:100E2000F04104460068C66805694FF00007A9074D
:100E300013D5B10711D5F91E016101202077206873
:100E400080698007204602D0FFF728FF04E000F009
:100E50007EF8204600F07CF82777680716D57007E3
:100E600014D521686FF00400086102202077206803
:100E7000806910F4407F204602D0FFF70FFF04E0A6
:100E800000F065F8204600F063F82777280715D5AD
:100E9000300713D521686FF008000861042020771F
:100EA0002068C0698007204602D0FFF7F7FE04E003
:100EB00000F04DF8204600F04BF82777E80616D5ED
:100EC000F00614D521686FF0100008610820207723
:100ED0002068C06910F4407F204602D0FFF7DEFE94
:100EE00004E000F034F8204600F032F82777E807F5
:100EF00008D0F00706D021686FF001000861204695
:100F000000F027F8280608D5300606D521686FF0CE
:100F1000800008612046FFF7B3FD680608D570061B
:100F200006D521686FF040000861204600F012F8F5
:100F3000A8060AD5B00608D521686FF02000086120
:100F40002046BDE8F041FFF79CBDBDE8F081704749
:100F5000704770477047FEE72DE9F04385B00024E5
:100F600025480094019402940394816941F0100192
:100F70008161816901F010010491816941F00401EE
:100F80008161816901F004010491816941F00801E6
:100F900081618069DFF8648000F008004FF4C15679
:100FA0000490002231464046FFF766FADFF8509081
:100FB00047F20307002239464846FFF75DFA4FF42F
:100FC000804001258DE8310069460E48FFF764F93D
:100FD000CDE900650226CDE9024669464046FFF7A5
:100FE0005BF900970396CDE9015469464846FFF73F
:100FF00053F905B0BDE8F08300100240000801403D
:10100000000C01400010014010B58AB000242248B5
:101010000494059406940794089409940094019408
:1010200002944FF08041039401601721C0E901143C
:101030004FF6FF71C0E9031480218161FFF756FD6F
:1010400008B1FFF726F94FF48050049004A9124824
:10105000FFF7B6FD08B1FFF71CF90F48FFF7B1FE27
:1010600008B1FFF716F9089408A90B480994FFF78F
:1010700009FD08B1FFF70DF90120CDE90040029408
:101080000022694604480394FFF709FE002801D0B6
:10109000FFF7FFF80AB010BD10000020FEE7FEE7E2
:1010A00070477047FFF7F4B930B58FB02821684614
:1010B000FFF78AF814210AA8FFF786F80225012015
:1010C000049000951020059000244FF42010CDE9E5
:1010D000084007956846FFF72FFB08B172B6FEE798
:1010E0000F20CDE90A054FF48060CDE90C400121C5
:1010F0000AA80E94FFF764FA002801D072B6FEE742
:101100000FB030BD704700000148FFF788BE0000F7
:1011100010000020F0B50268194B1A4C1A4D4FF020
:101120008047984205D0B84203D0A04201D0A842DF
:1011300003D122F070064A683243984205D0B84283
:1011400003D0A04201D0A84203D122F44074CA685F
:1011500022434C6922F08002224302608A68C26204
:101160000A688262984201D10969016301214161E3
:101170000169C90703D0016921F001010161F0BDD6
:10118000002C0140000400400008004010B58468B5
:1011900042EA032224F47F440A432243826010BDC2
:1011A000826822F070020A4342F0070181607047B2
:1011B00010B5036A046A24F001040462846924F00F
:1011C000F00444EA021423F00A020A438461026232
:1011D00010BD000070B5056A046A24F001040462C1
:1011E00084690F4EB04208D0B0F1804F05D00D4E4B
:1011F000B04202D00C4EB04203D124F00304144399
:1012000001E044F001041A0724F0F00444EA1262F9
:1012100025F00A0301F00A0119438261016270BDE1
:10122000002C0140000400400008004010B5036A93
:10123000046A24F010040462846923F0A00324F4F7
:10124000704444EA023243EA01118261016210BD36
:1012500030B5046A056A25F010050562856925F434
:10126000407545EA022222F470454FF6FF7202EA09
:10127000033224F0A0032A43A02404EA01111943F5
:101280008261016230BDFEE70907090E002804DB18
:1012900000F1E02080F80014704700F00F0000F12A
:1012A000E02080F8141D704710B501221103054895
:1012B000FFF7E2F8BDE8104001224FF40261024856
:1012C000FFF7DAB8000C014000080140FFF7E8F82A
:1012D000FFF7EAFEFFF740FEFFF796FEFFF7E4FF99
:1012E000FCE7010202030405060708090A0B0C0DBE
:1012F0000E0F1010000000000000000001020304A7
:101300000607080924130008000000201000000050
:10131000280100083413000810000020A80600006F
:10132000440100080100000010000000000000005F
:0413300000127A002D
:04000005080000ED02
:00000001FF
