:020000040800F2
:10000000E8040020450100083D210008ED1F00081C
:10001000392100082D0A00082D25000800000000E5
:100020000000000000000000000000009D2100080A
:10003000310A0008000000006D210008D1210008ED
:100040005F0100085F0100085F0100085F01000810
:100050005F0100085F0100085F0100085F01000800
:100060005F0100085F0100085F0100085F010008F0
:100070005F0100085F0100085F0100085F010008E0
:100080005F0100085F010008310900085F010008F6
:100090005F0100085F0100085F0100085F010008C0
:1000A0005F0100085F0100085F0100085F010008B0
:1000B0005D2200085F0100085F0100085F01000881
:1000C0005F0100085F0100085F0100085F01000890
:1000D0005F0100085F0100085F0100085F01000880
:1000E0005F0100085F0100085F0100085F01000870
:1000F0005F0100085F0100085F0100085F01000860
:100100005F0100085F0100085F0100085F0100084F
:100110005F0100085F0100085F0100085F0100083F
:100120005F0100085F0100085F0100085F0100082F
:10013000DFF80CD000F0DAFB004800470126000889
:10014000E80400200648804706480047FEE7FEE72F
:10015000FEE7FEE7FEE7FEE7FEE7FEE7FEE7FEE777
:100160005922000831010008D2B201E000F8012B49
:10017000491EFBD270470022F6E710B513460A4627
:1001800004461946FFF7F0FF204610BDF0B480EAA0
:100190000102D40F4200B2EB410F02D202460846E0
:1001A00011464A0042D0C30DDDB2C1F3C752AD1AA9
:1001B000202D35DAC1F3160141F4000204B1524298
:1001C000C5F1200602FA06F12A411044B3EBD05FD4
:1001D00023D0C4B1012DA0EBC35009DCF0BC4FF01B
:1001E000004202EAC352DBB200F5000000F0C2BADE
:1001F000400000F1807000EBC350A0F1807040EA35
:10020000D170490009E0490841EAC071A0EBC35030
:1002100000F50000400800EBC350F0BC00F0A1BAAC
:100220006142012202EB4101001BF6E7F0BC70477E
:1002300081F00041AAE780F00040A7E780EA0102D0
:1002400010B502F00043400022D04A001FD0010E3A
:1002500001EB1261C0F35600C2F3560240F40000F5
:1002600042F40002A0FB022000047F39140400D0F5
:10027000401C50EA124001D44000491EC2B20C0694
:1002800004EBD010401C4008802A02D003E000207C
:1002900010BD20F00100002900DA0020184310BD35
:1002A0002DE9FE4F804681EA0300C00F0C46009006
:1002B00021F0004123F00045B8EB0200A94105D22E
:1002C0004046214690461C460B46024623F000401D
:1002D000104347D0270DC7F30A00C3F30A51029019
:1002E000401A019040286BDAC3F3130040F4801BDE
:1002F0000098924620B10023D2EB030A63EB0B0B6C
:1003000001985946C0F14002504600F009FA0646ED
:100310000D4650465946019A00F011FA10EB0800BC
:100320006141002487EA115284EAE7731A4340D0FE
:10033000009A62B3019A012A4FEA075215DC001BAA
:1003400061EB02014FF0004202EA0752CDE90042A0
:10035000001C41F5801132462B4600F048FA03B0EC
:10036000BDE8F08F40462146F9E7001B61EB020132
:10037000001C41F5801300185B412018A2F50017FE
:1003800047EB030140EAD570B6196D4111E06D08E5
:100390004FEA360645EAC0754FEA0752001B61EB8B
:1003A0000201001C41F5801149084FEA3000001994
:1003B000514132462B4603B0BDE8F04F00F008BA79
:1003C0000098012240000023D0EB020263EBE073AF
:1003D000009821464FEAE074B8EB000061EB04019D
:1003E000E9E783F000435BE781F0004158E72DE93E
:1003F000FE4F81EA030404F0004421F00041009420
:100400004FF0000B23F0004350EA01045ED052EAA3
:1004100003045BD0C3F30A54C1F30A552C44A4F27D
:10042000F3340194A0FB0254C1F3130141F4801191
:10043000C3F3130343F4801301FB024400FB034E98
:10044000840A970A44EA815447EA8357A4FB076861
:1004500002958D0A05FB07854FEA932C04FB0C548B
:100460002705029D4FEA065847EA1637B5EB0805FF
:100470006EEB070C870E920E47EA811742EA831251
:10048000A7FB0201B6EB0B0164EB00042B0D43EA62
:100490000C335E1844EB1C50DA465146E7FB020170
:1004A000C5F313044FEA0B3343EA14534FEA043203
:1004B000019C43EA0603A4F10C040294009CCDE9DC
:1004C00000B400F094F903B0BDE8F08F00200146BD
:1004D000F9E72DE9F04D81EA030404F0004B21F027
:1004E000004514464FF0000A23F0004150EA05028F
:1004F00020D054EA01021DD0C5F30A570246C5F3C5
:100500001303C1F31300C1F30A5640F4801543F4FA
:100510008013A7EB0608101BD64608F2FD3873EBD4
:10052000050002D308F1010801E092185B41B8F11F
:10053000000F03DA00200146BDE8F08D00204FF4E3
:100540008011064684460EE0171B73EB050705D3A2
:10055000121B63EB050306434CEA010C49084FEA02
:10056000300092185B4150EA0107EDD152EA0300D6
:1005700012D082EA040083EA0501084305D0101B6B
:10058000AB4106D20122002306E000224FF00043D7
:1005900002E06FF0010253101AEB06004CEB085119
:1005A00010EB0A0041EB0B01BDE8F04D00F010B973
:1005B000002801DBC0F10040002901DBC1F100414E
:1005C000814201D20120704700207047002801DBE2
:1005D000C0F10040002901DBC1F10041814201D995
:1005E000012070470020704796230022114600F03A
:1005F000C1B80EB540F2334102910021CDE900119E
:100600000A460B4600F0F3F803B000BD20F00040AE
:10061000C10DC0F3160040F400007F2901DA00206C
:100620007047962903DCC1F19601C840704796399E
:100630008840704700F0004230F000400AD0C10D01
:1006400001F56071C0F3160042EA0151C20840078B
:100650001143704700200146704701F0004330B459
:1006600021F0004150EA010206D00A0DA2F56072A5
:10067000C1F31301002A02DC30BC00207047440F94
:1006800044EAC104C100E01830BC00EBC25000F0E5
:1006900068B830B50B46014600202022012409E04D
:1006A00021FA02F59D4205D303FA02F5491B04FA2B
:1006B00002F52844151EA2F10102F1DC30BD2DE93E
:1006C000F05F0546002092469B46884606468146D6
:1006D00040241BE0284641464746224600F018F9D0
:1006E00053465A46C01A914110D311461846224625
:1006F00000F016F82D1A67EB01084F46224601203C
:10070000002100F00DF817EB00094E41201EA4F166
:100710000104DFDC484631462A464346BDE8F09FE7
:10072000202A04DB203A00FA02F1002070479140B1
:10073000C2F1200320FA03F3194390407047202AA6
:1007400006DBCB17203A41FA02F043EAE07306E0F9
:1007500041FA02F3D040C2F1200291400843194609
:1007600070470029A8BF7047401C490008BF20F00F
:100770000100704710B4B0FA80FC00FA0CF050EAA7
:10078000010404BF10BC704749B1CCF1200421FA28
:1007900004F411FA0CF118BF012121430843A3EB23
:1007A0000C01CB1D4FEA00614FEA102042BF002030
:1007B00010BC704700EBC35010440029A4BF10BC0C
:1007C0007047401C490008BF20F0010010BC704772
:1007D00010B5141E73F1000408DA401C41F1000149
:1007E00092185B411A4301D120F0010010BD2DE9A0
:1007F000F04D92469B4611B1B1FA81F202E0B0FA97
:1008000080F220329046FFF78BFF04460F4640EA05
:100810000A0041EA0B0153465A46084313D01146D9
:1008200053EA010019D0C8F14002504600F070F8B8
:1008300005460E46504659464246FFF771FF0843AB
:1008400005D0012004E020463946BDE8F08D0020A7
:10085000054346EAE0762C4337430A986305E40AE9
:10086000A0EB08000022FD0A44EA47540A3002D5F2
:1008700000200146E9E7010510196941DDE9084555
:1008800000196941BDE8F04DA2E7C1F30A52C1F376
:10089000130140F2FF3341F480119A4202DA002042
:1008A0000146704740F233439A42A2F2334202DCDF
:1008B000524200F02DB8FFF733BF000030B5041EE0
:1008C00071F1000404DB4FF00044404264EB01018D
:1008D000141E73F1000405DB1C464FF00043524226
:1008E00063EB0403994208BF904230BD064C074DAC
:1008F00006E0E06840F0010394E8070098471034F0
:10090000AC42F6D3FFF718FC283000084830000846
:10091000202A04DB203A21FA02F00021704721FA54
:1009200002F3D040C2F120029140084319467047BB
:1009300080B540F21C00C2F2000000F08BF980BDCF
:10094000B0B5044600688168C90709D0816821F004
:100950000101816000F03AFC21688968C90701D172
:100960000020B0BD054603E020688068C007F7D0CE
:1009700000F02CFC401B0328F6D320688068C007D9
:10098000F2D0A06A40F01000A062E06A40F00100DE
:10099000E0620120B0BD0000B0B582B00446002086
:1009A000019021688A68D2073DD1886840F0010033
:1009B000886040F20400C2F2000000684DF68361D6
:1009C000C4F21B31A0FB0101880C00BF019001980B
:1009D00010B101980138F9E700F0F8FB2168896847
:1009E000C9071CD1054603E020688068C00719D1FB
:1009F00000F0ECFB401B0328F6D320688068C0079A
:100A0000F2D1A06A40F01000A062E06A40F001005C
:100A1000E062002084F82400012002B0B0BD002074
:100A200002B0B0BD002002B0B0BD0000FEE7000083
:100A300070470000EFF3108072B600BFFEE70000C1
:100A400070B582B004460020019094F8240001287B
:100A500001D1022568E0012084F824002046FFF738
:100A60006FFF2046FFF798FF0546002859D1A06A7E
:100A700041F2021188430230A06240F20400C2F247
:100A800000000668022000F02BFCB6FBF0F04000EE
:100A90000190019810B101980138F9E72068816848
:100AA00041F00801816000F091FB216851F8082FA6
:100AB000120711D5064603E020688168090709D5A9
:100AC00000F084FB801B0B28F6D3206880680007A9
:100AD000F2D51EE000F10801086840F0040008604B
:100AE00000F074FB21688968490703D401206FF086
:100AF000030112E0064603E0206880684007F5D550
:100B000000F064FB801B0B28F6D320688068400748
:100B1000F2D5012510206FF01201A26A114008439E
:100B2000A062002084F82400284602B070BD0000B6
:100B300070470000B0B581B00022009290F82420E8
:100B4000012A01D1022179E04A680123062A80F8AE
:100B5000243005D803686FF0040C03F1340E0AE06A
:100B600003680C2A87BF03F12C0E6FF0400C03F1D1
:100B7000300E6FF0220C02EB8202DEF8005062446D
:100B80001F230C68934025EA030304FA02F21A4378
:100B9000CEF80020D1F800E002680EEB4E051024DC
:100BA000BEF1090F88BF1E3D88BF0C2452F804C057
:100BB00007238968AB402CEA0303A940194311516C
:100BC0002EF001014FF0000C10294FF0000133D13D
:100BD000016842F20042C4F20102914205D0816AEA
:100BE00041F020018162012126E09268120222D4A4
:100BF0008A68BEF1100F42F400028A601BD140F2F5
:100C00000401C2F2000109684DF68362C4F21B328E
:100C1000A1FB0212910C01EB8101490000910099A6
:100C200049B100BF009901390091009900294FF0A6
:100C30000001F7D100E0002180F824C0084601B08F
:100C4000B0BD000070470000806A70470068C06C4B
:100C50007047000070B50446006806684568B10733
:100C600027D515F0200124D0A16AC90603D4A16AB2
:100C700041F40071A162816801F46021B1F5602F37
:100C800010D1217B71B9416821F020014160A06A37
:100C900020F48070A062A06AC00403D4A06A40F06F
:100CA0000100A0622046FFF7CDFF20686FF012011F
:100CB0000160700733D515F0800030D0A06AC006FF
:100CC00003D4A06A40F40050A0622068816801F457
:100CD000E041B1F5E04F0FD1416821F08001416062
:100CE000A06A20F48050A062A06AC00510D4A06A57
:100CF00040F00100A0620BE04168490508D481681A
:100D000001F46021B1F5602F02D1217B0029E3D0ED
:100D10002046FFF70DFF20686FF00C010160F0071F
:100D200018BF15F0400000D170BDA06A40F48030BB
:100D3000A062204600F0A4F820686FF00101016075
:100D400070BD0000002804BF012070472DE9F0416C
:100D50008046044658F8280F30B90020E06284F835
:100D60002400204600F08EF82046FFF7E9FDA26A35
:100D7000A16A002808BF12F0100206D041F010014D
:100D80000120C8F80010BDE8F08141F20212914341
:100D90000231A162D4E90013E66981F08045A268BE
:100DA00085F49E3586F440272F4308BF4FF4002674
:100DB00046EA0307531EB3FA83F35E091346B2F5FE
:100DC000807F18BF3302267D257B012E47EA450C24
:100DD00011D145B1A76A47F02007A762E76A47F03B
:100DE0000107E76207E0A7694EF60006CFF6FF7637
:100DF00006EB47373B434F68B2F5807F27F46947DE
:100E000043EA07034B608B684FF2FD77CFF6E1773B
:100E100003EA070343EA0C038B6001D0012A06D1E1
:100E200022690023CFF6F07303EB025200E00022A8
:100E3000CB6A23F470031A43CA62896840F6FE62E3
:100E4000CFF61F721140614509D10021E162A16A0C
:100E5000012262F30101C8F80010BDE8F081A06A28
:100E600040F0100020F00200A06254F82C0F40F077
:100E700001010120A046C8F80010BDE8F081000083
:100E80007047000080B586B0014641F20000C4F210
:100E90000100096800F5A05291424FF00001CDE930
:100EA0000411CDE9021101D006B080BD41F2180154
:100EB000C4F202010A6842F400720A600A6802F48D
:100EC00000720192019A0A6842F010020A600968F1
:100ED00001F0100101910199012102910321039177
:100EE00002A900F07FF812200021002200F0E4F9AE
:100EF000122000F0DDF906B080BD000010B50446F8
:100F000090F82400012804BF022010BD012084F8BD
:100F100024002046FFF740FD18B1002184F824107A
:100F200010BD42F2044C2168A26AC4F2010C40F6E2
:100F300001739A430CF57F7E02F580727145A262BF
:100F400007D0A26A22F48012A2624A68520519D41C
:100F50001DE0DCF8002012F4702FF2D0A26A42F6F5
:100F60000003C4F2010342F480129942A26205D048
:100F700042F20042C4F20102914208D1DCF80020A2
:100F8000520504D5A26A012363F30D32A262A36A5B
:100F90000022DB044FF0000344BFE36A23F00603A2
:100FA000E36284F824206FF002020A604A6842F08B
:100FB00020024A608A6802F46022B2F5602F0BD1E9
:100FC000714504D08A6842F4A0028A6010BDDCF842
:100FD000002012F4702FF5D08A6842F480128A60E3
:100FE00010BD00002DE9F04F83B00C68002C00F01C
:100FF000EA80A0F18042A2F5843240F2004E4FEA2E
:10100000B22241F60047C4F2010E0092C4F2010779
:10101000062200254FF001094FF0000B4FF0000AA7
:10102000B84208BF0522019209E000BF0C680BF12D
:10103000010B34FA0BF205F1040500F0C48009FA43
:101040000BF814EA080CF1D04C684FF6FF72C1F2AD
:101050001002944210DC122C50D8DFE804F0330A5E
:1010600041454F4F4F4F4F4F4F4F4F4F4F4F4F48AF
:101070004C00D1F80CA041E04FF6FF72C1F2210202
:1010800094420FDC0022C1F2110294421AD00022D5
:10109000C1F21202944215D00022C1F22102944200
:1010A00010D02BE00022C1F2220294420AD000228A
:1010B000C1F23102944205D00022C1F232029442C0
:1010C0001CD100BF8C6844B1012C14BFC0F814803F
:1010D000C0F810804FF0080A10E04FF0040A0DE04D
:1010E000CC6804F1080A09E04FF0000A06E0CC6879
:1010F00004F1040A02E0CC6804F10C0A2C4607460D
:10110000BCF5807F24BF203C04373A680F2303FAE4
:1011100004F6B2430AFA04F422433A60CA79D206CA
:101120007FF584AF41F21804C4F2020422684FF63E
:10113000084842F0010222602268CFF6FF7802F0F0
:1011400001020292029A2BF00302724452F8084004
:1011500005F00C0603FA06F7009BBC43019F052B24
:1011600038BF1F4607FA06F6344342F808404C6879
:1011700040F20C46E202DEF8082054BF22EA0C07D7
:1011800042EA0C07C4F20106A202CEF808703268E7
:1011900054BF22EA0C0742EA0C07A2033760DEF8CC
:1011A000042054BF22EA0C0742EA0C07E203CEF8FF
:1011B0000470DEF8002054BF22EA0C0242EA0C025E
:1011C000CEF8002032E703B0BDE8F08F40F2E00037
:1011D000C2F200000068704740F2080040F2E001EF
:1011E000C2F20000C2F2000100780A6810440860F0
:1011F0007047000080B542F20000C4F202000168AE
:1012000041F010010160032000F066F80F2000F0AB
:1012100005F800F02BF8002080BD0000B0B540F2CA
:101220000802C2F2000240F204011278C2F2000188
:101230004FF47A730968B3FBF2F20446B1FBF2F1A2
:10124000084600F0F3FB0F2C4FF001050CD858B9FD
:101250004FF0FF3021460022002500F02DF840F22B
:101260000C00C2F2000004602846B0BD82B041F21A
:101270001800C4F202000168022241F0010101607D
:10128000016801F0010101910199416841F080512B
:101290004160406800F08050009000980420C4F243
:1012A0000100016862F31A61016002B0704700003A
:1012B00080B501F03DF980BD70B514460D46064677
:1012C00001F046F92946224600F03AFF0146304631
:1012D00001F046F970BD000080B501F053F980BD02
:1012E00080B5411E0F294FF0000043D8DFE801F020
:1012F0000B34420842424208424242424242424386
:1013000000F0DEF980BD41F20400C4F20200C169C0
:1013100040F202320A40B2F5817F04BF4FF4004030
:1013200080BD01F44071B1F5407F0DD0B1F5007F73
:1013300051D1026A920744BF49F6404080BDB1F5E1
:10134000407F1CBF002080BD50F8040C4FF22441A8
:10135000800301EAE07080BD00F0A0F941F20401D1
:10136000C4F2020109680222C1F3813102EB41019A
:10137000B0FBF1F080BD41F20401C4F202010A6841
:1013800051F8040CC0015CBF002080BDC2F3834053
:1013900012A3185CD20305D440F60012C0F23D023D
:1013A00050430BE00A6811A3C2F340429A5C41F239
:1013B0000023C0F27A03B3FBF2F2504309684902FA
:1013C00048BF80BD4AF6AB214000CAF6AA21A0FB67
:1013D0000101480880BD002080BD00BF0203040554
:1013E000060708090A0B0C0D0E0F10100102000071
:1013F0002DE9F04182B00446007841F21C06C00796
:10140000C4F202064AD0306810F0805808D1306823
:1014100040F080503060306800F0805001900198BA
:1014200047F20007C4F200073868C00512D43868D4
:1014300040F480703860FFF7C9FE05463868C00583
:1014400008D4FFF7C3FE401B6428F7D9032002B07D
:10145000BDE8F081706810F4407012D0616801F44A
:10146000407188420DD0706840F24042C4F242227E
:10147000012320F4407113600023C00713607160E2
:1014800029D17068616820F440700843B8F1000FFA
:10149000706003D1306820F0805030602068810790
:1014A00007D556F8181CA26821F44041114346F8AC
:1014B000181CC00603D4002002B0BDE8F08156F825
:1014C000180C616920F48000084346F8180C0020CD
:1014D00002B0BDE8F081FFF779FE054641F288379A
:1014E00070688007CDD4FFF771FE401BB8424FF003
:1014F0000300F5D9ECE700002DE9F04381B00028A6
:1015000000F0898042F20008C4F202080446D8F8CC
:1015100000000D4600F0070088420CD2D8F8000009
:1015200020F007002843C8F80000D8F8000000F0B9
:101530000700A8426FD1206841F204098107C4F274
:10154000020917D5410705D5D9F8001041F4E0612B
:10155000C9F80010010705D5D9F8001041F4605111
:10156000C9F80010D9F80010A26821F0F001114369
:10157000C9F80010C00745D1D8F8000000F00700F6
:10158000A8420CD9D8F8000020F007002843C8F87A
:101590000000D8F8000000F00700A8423BD1206806
:1015A000410707D5D9F80010E26821F4E061114342
:1015B000C9F80010000708D5D9F80000216920F407
:1015C000605040EAC100C9F8000000F079F8D9F88D
:1015D000001043F20E02C1F30311C0F60002515C89
:1015E00040F2040220FA01F140F20C00C2F20000C5
:1015F0000068C2F200021160FFF710FE002001B087
:10160000BDE8F0836068022809D0012829D159F883
:10161000041C890307D4012001B0BDE8F08359F808
:10162000041C8901F7D5D9F8001021F00301084303
:10163000C9F80000FFF7CAFD064641F2883700BF2F
:10164000D9F80000616800F00C00B0EB810F93D076
:10165000FFF7BCFD801BB842F2D9032001B0BDE802
:10166000F08359F8041C8907D5D5DCE740F2040063
:10167000C2F200000068704780B5FFF7F7FF41F243
:101680000401C4F20201096843F21E02C1F30221FF
:10169000C0F60002515CC84080BD000080B5FFF775
:1016A000E5FF41F20401C4F20201096843F21E029F
:1016B000C1F3C221C0F60002515CC84080BD0000E9
:1016C00041F2040CC4F2020CDCF8003003F00C0010
:1016D000082841F20020C0F27A0018BF7047C3F317
:1016E00083420AA18A5CD90305D440F60010C0F2F7
:1016F0003D0050437047DCF8001008A3C1F340419F
:10170000595C5043B0FBF1F0704700BF0203040581
:10171000060708090A0B0C0D0E0F1010010200003D
:101720002DE9F04182B0002800F0C4800446007822
:1017300041F20006C007C4F2020643D0706800F010
:101740000C00042817D0706800F00C00082802D1A3
:101750007068C0030FD465682DB1B5F5A02F10D007
:10176000B5F5803F11D0306820F4803030603068AB
:1017700020F480200CE03068800323D5606808BB2B
:1017800098E0306840F480203060306840F4803069
:101790003060FFF71BFD002D054610D03068800338
:1017A00010D4FFF713FD401B6428F7D904E100BFF4
:1017B000FFF70CFD401B64284FF0030077D830681A
:1017C0008003F5D42078800718D5706810F00C0FCE
:1017D00007D0706800F00C00082826D17068C0039C
:1017E00023D43068800702D52069012862D130688F
:1017F000616920F0F80040EAC100306020780007FD
:101800003DD5A06938B30020C4F242200121C0F8C0
:101810008014FFF7DBFC0546706A80072DD4FFF7C4
:10182000D5FC401B0228F7D9C6E02069002840F209
:101830000000C4F2422000F0968001210160FFF711
:10184000C5FC054630688007D1D4FFF7BFFC401BBC
:101850000228F7D9B0E00020C4F242200021C0F8ED
:101860008014FFF7B3FC0546706A800707D5FFF7C1
:10187000ADFC401B0228F7D99EE000F079FC2078EF
:1018800040071BD4E5698DB1706800F00C00082892
:1018900047D1012D0ED07068216A00F480328A424F
:1018A00008D1616A00F47010884203D1002002B0B0
:1018B000BDE8F081012002B0BDE8F081F06910F0D0
:1018C000805808D1F06940F08050F061F06900F074
:1018D00080500190019847F20007C4F20007386871
:1018E000C00510D4386840F480703860FFF76EFC93
:1018F000054600BF3868C00505D4FFF767FC401BEC
:101900006428F7D958E0E5681DB1052D3CD0012DBC
:101910003ED0306A20F001003062306A20F00400CE
:1019200039E00027C4F2422700203866FFF74EFC5A
:10193000022D05460CD100BF3068800154D5FFF759
:1019400045FC401B02284FF00300F5D9AFE700BF6C
:1019500030688001AAD5FFF739FC401B02284FF000
:101960000300F5D9A3E700210160FFF72FFC05462E
:10197000306880077FF542AFFFF728FC401B022844
:101980004FF00300F4D992E7306A40F0040030626F
:10199000306A40F001003062FFF718FC002D054668
:1019A00041F2883714D000BF306A800713D4FFF7A4
:1019B0000DFC401BB842F7D9032002B0BDE8F0810E
:1019C000FFF704FC401BB8424FF003003FF66FAF37
:1019D000306A8007F4D4B8F1000F7FF453AFF06998
:1019E00020F08050F0614DE7206AB0F5803F05D1CE
:1019F0007168A26821F40031114371607168626AF4
:101A000021F4741110430843706001203866FFF719
:101A1000DDFB0446306880013FF548AFFFF7D6FB99
:101A2000001B02284FF00300F4D940E780B500F016
:101A3000B7FB80BD704700007047000010B590F8FC
:101A40003C20012A4FF0020241D0012380F83C30B3
:101A500080F83D200268D2F804E0D2F808C00C6893
:101A60002EF07003234340F6FF34C4F20004A24278
:101A700053600FDCB2F1804F1ED040F20043C4F23D
:101A800000039A4218D040F60003C4F200039A42C1
:101A900012D016E040F60043C4F200039A420BD085
:101AA00043F20043C4F201039A4205D042F60043D8
:101AB000C4F201039A4204D149682CF0800319430F
:101AC00091600121002280F83D1080F83C201046F2
:101AD00010BD0000002804BF0120704710B5044667
:101AE00090F83D0028B9002084F83C00204600F022
:101AF0001FF8022084F83D002068211D00F0B6FB8D
:101B0000012084F8460084F83E0084F83F0084F801
:101B1000400084F8410084F8420084F8430084F8CF
:101B2000440084F8450084F83D00002010BD00000A
:101B300080B582B00068B0F1804F01D002B080BDA6
:101B400041F21C00C4F202000168002241F00101D0
:101B500001600068002100F00100019001981C2044
:101B6000FFF7AAFB1C20FFF7A3FB02B080BD00001B
:101B700090F83D1001291CBF01207047022180F818
:101B80003D10006840F6FF32C168C4F20002904286
:101B900041F00101C1600FDCB0F1804F1ED040F276
:101BA0000041C4F20001884218D040F60001C4F29E
:101BB0000001884212D018E040F60041C4F2000152
:101BC00088420BD043F20041C4F20101884205D0A3
:101BD00042F60041C4F20101884206D1816801F059
:101BE0000701062904BF00207047016841F0010188
:101BF000016000207047000010B5044690F83C00DA
:101C000001284FF0020008BF10BD012284F83C20DB
:101C100084F83D0020684FF6777382689A438260AB
:101C20000A684F2A0FDC1F2A22DD202A23D0302AFF
:101C300021D0402A4DD14B68CA68194600F09EFB5E
:101C4000206840213BE06F2A17DDB2F5005F20D00D
:101C5000B2F5805F2AD0702A3BD1D1E9012CCB6844
:101C6000614600F077FB2068816841F077011AE057
:101C70000AB1102A2DD1114621E0502A18D0602A2D
:101C800027D14B68CA68194600F08AFB206860219A
:101C900015E0D1E9012CCB68614600F05BFB2068C0
:101CA000816841F48041816000200BE0002009E060
:101CB0004B68CA68194600F061FB2068502100F0AB
:101CC00055FB0020012184F83D10002184F83C10D0
:101CD00010BD0120F6E7000070470000B0B50446D3
:101CE0000068C168026902EA0105A9071DD46807F6
:101CF00031D4280747D4E8065CD4E80773D1280616
:101D00007BD4680606D520686FF04001016120464B
:101D100000F0A0F8A80658BFB0BD20686FF0200101
:101D200001612046FFF788FEB0BD6FF0020101613E
:101D3000012121778069800703D02046FFF7CCFF7F
:101D400005E0204600F064F8204600F063F800202B
:101D500020776807CDD520686FF00401016102216A
:101D60002177806910F4407F03D02046FFF7B4FF4D
:101D700005E0204600F04CF8204600F04BF800202B
:101D800020772807B7D520686FF00801016104218A
:101D90002177C069800703D02046FFF79DFF05E04B
:101DA000204600F035F8204600F034F80020207777
:101DB000E806A2D520686FF01001016108212177A3
:101DC000C06910F4407F03D02046FFF785FF05E08F
:101DD000204600F01DF8204600F01CF80020207777
:101DE000E8073FF48CAF20686FF0010101612046E5
:101DF00000F012F828067FF584AF20686FF08001AC
:101E000001612046FFF716FE68067FF583AF7AE78B
:101E1000704700007047000010B50068B0F1804FB7
:101E200018BF10BD40F21004C2F20004204600F0BA
:101E3000FDFB6068FEF7FEFB024602A00B4600F0C9
:101E40006DFC10BD626174746572793A20252E3282
:101E5000660A000070470000002804BF0120704798
:101E600010B5044690F8410028B9002084F84000DD
:101E7000204600F021F8242084F841002068C16841
:101E800021F40051C160204600F0C4FA20680169C5
:101E900021F490410161416921F02A014161C16849
:101EA00041F40051C16000202021606484F8411099
:101EB00084F84210606310BD70B586B040F600042F
:101EC000C4F20104006804F54051002688420596DA
:101ED000CDE90366029601D006B070BD41F218004C
:101EE000C4F20200016802AD41F480410160016862
:101EF00001F4804101910199016841F00401016000
:101F00000068294600F00400019001984FF4007029
:101F1000029002200390032005902046FFF762F80C
:101F20004FF48060CDE90206204629460496FFF76B
:101F300059F806B070BD00002DE9F041044690F854
:101F4000410020281CBF0220BDE8F0810E46002978
:101F50004FF0010042D01746002A08BFBDE8F081CB
:101F60004FF0000821201D46C4F8448084F8410049
:101F7000FFF72CF9A784E784A1680746B1F5805FD5
:101F80000DD12069002814BF3046B046064606E051
:101F900016F8010B21684860E08C0138E084E08C81
:101FA00080B1204680213A462B4600F07BFAB8B932
:101FB000002EEDD138F8020B21686FF35F204860E6
:101FC0000026E9E7204640213A462B4600F06AFA0F
:101FD000202184F84110002818BF0320BDE8F081BB
:101FE000202084F841000320BDE8F081FEE70000D6
:101FF00010B584B040F21C0042F200420021C2F24F
:102000000000C4F201024FF4602301240391CDE9E2
:10201000011101730175C361C0E900218160046190
:10202000FEF790FE002818BFFEF704FD0A20CDE958
:1020300001040720039040F21C00C2F2000001A935
:10204000FEF778FD002818BFFEF7F4FC04B010BDC1
:1020500082B041F21800C4F20200016841F01001A0
:102060000160016801F0100101910199016841F0DE
:1020700004010160006800F004000090009802B0C4
:102080007047000080B586B040F24C000021C2F2DB
:1020900000004FF0804241F61F4342F20F7CCDE931
:1020A0000411CDE90211CDE90011C0E90023C0E916
:1020B000021C01618161FFF70DFD002818BFFEF7CA
:1020C000B9FC4FF48050029040F24C00C2F2000084
:1020D00002A9FFF791FD002818BFFEF7ABFC002016
:1020E000CDE9000040F24C00C2F200006946FFF763
:1020F000A5FC002818BFFEF79DFC06B080BD0000BF
:1021000080B540F2940043F60001C2F20000C4F230
:10211000010100234FF00C0C4FF4E13280E80E0077
:10212000C0E90333C0E905C3C361FFF795FE00288A
:1021300018BFFEF77FFC80BDFEE70000FEE7000051
:1021400000F0070080F00703042B28BF04234FF0A2
:10215000FF3C03380CFA03F338BF00209943814059
:102160000CFA00F022EA00000843704770470000B4
:1021700081B040F20400C2F20000006844F6D3517E
:10218000C1F26201A0FB0101480A009000BF009863
:10219000411E00280091F9D101B07047704700003E
:1021A000B0B501380024B4EB106F1CBF0120B0BDE6
:1021B0004EF21005CEF2000568604FF0FF300F219F
:1021C00000F0CEF90720AC6028602046B0BD0000CA
:1021D00080B5FFF701F880BD70B596B00CAC204615
:1021E0002821FDF7C8FF01200C9010904FF4E0105B
:1021F00000254FF480310226159020460B95CDE93D
:102200000955CDE90755CDE90555CDE90355CDE98A
:102210000155CDE90D15CDE91361FFF781FAC0B97C
:102220000F20CDE907064FF48060CDE90A0507A825
:1022300002210995FFF760F958B9022001904FF487
:102240000040039001A8FFF7D3F8002804BF16B0A0
:1022500070BDFEF7EFFB00007047000080B540F254
:102260004C00C2F20000FFF739FD80BD10B540F60A
:10227000FF3E0368C4F2000E43F2004C7045C4F206
:10228000010C20DCB0F1804F2BD040F20042C4F2B0
:102290000002904225D040F60002C4F200029042B3
:1022A0001FD0704523DCB0F1804F2ED040F20042A9
:1022B000C4F20002904228D040F60002C4F20002AC
:1022C000904222D025E040F60042C4F20002904243
:1022D00007D0604505D042F60042C4F201029042A8
:1022E000DFD14A6823F0700313437045DBDD40F60D
:1022F0000042C4F20002904207D0604505D042F689
:102300000042C4F20102904203D1CA6823F4407330
:10231000134323F080024B69D1F800E08C681A4324
:1023200060450260C462C0F828E005D042F6004271
:10233000C4F20102904201D10969016301214161A6
:102340000169C90708BF10BD016921F001010161E0
:1023500010BD0000D0F808C011432CF47F4C41EAB6
:10236000032141EA0C01816070470000826822F07D
:102370007002114341F0070181607047D0F820C01E
:10238000036A23F001030362836923F0F00343EA45
:1023900002122CF00A0319438261016270470000A7
:1023A000D0F820C0036A23F010030362836923F48A
:1023B000704343EA02322CF0A00343EA0111826128
:1023C00001627047016851E8031F026821F49071AF
:1023D00042E80313002BF5D1016851E8051F02689C
:1023E00021F0010142E80513002BF5D1016B012911
:1023F0000AD100BF016851E8031F026821F01001F3
:1024000042E80313002BF5D1202180F8421000216F
:102410000163704710B504460068D4E902C223691D
:10242000016921F4405111430161616943EA0C02E1
:102430001143C26841F20C639A431143C160416980
:10244000A26921F44071114343F60002C4F2010273
:102450009042416102D0FFF70FF901E0FFF71EF94A
:102460006268192148439100B0FBF1F048F21F5116
:10247000C5F2EB11A0FB01235A096FF0630302FBC5
:102480000300322303EB0010A0FB0101F02303EA59
:102490005113206803EB0212C1F343111144816010
:1024A00010BD00002DE9F04182B0044600680068CC
:1024B0000840884203D1002002B0BDE8F0811D46EB
:1024C0000E4690465F1C04E0206800683040B04231
:1024D00028D0002FF8D0FEF779FE01464FF0030018
:1024E0000DB3A1EB0801A9421DD82068C1684907B6
:1024F000EAD5402EE8D0802EE6D001680907E3D562
:1025000000250195016801914068019001982046DD
:10251000FFF758FF0820606484F84050012002B0A3
:10252000BDE8F081002002B0BDE8F081FEE70000C8
:10253000002848BF704700F01F01012202FA01F194
:102540004EF200124009CEF2000242F8201070470D
:102550004EF60C50CEF200000068C0F30220704727
:102560004EF6145300F00F02CEF2000309011A4494
:1025700000F16043B0F1FF3FC8BF03F56442117042
:10258000704700004EF60C51CEF200010A684FF67B
:10259000FF031A4060F30A2242F0806040F0FD70B1
:1025A0000860704780B582B0019040F29400C2F29A
:1025B000000001A901224FF47A73FFF7BDFC0198D6
:1025C00002B080BDB0B5FEF70FF84FF07A51FDF7BD
:1025D00035FE40F2DC05C2F20005296804460846D3
:1025E000FEF702F84FF07D51FDF728FE0146204628
:1025F000FDF7CCFDFEF70AF8014680B22960B0BDB8
:10260000FEF7F8FDFFF7E8FDFFF722FDFFF7F0FC0E
:10261000FFF776FDFFF736FD00F074F840F24C004E
:10262000C2F20000FFF7A4FAFEE7000070B504460E
:1026300040F21C00C2F20000FEF706FB800558BF06
:1026400070BD40F21C05C2F200052846FEF7FEFAF6
:10265000208080B2FFF7B6FF2080FDF7CAFF46F268
:102660006663C4F20A034FF06632FDF7C0FE002332
:10267000C3F630730022FDF7BAFEFDF7EEFFFDF75B
:10268000D9FF0023C4F23E030022FDF7B0FE002371
:10269000C4F224030022FDF71CFFFDF7DEFF60609B
:1026A000FDF7C8FF49F69A1249F69913C9F699122F
:1026B000CCF21903FDF7F4FD0023C3F6E07300220A
:1026C000FDF795FE0023C4F259030022FDF78FFEAB
:1026D000FDF7C3FF0021C4F2C8210646FDF776FFCF
:1026E00000281CBF0026C4F2C82630460021FDF792
:1026F0005FFF0028284618BF0026A660FEF7FEFBF5
:1027000070BD000010B540F21C04C2F20004204667
:10271000FEF796F92046FEF7F1FB10BD0FB4054B0E
:1027200010B503A9044A029800F0DAF810BC5DF86D
:1027300014FB0000A52500080000002002E008C8E6
:10274000121F08C1002AFAD170477047002001E02B
:1027500001C1121F002AFBD1704700002DE9FF5F65
:1027600082B00021DDE90430020DDDF840B0034302
:1027700018D044F61050A2F2FF32424315141198BB
:1027800001281FD0A5EB0B00401C5FEA000A4FF0A8
:1027900000064E4FDFF83891B046504615D5CAF1C5
:1027A000000413E0119801244AA3012801D16FEA23
:1027B0000B010298119AC0E90031C0E9024206B04B
:1027C000BDE8F09FCBF10000DFE704460021404A5E
:1027D000491842EB0450CDE9001012E0E00707D0A1
:1027E00032463B4640464946FDF701FE8046894653
:1027F00032463B4610461946FDF7F9FD06460F46A0
:102800006410002CEAD1DDE90401DDE90023BAF10E
:10281000000F06DAFDF7EBFD42464B46FDF7E7FDFC
:1028200005E0FDF756FE42464B46FDF752FE0446D4
:102830000E460022284BFEF741F803D84FF0FF3038
:10284000014607E00022254B20463146FDF728FDD2
:10285000FEF71BF8102409E0002C0ADB0A220023F3
:10286000FDF72DFF039B30321A55641E50EA01021A
:10287000F2D1641C039AC4F111031444119A012A81
:1028800003D0012208430DD10AE0084304D0002000
:102890004FF0110B119072E7A3EB0B056D1E0DE0CD
:1028A0005B4504DD4FF0000205F1010504E003DAA9
:1028B0004FF00002A5F10105002AECD00298119911
:1028C000C0E90231C0E9004579E70000000014408A
:1028D0000000F03F300000000000F0430000E03F47
:1028E0002DE9FF4F95B09B468946064600250FE22D
:1028F000252877D100242746F84A0121059400E0D5
:10290000044316F8013F203B01FA03F01042F7D1CF
:1029100030782A2811D06FF02F033078A0F13002E0
:10292000092A16D8059A44F0020402EB820203EB4E
:1029300042021044761C0590EFE759F8042B0592EB
:10294000002A03DA504244F40054059044F0020493
:10295000761C30782E2816D116F8010F44F00404A6
:102960002A280DD06FF02F023078A0F13003092B08
:1029700009D807EB870302EB4303C718761CF3E77C
:1029800059F8047B761C30786C280FD006DC4C2874
:1029900017D068280DD06A2814D104E0742810D00C
:1029A0007A280FD10DE044F400140AE044F48014B6
:1029B00001E044F440147278824202D104F580149C
:1029C000761C761C307866280BD013DC582877D01C
:1029D00009DC002875D04528F6D04628F4D04728D1
:1029E0001AD19DE118E0632835D0642879D0652894
:1029F00012D195E1702873D008DC6728F1D06928DE
:102A00006FD06E280DD06F2806D1B5E073282CD07A
:102A1000752875D0782874D05A46179990476D1C40
:102A200075E1C4F30250022809D003280DD0D9F86B
:102A3000001004280DD00D6009F1040967E1D9F8F0
:102A40000010EA17C1E90052F6E7D9F800100D802E
:102A5000F2E70D70F0E719F8041B8DF80010002064
:102A60008DF80100EA46012003E059F804AB4FF06D
:102A7000FF3061074FF0000102D40DE008F10101C1
:102A80008846B9420FDA8045F8DB1AF808100029A9
:102A9000F4D108E008F1010188468142FADB1AF816
:102AA00008100029F6D105985B46A0EB08072146DF
:102AB0003846179A00F094FA284400EB080507E01E
:102AC0004DE029E10DE01AF8010B5A46179990479D
:102AD000B8F10108F7D25B4621463846179A13E150
:102AE00042E00A220092C4F302524FF0000A022A86
:102AF00008D059F804CB032A4FEAEC710AD00DE054
:102B000029E02AE009F1070121F00702F2E802C1F9
:102B1000914609E00FFA8CFC4FEAEC71042A03D1CC
:102B20004FFA8CFC4FEAEC71002907DA0A460021C3
:102B3000DCF1000C61EB02012D2202E0220504D53C
:102B40002B228DF80420012203E0E20701D020228D
:102B5000F7E7904659E00A2102E010220DE010212B
:102B60004FF0000A00910BE010224FF0000A44F0F1
:102B700004040827009203E008224FF0000A0092A4
:102B8000C4F30252022A05D059F804CB0021032ACB
:102B900008D009E009F1070121F00702F2E802C1BB
:102BA000914605E01FFA8CFC042A01D10CF0FF0CC1
:102BB0004FF00008220728D5702806D0009B83F02C
:102BC000100353EA0A0305D00EE040228DF80420DA
:102BD000012208E05CEA010206D030228DF80420D0
:102BE0008DF8050002229046009B83F0080353EA0B
:102BF0000A030AD15CEA010201D1620705D530223D
:102C00008DF804204FF001087F1E582804D034A00E
:102C100003900EA802900DE036A0F9E753466046F7
:102C2000009AFDF74CFD84460398825C0298401E92
:102C3000029002705CEA0100F0D1029806A9081A1D
:102C400000F1200A600702D524F4803400E0012757
:102C5000574502DDA7EB0A0000E0002000EB0A0167
:102C6000009005984144401A0590E00306D45B4665
:102C70002146179A059800F0B3F90544002706E0AD
:102C800001A85A46C05D179990476D1C7F1C4745A7
:102C9000F6DBE0030CD55B462146179A059800F059
:102CA0009FF9054404E030205A46179990476D1C5F
:102CB0000099481E00900029F5DC08E0029802996E
:102CC0005A460078491C0291179990476D1CBAF139
:102CD0000001AAF1010AF1DC65E100000928010008
:102CE0003031323334353637383961626364656682
:102CF0000000000030313233343536373839414244
:102D0000434445460000000000F058F90544761C95
:102D1000307800287FF4ECAD19B02846BDE8F08F7C
:102D2000620700D4062709F1070222F0070CFCE82D
:102D30000223E14603F000485FEA080C02D00FF2DC
:102D4000702C0DE05FEA045C02D50FF2682C07E0FE
:102D50005FEAC47C02D00FF2602C01E0AFF2700C8D
:102D60004FF0FF3823F00043CDF850C065280CD059
:102D700006DC452809D046281DD047283DD13DE036
:102D8000662818D067287ED138E00021112F01DB9A
:102D9000112000E0781CCDE9000106A90EA8FFF77C
:102DA000DDFCDDE90F010E9A03910021009207F18D
:102DB000010A04914DE04FF000400097CDE9011069
:102DC00006A90EA8FFF7CAFCDDE90F0203920E9BCD
:102DD00011990022DDF80CA00093049211B9791C1E
:102DE00000EB010AB7EB0A0004D4C0F1FF3007F191
:102DF000010A0490AAEB0700019044E0012F00DAD9
:102E000001270021112F01DD112000E03846CDE916
:102E1000000106A90EA8FFF7A1FCDDE90F010E9A3B
:102E20000391002104910092BA4621070CD4039922
:102E3000514500DA8A46BAF1010F05DD009AAAF180
:102E40000101515C302908D0B84202DA10F1040FB8
:102E500006DA0121CDE9011015E0AAF10101E9E747
:102E6000002805DC049901440491AAEB000102E06A
:102E7000411C514500DD8A460499401A401C0190CE
:102E80004FF000400290200704D40198504501DB28
:102E9000CDF8048000208DF84F0002980DF14F0707
:102EA000B0F1004F25D02B200E9002984FF0020871
:102EB00000280CDA404202902D200E9007E00A21F3
:102EC0000298FDF7E6FB3031029007F8011DB8F1DA
:102ED0000001A8F10108F2DC02980028EFD1791E68
:102EE0000E980870307800F0200040F0450007F898
:102EF000020D12A8C01B00F107081498007800B159
:102F0000012000EB0A01019801EBE07105984144B2
:102F1000401A401E0590E00306D45B462146179AEE
:102F2000059800F05DF805441498007818B15A46E9
:102F3000179990476D1CE00324D55B462146179AEC
:102F4000059800F04DF805441CE00498002807DBC4
:102F5000DDE90301884203DD0098405C179901E038
:102F6000179930205A469047049805F10105401CF6
:102F700004900198401E019004D12E205A461799C2
:102F800090476D1CBAF10001AAF1010ADDDC05E0F1
:102F900017F8010B5A46179990476D1CB8F10001BC
:102FA000A8F10108F4DC5B462146179A0598ABE6C8
:102FB0002D0000002B000000200000002DE9F04152
:102FC000044600251E461746880404D405E0394609
:102FD0002020B0476D1C641EF9D52846BDE8F0815D
:102FE0002DE9F041044600251E469046C80301D550
:102FF000302700E02027880404D505E04146384604
:10300000B0476D1C641EF9D52846BDE8F08100006C
:103010000000000000000102030406070809000088
:1030200000000102030400004830000800000020F6
:10303000100000003C270008583000081000002055
:10304000D80400004C2700080000000000127A009D
:08305000010000001000000067
:0400000508000131BD
:00000001FF
