:020000040800F2
:1000000048080020D5000008DD0A0008350A00086D
:1000100000000000000000000000000000000000E0
:100020000000000000000000000000005511000862
:100030000000000000000000E11000089D11000811
:10004000E7000008E7000008E7000008E7000008F4
:10005000E7000008E7000008E7000008E7000008E4
:10006000E7000008E7000008E7000008E7000008D4
:10007000E7000008E700000800000000E7000008B3
:1000800000000000E7000008000000000000000081
:10009000E700000800000000E7000008E700000893
:1000A000E7000008E7000008E7000008E700000894
:1000B000E7000008E7000008E7000008E700000884
:1000C0000348854600F02AF80048004791120008CE
:1000D000480800200448804704480047FEE7FEE740
:1000E000FEE7FEE7FEE7FEE71D120008C10000087C
:1000F00030B50B46014600202022012409E00D46C0
:10010000D5409D4205D31D469540491B2546954047
:1001100040191546521E002DF1DC30BD064C01255C
:10012000064E05E0E36807CC2B430C3C984710349F
:10013000B442F7D3FFF7C8FFA4320008C432000866
:1001400070B58C180578401C6B075B0F01D10378E4
:10015000401C2A1106D10278401C03E006780E707C
:10016000401C491C5B1EF9D12B0705D40023521EED
:100170000DD40B70491CFAE70378401CCB1A921C73
:1001800003E01D780D70491C5B1C521EF9D5A1427D
:10019000D8D3002070BD31B500F0CAF8044600F095
:1001A000C7F80099001B8842F9D338BDF8B5002381
:1001B0000124A2E027469F403A4070D04D68022DAE
:1001C00001D0122D14D1DD08AD002D1800952D6A37
:1001D0005E07AC46F50E0F26AE46AE406546B5430B
:1001E000AC460E697546AE4065462E43009D2E62B4
:1001F0004D68012D05D0022D03D0112D01D0122DF7
:1002000016D185680326AC465D00AE46AE40654615
:10021000B543AC46CE687546AE4065462E43866013
:1002200046680D79BE43ED06ED0F9D4035434560B0
:1002300006685F000325BD40AE46AE430D79B44667
:10024000AE07B60FBE4065462E430660C6687546CB
:10025000AE438D68BD403543C5604D68ED004BD55C
:10026000294D6E6B26436E639E08284DB6007519A6
:10027000AC46AD689E07360F0F27B740BD43052734
:100280003F07B84201D1002715E0214FB84201D104
:10029000012710E01F4FB84202D102270BE02BE0EC
:1002A0001D4FB84201D1032705E01C4FB84201D1D0
:1002B000052700E00627B7402F436546AF60184D7D
:1002C0002E684F689643FF0300D516432E606E6874
:1002D0004F689643BF0300D516436E60AE684F6803
:1002E0009643FF0200D51643AE60EE684F68964312
:1002F000BF0200D51643EE605B1C0A681546DD4060
:1003000000D057E7F8BD0000001002400000014097
:100310000004005000080050000C0050001C005069
:1003200000040140002A01D081617047816270475A
:100330000148006870470000000200200248016880
:10034000491C0160704700000002002010B50648FB
:100350000168402211430160002000F007F800F01E
:1003600019F8002010BD00000020024010B504461E
:1003700007487D21C9000068FFF7BAFE00F03EFB88
:1003800000222146501E00F006F8002010BD00009B
:1003900004020020704710B500F0A2FB10BD000061
:1003A000F8B5054653480E460068C007C00FB04276
:1003B0000AD2504801684908490031430160006889
:1003C000C007C00FB0426FD128784B4C800705D5CD
:1003D000E068F0218843A9680843E0602878C007F6
:1003E00052D06868022817D0032818D02168012845
:1003F00018D08905002957DAE16889088900014386
:10040000E160FFF795FF69680746022912D00329CA
:100410001CD0012926D033E021688903EAE721684E
:100420008901E7E74907E5E7FFF782FFC11B33488A
:10043000814223D8E0680007800F0228F4D123E02E
:10044000FFF776FFC11B2D48814217D8E0680007EF
:10045000800F0328F4D117E0FFF76AFFC11B27487C
:1004600081420BD8E0680007800F0128F4D10BE02F
:10047000FFF75EFFC11B2148814201D90320F8BD6F
:10048000E0680007800FF3D11A480168C907C90F57
:10049000B1420BD901684908490031430160006845
:1004A000C007C00FB04201D00120F8BD2878400736
:1004B00006D5E068072109028843E9680843E0603F
:1004C0002878000707D5E0680721C9028843296911
:1004D000C9000843E06000F01DF8E168084A090619
:1004E000090F515CC840074908600020FFF73EFF34
:1004F0000020F8BD002002400010024088130000D8
:10050000883200080402002001480068704700009B
:100510000402002010B5184AD1680C2008400428B5
:100520000BD0082810D00C2810D050680004410FC0
:100530000120C003491C884010BD1068C00601D5C9
:100540000E4810BD0E4810BD0E4810BD88020E4B5F
:10055000000F185C0902D368890F491CDB0301D521
:10056000084A05E01268D20601D5044A00E0044AB0
:100570005043FFF7BDFD10BD0010024000093D00D3
:100580000024F40000127A0098320008F8B50446FE
:100590000078FE4DC0074AD0E8680007800F0228A7
:1005A00007D0E8680007800F032809D1E868C00376
:1005B00006D5286880033AD56068002873D036E0F5
:1005C000012062680004824203D129680143296046
:1005D00011E0052301211B0489049A422A6802D1F3
:1005E0000A432A60F1E782432A602A6802400092A7
:1005F000286888432860606800280CD0FFF798FEC0
:10060000064604E0FFF794FE801B64287ED8286825
:100610008003F7D50BE0FFF78BFE064604E0FFF7FB
:1006200087FE801B6428F1D828688003F7D42078DF
:10063000800741D5E8681F270007800F3F02012887
:1006400007D0E8680007800F032809D1E868C003D5
:1006500006D42868400717D5E068012823D113E0A5
:10066000E068002817D029680922914301432960D6
:10067000FFF75EFE064604E0FFF75AFE801B0228E5
:10068000C4D828684007F7D568682169B8430902CB
:100690000843686010E02868400840002860FFF7C1
:1006A00047FE064605E095E0FFF742FE801B022864
:1006B000ACD828684007F7D42078C00672D5E8681F
:1006C000B34E0007800F0AD0E06900282868B149BE
:1006D0005AD008432860FFF72BFE074644E02868FD
:1006E000800502D5E069002874D0606A69683140ED
:1006F000884212D900F0F6FC0028AFD16868616A20
:10070000B043084368606868000200E0DCE0218CC8
:10071000000A0906084368600FE06968B1430143B5
:1007200069606868218C0002000A09060843686055
:10073000606A00F0D7FC002890D1606A410B01206C
:10074000C003491C8840E96809060A0F9249895C80
:10075000C840924908600020FFF708FE22E0FFF73A
:10076000E7FDC01B02288BD828688005F7D568688C
:10077000616AB043084368606868218C0002000A1F
:100780000906084368600DE088432860FFF7D0FD44
:10079000064604E0FFF7CCFD801B022888D82868B5
:1007A0008005F7D420787E4E000723D560690028A5
:1007B000306910D0012108433061FFF7B9FD0746C9
:1007C00004E0FFF7B5FDC01B02287DD83069800723
:1007D000F7D50FE001E1400840003061FFF7A8FDC8
:1007E000074604E0FFF7A4FDC01B02286CD830695F
:1007F0008007F7D42078400760D5A86B0027C00099
:1008000005D4A86B012109070843A863012765489F
:100810000168C90511D40168821511430160FFF711
:1008200087FD009005E0FFF783FD0099401A6428DA
:100830004AD85C480068C005F5D55648A26882428F
:1008400003D131690143316111E001218902002A9C
:1008500007D005231B029A4203D132690A43326151
:10086000EFE7326982433261306988433061A068C2
:1008700000280ED0FFF75CFD009006E0FFF758FD62
:100880000099411A484881421ED830698005F5D543
:100890000DE0FFF74DFD009006E0FFF749FD0099E0
:1008A000411A414881420FD830698005F5D4002FA4
:1008B00004D0A96B012000078143A963207880063A
:1008C00030D53A48421400E080E0A169002916D0F2
:1008D000AB6801210B43AB606B6B0B436B63016A2D
:1008E00011430162FFF724FD064604E0FFF720FDF7
:1008F000801B02286AD8A8688007F7D512E0A9688B
:1009000049084900A960016A91430162FFF710FD9F
:10091000064604E0FFF70CFD801B022856D8A868A5
:100920008007F7D4A06A002855D0E9680907890F25
:10093000032952D0012636060228286805D0B04384
:100940002860FFF7F5FC044642E0B0432860FFF75B
:10095000EFFC074604E0FFF7EBFCC01B022835D88C
:1009600028688001F7D4216BE06AEA680843616B6C
:10097000FD231B049A4311430843E8602868304371
:100980002860FFF7D5FC044617E000000010024085
:1009900000E000000001000088320008040200208E
:1009A0004010024000700040881300000000014029
:1009B000FFF7BEFC001B022808D828688001F7D585
:1009C00009E0FFF7B5FC001B022801D90320F8BDA0
:1009D00028688001F5D40020F8BD0120F8BD000092
:1009E000042204490428086902D090430861704732
:1009F0001043FBE700E000E070470000094910B534
:100A0000401E884201D9012010BD074C60610321BE
:100A1000081F00F065F80020A06107202061002079
:100A200010BD0000FFFFFF0000E000E010B5FFF781
:100A3000E3FF10BDFEE710B50524240701220221C3
:100A40002046FFF76FFC012211462046FFF76AFCA3
:100A500000F03DF8002202212046FFF763FC00F081
:100A600036F8002201212046FFF75CFC00F02FF849
:100A700010BD10B505242407002202212046FFF7EF
:100A800051FC012211462046FFF74CFC00F01FF8F4
:100A9000012202212046FFF745FC10BD10B50524B8
:100AA0002407012202212046FFF73CFC00F00FF84A
:100AB000012211462046FFF735FC00F008F800221D
:100AC00001212046FFF72EFC00F001F810BD0320A5
:100AD0000146401EC0B20029FAD17047704700009D
:100AE0008307FF22DB0E9A408907090E99400028F0
:100AF0000BDA0007000F0838830808489B00181815
:100B0000C36993430B43C3617047830804489B0048
:100B10001B181868904308431860704700ED00E008
:100B200000E400E010B50021084B0A4600208400D4
:100B3000E418401CC0B262548028F8D3491CC9B2E2
:100B40000429F3D300F0C8F810BD0000080200200B
:100B500030B5CC084B075B0F01259D40EBB2074D2C
:100B600080004519C808285C002A01D0184302E01B
:100B7000C0431843C043285530BD00000802002080
:100B8000F0B54E4887B0C16A01242143C162C06AF2
:100B900002252040059003200090112001AA31C2B7
:100BA00005273F0769463846FFF700FB012203216E
:100BB0003846FFF7B7FB424E019469463846009627
:100BC00003950294FFF7F2FA012231463846FFF707
:100BD000A9FB002204213846FFF7A4FBC820FFF739
:100BE000DAFA012204213846FFF79CFB0021AE20EF
:100BF00000F05BFA0021084600F057FA00211020AF
:100C000000F053FA0021084600F04FFA0021B0200E
:100C100000F04BFA0021812000F047FA0021FF206C
:100C200000F043FA0021A12000F03FFA0021A620A5
:100C300000F03BFA0021A82000F037FA00211F2025
:100C400000F033FA0021C82000F02FFA0021D32051
:100C500000F02BFA0021084600F027FA0021D520E9
:100C600000F023FA0021802000F01FFA0021D92093
:100C700000F01BFA00211F2000F017FA0021DA20F3
:100C800000F013FA0021084600F00FFA0021DB20E3
:100C900000F00BFA0021402000F007FA00218D201F
:100CA00000F003FA0021142000F0FFF9FFF73AFFEB
:100CB0000021AF2000F0F9F907B0F0BD00100240AC
:100CC000048000000246012000E050430B46491E0C
:100CD000C9B2002BF9D1704770B5174E00242046D9
:100CE000B030C0B2002100F0E0F90021084600F069
:100CF000DCF90021102000F0D8F9FFF79CFE7820E5
:100D000000F029FAFFF7CAFE402000F024FAFFF7AE
:100D1000C5FE0025A8008019005D00F01CFAFFF751
:100D2000BDFE6D1CEDB2802DF4D3FFF7A2FE641C56
:100D3000E4B2042CD3D370BD08020020F7B500251F
:100D400082B02C460498009010232A460821802067
:100D500000F0B0F86D1CEDB2029885421BD10398EB
:100D60000025060114E00121184A00208B009A1882
:100D70001718135C203F401CC0B23B770428F7D300
:100D8000491CC9B29029EFD3FFF7A6FF6D1CEDB245
:100D9000AE42E8D80025641CE4B2102C00D1002437
:100DA0000A4A012100208B009B181F181E5C203F5F
:100DB000401CC0B23E770428F7D3491CC9B2902921
:100DC000F0D3FFF789FF002CC6D1BBE70802002053
:100DD000FFB589B00998079058081C460E46059142
:100DE0000690082B0DD0E008610700D001214018C3
:100DF00006994843C0B2203A0190D0B20390002037
:100E000047E00620F7E7082C11D00C2C14D0102C4A
:100E100017D0182C41D10398242148432149411867
:100E2000009800270D5CE8070FD0129A11E0039894
:100E3000062148431C49F2E703980C2148431B490B
:100E4000EDE703981A490001E9E71298002826D037
:100E5000002231460998FFF77BFE761C7F1C6D0847
:100E6000FFB2F6B2082FDED30998401CC0B2099039
:100E7000082C0AD00799411A0698814205D1079893
:100E8000099005980830C0B205900098059E401C56
:100E9000C0B2019900908842B5D30DB0F0BD0122D7
:100EA000D7E700000421000878140008A016000805
:100EB000141B0008FFB587B0079805900A980E46E6
:100EC0000491C108400700D0012008180A9948433E
:100ED0000024019041E00A9810280FD0182811D062
:100EE000202815D040283BD109981F4940024018BE
:100EF000055D0027E80710D0109A12E009981B49F9
:100F00004001F4E70998482148431749C839EEE7FA
:100F100009981549C0018039E9E71098002821D0C7
:100F2000002231460798FFF713FE761C7F1C6D08E0
:100F3000FFB2F6B2082FDDD307980599401CC0B266
:100F40000790411A0A98814205D1059807900498A4
:100F50000830C0B20490049E641C01988442BAD345
:100F60000BB0F0BD0122DCE788300008602E0008DD
:100F7000FFB581B00A9800251E46082800D1022539
:100F8000002447081DE0301B401EC1B20A20FFF7B5
:100F900099FE01460398FFF7ABF80A21FFF7A8F87E
:100FA0000B980029009010D03031CAB278190199FD
:100FB000604340180A9BC0B20299FFF709FF641C06
:100FC000E4B2B442DFD305B0F0BD781901996043B3
:100FD0004018C0B230220A9BEEE7FFB584B0002073
:100FE0000290049801900C460091D808590700D04F
:100FF000012140180790002032E000262AE00299E3
:101000000D98475C481C00250290F80701D00E9A05
:1010100003E00E98002829D0002221460498FFF70B
:1010200097FD641C6D1C7F08EDB2E4B2082DECD373
:1010300004980199401CC0B20490411A069881425C
:1010400005D10198049000980830C0B20090761C39
:10105000009CF6B206988642D1D30398401CC0B2D9
:10106000079903908842C8D308B0F0BD0122D4E7A5
:10107000FFB581B01E46154604465F080BE00A988E
:101080000090334620460299FFF7A2FE082E09D0B1
:101090003819C4B26D1C2A78104620385E28EED963
:1010A00005B0F0BDA41DE4B2F4E770B50C460546EA
:1010B000FFF7C1FC782000F04EF8FFF7EFFC002CA2
:1010C00001D0402000E0002000F045F8FFF7E6FCEA
:1010D000284600F040F8FFF7E1FCFFF7CAFC70BDBE
:1010E0007047000070B517490023CA681206120F36
:1010F00018D18A6B154CD500134A02D512682240CC
:1011000009E08E6B01252D072E438E6312688E6BCE
:101110002240AE438E63A24204D103218903884258
:1011200000D101230A4801684908490019430160B8
:101130000068C007C00F984201D0012070BD002098
:1011400070BD000000100240007000400018000058
:1011500000200240704770B500240526054636077A
:10116000280601D5012200E0002202213046FFF7C7
:10117000D9F8FFF7ACFC012211463046FFF7D2F850
:10118000FFF7A5FC002201213046FFF7CBF86806E7
:10119000641C050EE4B2082CE2D370BD10B5FFF755
:1011A000CDF8FFF743FC10BD10B51B4894B00168A3
:1011B0000322D2029143C2148918016002200090D8
:1011C00001210A90039140040C9000011021002499
:1011D0000D900B9404916846FFF7D8F90F200E90FC
:1011E00003200F9010941194012112940EA8FFF780
:1011F000D7F8FFF789F97D21C900FEF779FFFFF7DE
:10120000FDFB0420FFF7ECFB00221146501EFFF708
:10121000C2F814B010BD0000007000401048016812
:10122000821511430160C1680E4A1140C160016816
:101230000D4A1140016081684908490081600168D8
:101240000122920491430160C168FD22120491437E
:10125000C160002101610549C0038860704700003A
:10126000001002400C40FF88F6FFF6FE00ED00E0A3
:1012700002E008C8121F08C1002AFAD1704770475F
:10128000002001E001C1121F002AFBD170470000BD
:101290001CB52025FFF75AF8FFF786FFFFF770FC13
:1012A00005200022A9020007FFF73CF8624F012445
:1012B000FF26F5360021202380220846009701945E
:1012C000FFF78BFEFFF708FD3046FEF764FFFFF7E0
:1012D00029FC00221023114610460094FFF7EAFD76
:1012E00010230122002112200094FFF7E3FD1023B8
:1012F0000222002124200094FFF7DCFD10230322AA
:10130000002136200094FFF7D5FD10230422002190
:1013100048200094FFF7CEFD1023052200215A201B
:101320000094FFF7C7FD1023062200216C200094D3
:10133000FFF7C0FD102341A2194608200094FFF7D3
:1013400097FEFFF7C9FC3046FEF725FFFFF7EAFBE3
:1013500010233EA2002114200094FFF789FE1023E1
:101360003DA2194600200094FFF782FE10233CA204
:1013700019463F200094FFF77BFE10232A461946AA
:1013800030200094FFF724FD6D1CEDB27E2D00D9B6
:10139000202510200146009003232A46019467204F
:1013A000FFF7E6FDFFF798FC3046FEF7F4FEFFF787
:1013B000B9FB00221023114610460094FFF77AFD76
:1013C00000221823114610200094FFF773FD00221D
:1013D0002023114628200094FFF76CFDFFF77CFCCA
:1013E0003046FEF7D8FEFFF79DFB08231EA207211B
:1013F00000200094FFF73CFE0C231CA204211220C5
:101400000094FFF735FE102319A202212420009436
:10141000FFF72EFE182317A2002138200094FFF7B3
:1014200027FEFFF759FC3046FEF7B5FE01220421E6
:101430000B20FFF783FC3DE7000000205A484F4E89
:10144000474A494E475955414E0000003230313429
:101450002F30352F3031000041534349493A0000C5
:10146000434F44453A0000004100000042000000A4
:1014700043000000440000000000000000000000E5
:10148000002F000000000700070000147F147F14E5
:1014900000242A7F2A12006264081323003649556B
:1014A000225000000503000000001C224100000043
:1014B00041221C000014083E08140008083E0808D9
:1014C000000000A060000008080808080000606034
:1014D0000000002010080402003E5149453E000073
:1014E000427F4000004261514946002141454B3155
:1014F000001814127F10002745454539003C4A4921
:101500004930000171090503003649494936000692
:101510004949291E000036360000000056360000FA
:101520000008142241000014141414140000412275
:10153000140800020151090600324959513E007C4D
:101540001211127C007F49494936003E4141412237
:10155000007F4141221C007F49494941007F090920
:101560000901003E4149497A007F0808087F0000D0
:10157000417F4100002040413F01007F081422418B
:10158000007F40404040007F020C027F007F040843
:10159000107F003E4141413E007F09090906003E9F
:1015A0004151215E007F09192946004649494931C8
:1015B0000001017F0101003F4040403F001F2040EB
:1015C000201F003F4038403F0063140814630007A9
:1015D0000870080700615149454300007F41410000
:1015E00000552A552A55000041417F0000040201A0
:1015F000020400404040404000000102040000207E
:1016000054545478007F48444438003844444420BB
:1016100000384444487F00385454541800087E0968
:1016200001020018A4A4A47C007F08040478000030
:10163000447D4000004080847D00007F10284400ED
:101640000000417F4000007C04180478007C0804FE
:10165000047800384444443800FC2424241800183A
:10166000242418FC007C0804040800485454542026
:1016700000043F444020003C4040207C001C2040AF
:10168000201C003C4030403C004428102844001CF2
:10169000A0A0A07C004464544C44141414141414EA
:1016A0000000000000000000000000000000FC003E
:1016B0000000000002000000000C020C020000000C
:1016C0000000000090D0BCD0BC90000300030000DC
:1016D0001824FE448C000302070201001824D8B02D
:1016E0004C80000300010201C038E438E000010230
:1016F00002010202080600000000000000000000D5
:10170000000000F80402000000010204000204F8D6
:1017100000000004020100009060F86090000000EA
:10172000010000002020FC2020000000010000003B
:10173000000000000000080600000000202020201B
:101740002000000000000000000000000000000277
:10175000000000000080601C020004030000000084
:10176000F8040404F8000102020201000008FC0071
:101770000000000203020000188444241800030241
:101780000202020008042424D8000102020201001F
:1017900040B088FC80000000000302003C242424A8
:1017A000C400010202020100F824242CC00001023E
:1017B000020201000C04E41C04000000030000000D
:1017C000D8242424D80001020202010038444444F1
:1017D000F8000003020201000000100000000000F9
:1017E00002000000000020000000000006000000D1
:1017F00000205088040200000000010290909090A8
:101800009000000000000000000204885020000248
:10181000010000001804C4241800000002000000A9
:10182000F804E494F80001020202020000E09CF0D7
:10183000800002030000030204FC2424D8000203F9
:1018400002020100F80404040C000102020201007B
:1018500004FC0404F80002030202010004FC2474E6
:101860000C0002030202030004FC24740C000203B7
:1018700002000000F0080444CC4000010202010014
:1018800004FC2020FC040203000003020404FC0406
:101890000400020203020200000404FC0404060423
:1018A0000403000004FC24D00C0402030200030221
:1018B00004FC04000000020302020203FC3CC03CE2
:1018C000FC0003000300030004FC30C4FC0402031A
:1018D00002000300F8040404F800010202020100FF
:1018E00004FC24241800020302000000F88484048D
:1018F000F80001020207050004FC246498000203BA
:1019000002000302182424448C0003020202010096
:101910000C04FC040C0000020302000004FC0000A4
:10192000FC04000102020100047C80E01C040000B1
:10193000030000001CE03CE01C000003000300006A
:10194000049C609C0400020300030200041CE01CD1
:1019500004000002030200000C84641C0400020363
:10196000020203000000FE0202000000070404005F
:10197000000E30C00000000000010200000202FE64
:10198000000000040407000000040204000000003E
:101990000000000000000000000008080808080817
:1019A0000000020000000000000000000040A0A0B5
:1019B000C00000010202030204FC2020C00000035A
:1019C0000202010000C020206000000102020200AB
:1019D00000C02024FC0000010202030200C0A0A0FD
:1019E000C0000001020202000020F82424040002CA
:1019F000030202000040A0A0602000070A0A0A04B7
:101A000004FC2020C0000203020003020020E400C6
:101A10000000000203020000000020E400000808AB
:101A20000807000004FC80E02020020302000302FB
:101A30000404FC000000020203020200E020E02097
:101A4000C00003000300030020E02020C0000203C8
:101A50000200030200C02020C000000102020100B9
:101A600020E02020C000080F0A02010000C0202052
:101A7000E0000001020A0F0820E0402020000203DD
:101A8000020000000060A0A020000002020203008B
:101A90000020F820000000000102020020E00020E9
:101AA000E00000010202030220E02080602000002C
:101AB000030100006080E08060000003000300007C
:101AC00020608060200002030003020020E02080EC
:101AD00060200808070100000020A060200000022C
:101AE00003020200000020DE0200000000070400E4
:101AF000000000FF00000000000F00000002DE20D8
:101B000000000004070000000201020404020000BB
:101B100000000000000000000000000000000000C5
:101B200000000000000000F800000000000000338A
:101B30003000000000100C06100C06000000000031
:101B40000000000040C07840C0784000043F04041A
:101B50003F040400007088FC08300000001820FFDB
:101B6000211E0000F008F000E018000000211C0316
:101B70001E211E0000F00888700000001E21232492
:101B80001927211010160E000000000000000000B0
:101B900000000000000000E0180402000000000740
:101BA0001820400000020418E00000000040201847
:101BB00007000000404080F0804040000202010F1A
:101BC00001020200000000F0000000000101011FFE
:101BD00001010100000000000000000080B0700062
:101BE00000000000000000000000000000010101F2
:101BF0000101010100000000000000000030300081
:101C0000000000000000000080601804006018065A
:101C10000100000000E010080810E000000F102094
:101C200020100F00001010F8000000000020203FDE
:101C30002020000000700808088870000030282468
:101C40002221300000300888884830000018202009
:101C500020110E000000C02010F80000000704242E
:101C6000243F240000F80888880808000019212073
:101C700020110E0000E0108888180000000F1120CD
:101C800020110E0000380808C83808000000003F86
:101C9000000000000070880808887000001C2221E5
:101CA00021221C0000E010080810E0000000312292
:101CB00022110F00000000C0C00000000000003032
:101CC0003000000000000080000000000000806084
:101CD0000000000000008040201008000001020405
:101CE00008102000404040404040400004040404EC
:101CF00004040400000810204080000000201008A8
:101D000004020100007048080808F00000000030DC
:101D100036010000C030C828E810E000071827246A
:101D200023140B000000C038E0000000203C230218
:101D30000227382008F8888888700000203F20207B
:101D400020110E00C03008080808380007182020AD
:101D50002010080008F808080810E000203F2020A4
:101D600020100F0008F88888E8081000203F202085
:101D70002320180008F88888E8081000203F200079
:101D800003000000C03008080838000007182020B1
:101D9000221E020008F808000008F808203F210170
:101DA00001213F20000808F8080800000020203F1B
:101DB0002020000000000808F8080800C08080808B
:101DC0007F00000008F888C028180800203F200184
:101DD0002638200008F8080000000000203F2020DE
:101DE0002020300008F8F800F8F80800203F003FF5
:101DF000003F200008F830C00008F808203F20000D
:101E000007183F00E01008080810E0000F1020201D
:101E100020100F0008F808080808F000203F2101F2
:101E200001010000E01008080810E0000F18242449
:101E300038504F0008F8888888887000203F2000BC
:101E4000030C302000708808080838000038202172
:101E500021221C00180808F8080818000000203F7C
:101E60002000000008F808000008F808001F2020E3
:101E700020201F000878880000C8380800000738B4
:101E80000E010000F80800F80008F800033C070005
:101E9000073C0300081868808068180820302C036D
:101EA000032C30200838C800C83808000000203F44
:101EB0002000000010080808C83808002038262133
:101EC00020201800000000FE020202000000007F37
:101ED00040404000000C30C0000000000000000145
:101EE0000638C00000020202FE0000000040404030
:101EF0007F00000000000402020204000000000055
:101F000000000000000000000000000080808080D1
:101F100080808080000202040000000000000000B9
:101F20000000000000008080808000000019242252
:101F300022223F2008F8008080000000003F11208E
:101F400020110E000000008080800000000E112093
:101F500020201100000000808088F800000E112071
:101F600020103F200000808080800000001F22227F
:101F700022221300008080F0888888180020203FEB
:101F8000202000000000808080808000006B9494FE
:101F90009493600008F8008080800000203F2100BA
:101FA00000203F2000809898000000000020203F83
:101FB00020200000000000809898000000C0808071
:101FC000807F000008F8000080808000203F24020D
:101FD0002D302000000808F8000000000020203FFD
:101FE000202000008080808080808000203F2000B2
:101FF0003F20003F8080008080800000203F210043
:1020000000203F200000808080800000001F2020F2
:1020100020201F00808000808000000080FFA12021
:1020200020110E000000008080808000000E112032
:1020300020A0FF80808080008080800020203F21C1
:102040002000010000008080808080000033242474
:1020500024241900008080E0808000000000001F20
:10206000202000008080000000808000001F2020D1
:1020700020103F20808080000080808000010E3092
:102080000806010080800080008080800F300C03F3
:102090000C300F0000808000808080000020312EF6
:1020A0000E312000808080000080808080818E70D2
:1020B0001806010000808080808080000021302C84
:1020C0002221300000000000807C0202000000009D
:1020D000003F404000000000FF0000000000000042
:1020E000FF0000000002027C800000000040403F32
:1020F00000000000000601010202040400000000CC
:1021000000000000000000000000000000000000CF
:1021100000000000000000000000000000000000BF
:1021200000000000000000000000000000F0F0F0DF
:10213000000000000000000000017F01000000001E
:1021400000000000001C1C1C00000000000080605B
:10215000301C8C60301C0C000000000000000000EF
:10216000000000000000000000000000000000006F
:10217000000000E00000000000E000000086E69F94
:1021800086868686E69F860000011F010101010107
:102190001F010100000080C06020F820E0C00000A6
:1021A000000003070C18FF70E18100000000070F1A
:1021B00010107F100F07000080602060800000007A
:1021C000E02000000F3020309F70DC371030C0005E
:1021D0000000100E03000718101807000000C020B0
:1021E00020E0C0000000000080E01F38E88703C442
:1021F0003C040000070F1810100B070D101008000A
:1022000000808C4C3800000000000000000000003E
:1022100000000000000000000000000000000000BE
:102220000000000000000000000080E03008040012
:102230000000000000FEFF010000000000000000A0
:102240000000030F1820400000040830E080000068
:10225000000000000000000001FFFE000000000080
:10226000004020180F0300000000000000000000E4
:102270000000C00000000000004266663C18FF1825
:102280003C66664200000000000003000000000001
:10229000000000000000800000000000001010108E
:1022A0001010FF10101010100000000000000300BC
:1022B000000000000000000000000000000000001E
:1022C00000000000000000000000000000808C4CB6
:1022D00038000000000000000000000000000000C6
:1022E000000000000010101010101010101010004E
:1022F00000000000000000000000000000000000DE
:1023000000000000000000000000000000000000CD
:102310000000000000001C1C1C0000000000000069
:102320000000000000000000E0380C000000000089
:1023300080701C03000000000060380E01000000E7
:1023400000000000000080C060202060C08000000D
:1023500000FEFF010000000001FFFE000001070E6B
:10236000181010180E0701000000808080C0E000E7
:10237000000000000000000000FFFF00000000005F
:1023800000001010101F1F101010000000804020CF
:1023900020202060C080000000030300804020381F
:1023A0001F070000001C1A1918181818181F000021
:1023B0000080C020202060C08000000000030300D7
:1023C0001010182FE780000000070F1010101018D1
:1023D0000F070000000000000000C0E0F000000057
:1023E00000C0B088868180FFFF8080000000000070
:1023F0000010101F1F1010000000E060606060609F
:102400006060000000003F1008080818F0E00000BD
:1024100000070B101010101C0F030000000080C0FC
:1024200040202020E0C0000000FCFF211008080828
:1024300018F0E0000001070C18101010080F03003E
:102440000000C0E06060606060E0600000000300C9
:102450000000E0180700000000000000001F1F003F
:10246000000000000080C0602020202060C08000AC
:102470000087EF2C1818303068CF830000070F0852
:1024800010101010180F07000000C0C020202020DE
:10249000C0800000001F3F604040402010FFFE0051
:1024A00000000C1C101010080F03000000000000BA
:1024B000000000000000000000000000000E0E0EF2
:1024C0000000000000000000001C1C1C00000000B8
:1024D00000000000000000000000000000000000FC
:1024E000000C0C0000000000000000000058380044
:1024F00000000000000000000000008040201000EC
:1025000000001028448201000000000000000000CC
:10251000000001020408100000000000000000009C
:102520000000000000848484848484848484840083
:10253000000000000000000000000000000010206B
:102540004080000000000000000000000000018248
:1025500044281000000010080402010000000000E0
:1025600000C020201010101030E0C0000003030055
:1025700000F010080C070300000000001C1C1C00E9
:1025800000000000000000C0406020202040C0008B
:1025900000FCFF01F00E03C1FE03807F0001070E67
:1025A00008111110110904020000000080E0E00091
:1025B000000000000000807C4340477FF88000005E
:1025C00010181F1000000000131F1C1020E0E02056
:1025D00020202060C080000000FFFF1010101018A5
:1025E0002FE78000101F1F1010101010180F070089
:1025F000000080C0402020202060E00000FCFF019F
:1026000000000000000001000001070E181010106B
:102610000804030020E0E02020202040C0800000CB
:1026200000FFFF000000000001FFFE00101F1F1050
:10263000101018080E07010020E0E02020202020C4
:102640002060800000FFFF101010107C00000000D0
:10265000101F1F10101010101018060020E0E020AE
:10266000202020206060800000FFFF101010107CF0
:1026700000000100101F1F100000000000000000FB
:10268000000080C06020202040E0000000FCFF012E
:1026900000004040C0C140400001070E181010105B
:1026A0000F0F000020E0E0200000000020E0E0200C
:1026B00000FFFF101010101010FFFF00101F1F1060
:1026C00000000000101F1F100000202020E0E0206C
:1026D000202000000000000000FFFF0000000000BC
:1026E00000001010101F1F1010100000000000004C
:1026F000202020E0E020202000000000000000FF5B
:10270000FF0000000060E0808080C07F3F0000008C
:1027100020E0E020000020A06020200000FFFF302B
:10272000187CE3C000000000101F1F100000011300
:102730001F1C181020E0E020000000000000000036
:1027400000FFFF000000000000000000101F1F102D
:10275000101010101018060020E0E0E0000000004B
:10276000E0E0E02000FF013FFEC0E01E01FFFF00AF
:10277000101F1000031F0300101F1F1020E0E0C0F7
:10278000000000000020E02000FF0003071C78E0AC
:102790008000FF00101F100000000000030F1F004A
:1027A000000080C060202060C080000000FEFF01AB
:1027B0000000000000FFFE000001070E18101018B6
:1027C0000C07010020E0E0202020202060C08000D5
:1027D00000FFFF2020202020301F0F00101F1F109F
:1027E0000000000000000000000080C060202060A9
:1027F000C080000000FEFF010000000000FFFE009E
:102800000001070E1111133C7C67210020E0E0203D
:102810002020202060C0800000FFFF101030F0D08A
:10282000080F0700101F1F10000000030F1C1010DE
:102830000080C060202020204040E00000070F0CF6
:102840001818303060E08100001F0C0810101010C4
:10285000180F07008060202020E0E020202060800A
:102860000100000000FFFF00000000010000000068
:10287000101F1F100000000020E0E02000000000FA
:102880000020E02000FFFF00000000000000FF002B
:1028900000070F1810101010100807002060E0E06B
:1028A0002000000020E060200000077FF88000800A
:1028B0007C03000000000000071F1C070000000050
:1028C00020E0E02000E0E0200020E0200007FFF80A
:1028D000E01FFFFCE01F00000000031F0300011FBA
:1028E00003000000002060E0A0000020E060200065
:1028F000000000038F7CF8C6010000000010181EC5
:10290000130001171F1810002060E0E020000000F5
:1029100020E06020000001073EF8E01807000000FA
:1029200000000010101F1F10100000000080602029
:10293000202020A0E0E0200000000000C0F03E0FBA
:102940000300000000101C1F1710101010180600C4
:102950000000000000FC0404040404000000000067
:1029600000FF00000000000000000000007F404069
:1029700040404000000010E00000000000000000A7
:1029800000000000031C6080000000000000000048
:10299000000000030C70800000000404040404FC28
:1029A0000000000000000000000000FF0000000028
:1029B000000040404040407F000000000000001048
:1029C000080C040C081000000000000000000000CB
:1029D00000000000000000000000000000000000F7
:1029E00000000000000000000000000000000000E7
:1029F00000000000000000008080808080808080D7
:102A000080808080000000040408080000000000AE
:102A100000000000000000000000000000000000B6
:102A200000000000000000000000000000000000A6
:102A300000000000000098D844642424FCF8000042
:102A4000000F1F18101010081F1F10180020E0F0B2
:102A500000000000000000000000FFFF1808040450
:102A60000CF8F00000001F0F18101010180F0300D2
:102A700000000000000000000000000000E0F81866
:102A80000404043C3800000000030F0C1010101068
:102A9000080600000000000000000020E0F0000038
:102AA00000E0F81C04040408FFFF000000030F18F6
:102AB000101010081F0F08000000000000000000A8
:102AC000000000000000E0F8484444444C787000E6
:102AD0000000030F0C181010100804000000000084
:102AE00080C0602020E0C00000040404FFFF040454
:102AF00004040000000010101F1F10101000000040
:102B0000000000000000000000000000000070F85D
:102B10008C04048CF874040C007076CF8D8D8D8934
:102B2000C87870000020E0F0000000000000000005
:102B30000000FFFF08040404FCF8000000101F1F41
:102B4000100000101F1F1000000000000060600057
:102B5000000000000000040404FCFC000000000071
:102B600000001010101F1F101010000000000000C7
:102B7000000000606000000000000000040404FC8D
:102B8000FC0000000000C0C08080C07F3F0000004B
:102B90000020E0F000000000000000000000FFFF47
:102BA00080C0F41C0404000000101F1F1100031F4C
:102BB0001C1010000000202020E0F00000000000A9
:102BC0000000000000FFFF000000000000001010E7
:102BD000101F1F1010100000000000000000000077
:102BE0000000000004FCFC0804FCFC0804FCFC00E1
:102BF000101F1F10001F1F10001F1F1000000000DB
:102C000000000000000000000004FCFC08080404B0
:102C1000FCF8000000101F1F100000101F1F100004
:102C200000000000000000000000000000E0F018BC
:102C30000C04040C18F0E00000030F0C101010102E
:102C40000C0F030000000000000000000000000066
:102C50000004FCFC080404040CF8F0000080FFFFF2
:102C6000889010101C0F03000000000000000000FE
:102C70000000000000E0F81C04040408F8FC000058
:102C800000030F1810109088FFFF80000000000064
:102C90000000000000000000040404FCFC10080414
:102CA000040C0C001010101F1F101010000000006A
:102CB000000000000000000000000000000030786C
:102CC000CCC48484840C1C0000001E181010101149
:102CD000190F06000000000000C000000000000006
:102CE00000040404FFFF04040400000000000000CE
:102CF0000F1F1010100C000000000000000000006A
:102D0000000000000004FCFE00000004FCFE0000C7
:102D100000000F1F181010081F0F0800000000000F
:102D2000000000000000000000040C3CFCC4000097
:102D3000C43C0C0400000000010F1E0E0100000046
:102D4000000000000000000000000000043CFCC483
:102D500000E47CFC84807C040000071F070000075F
:102D60001F0700000000000000000000000000003D
:102D70000004041C7CE4C0341C0404000010101C7B
:102D80001601131F1C1810000000000000000000B6
:102D90000000000000040C3CFCC400C43C0404001F
:102DA0000000C080C1370E010000000000000000DC
:102DB000000000000000000000001C0404C4F47CBB
:102DC0001C0400000000101C1F17111010180E002A
:102DD00000000000000000F80C04000000000000EB
:102DE000001028EF00000000000000000000003F7D
:102DF00060400000000000000000FF000000000034
:102E0000000000000000FF000000000000000000C3
:102E10000000FF00000000000000040CF8000000AB
:102E20000000000000000000EF281000000000007B
:102E3000000040603F000000000000000018060293
:102E400002040810202030080000000000000000EC
:102E50000000000000000000000000000000000072
:102E60000000F010101010FF10101010F000000003
:102E700000000F04040404FF040404040F00000015
:102E80004040405F555555755555555F4040400091
:102E90000040200F094989790909090F20400000E5
:102EA00000FE02424ACA4A4ACA4A4A4202FE000098
:102EB00000FF40504C4340404F50505C40FF0000EA
:102EC0000000F888888888FF88888888F8000000D3
:102ED00000001F080808087F888888889F80F00005
:102EE00080828282828282E2A2928A8682808000AE
:102EF000000000000040807F000000000000000093
:102F0000101010FF109008888888FF8888880800B3
:102F10000444827F01808040432C10284681800039
:102F20000010101010D030FF30D0121C1010000014
:102F300010080402010000FF000001020408100054
:102F400004040484E43C2724242424E4040404002A
:102F500004020100FF0909090949897F00000000F6
:102F600000FE225A8600FE9292929292FE0000008B
:102F700000FF04080700FF4020030C14224140001A
:102F800000804020180680000718204080000000C4
:102F90000100207028262120202438600001010033
:102FA000001012929292929292121202FE0000006F
:102FB0000000003F101010103F0040807F00000014
:102FC000000000C080808080808080FC84808080C1
:102FD000808080C0C0000000000000FF7F404040B3
:102FE000404040FF40404040404040FF7F000000E4
:102FF00000000000000000000000007F70000000E2
:1030000000000000000000000000000000000000C0
:1030100000000000000000FCF800000000000000BC
:10302000000000000000000000000000FFFE02029F
:1030300002020202020202FFFF0202020202020276
:103040000202FF0300000000000000001F1F040434
:1030500004040404040404FFFF040404040404043A
:1030600004041F0000000000000000000000000039
:10307000000000000000007F3F0000000000000092
:103080000000000000000000000000000000000040
:103090000000000000000000000000000000000030
:1030A0000000000000F8F8F0F070200000000000C0
:1030B0000000000000000000000000000000000010
:1030C0000000000000000000000000000000000000
:1030D0008000000000000000000000000000000070
:1030E0000000000000FFFFFFFF00000000000000E4
:1030F00000000000000000000000000080800000D0
:1031000000000000000000000000000000000000BF
:1031100000FFFFFE0606060606060606060606066B
:103120000606060606FFFFFFFF060606060606065B
:103130000606060606060606060606FFFFFFFF074A
:10314000020000000000000000000000000000007D
:1031500000FFFFFF00000000000000000000000072
:103160000000000000FFFFFFFF0000000000000063
:103170000000000000000000000000FFFFFFFF0053
:10318000000000000000000000000000000000003F
:1031900000FFFFFF18181818181818181818181812
:1031A0001818181818FFFFFFFF1818181818181803
:1031B0001818181818181818181818FFFFFFFF000B
:1031C00000000000000000000000000000000000FF
:1031D00002010100000000000000000000000000EB
:1031E0000000000000FFFFFFFF00000000000000E3
:1031F00000000000000000000000000101000000CD
:1032000000000000000000000000000000000000BE
:1032100000000000000000000000000000000000AE
:103220000000000000FFFFFFFF00000000000000A2
:10323000000000000000000000000000000000008E
:10324000000000000000000000000000000000007E
:10325000000000000000000000000000000000006E
:1032600000000000001F1F0F0F0000000000000002
:10327000000000000000000000000000000000004E
:10328000000000000000000000000000000000003E
:103290000102030406070809030406080C1018209D
:1032A00030000000C43200080000002008020000C6
:1032B00040010008C4330008080200204006000056
:1032C000801200081116060AFE0AC612E012F00269
:1032D00014F80416FCFCFC8DF8F8F0B0019BF8F82B
:1032E0003E9DF8F830301C4EB0B0303030208F7832
:1032F00048FE82BABA030218FE3DFFFFFE06014CEB
:10330000FFFFFF09290A712A60011D6FEFEF6701B6
:103310001C7F7F7F062DE7EFEF6F15693D68083052
:1033200030313131F1F1051980793D0110280A243D
:10333000A42E24E4242EA424B910094A4C48F848A9
:103340004C4AF8EC1F1F0F80C41F1F1F380980BF95
:10335000FFF3F33333F305BCFFBFBFBD113F80C0A4
:10336000F07E3F0F0C3AC00129801CC0201001AB39
:1033700020C00A11300A120A07027F02070A121E31
:103380000B0A0A0A7F04A20B04113F3F3F280F18C3
:103390001C0C0E070703010D0C1C3C3F1F66700838
:1033A000010303070F1E1E19BDCC0F0D0C0129BD13
:1033B000980A1F2040404050205F800A39CB138478
:0433C0001E000000EB
:04000005080000C12E
:00000001FF
